:020000040800F2
:10000000E01E0024A503000825A80008059C0008A0
:1000100091A700080506000821DA0008000000008A
:10002000000000000000000000000000E5020008E1
:100030000F0900080000000041030008C9B00008D3
:10004000BF030008BF030008BF030008BF03000888
:10005000BF030008BF030008BF030008BF03000878
:10006000BF030008BF030008BF030008090600081B
:10007000BF030008BF030008BF030008BF03000858
:10008000BF030008BF030008BF03000819090008E8
:10009000390900082909000849090008BF030008B8
:1000A000BF030008BF030008BF030008BF03000828
:1000B000BF030008BF030008BF030008BF03000818
:1000C000BF030008BF030008BF030008BF03000808
:1000D000BF030008E1C00008F1C0000801C100082A
:1000E000BF030008BF03000800000000BF030008B2
:1000F000BF030008BF030008BF030008BF030008D8
:10010000BF030008BF030008BF030008BF030008C7
:10011000BF030008BF030008BF030008BF030008B7
:10012000BF030008BF030008BF030008BF030008A7
:10013000BF030008BF030008BF030008BF03000897
:1001400000000000000000000000000000000000AF
:10015000BF030008BF030008BF030008BF03000877
:10016000BF030008BF030008BF030008BF03000867
:10017000BF0300085DA90008BF03000800000000DD
:10018000BF030008BF03000805B70008BF0300084D
:10019000BF030008BF030008BF030008BF03000837
:1001A000BF030008BF030008BF03000800000000F1
:1001B000BF030008BF030008BF030008BF03000817
:1001C000BF030008BF03000800000000000000009B
:1001D0000000000000000000BF0300080000000055
:1001E000000000000000000000000000000000000F
:1001F0000000000000000000BF030008BF0300086B
:10020000BF030008BF03000800000000BF03000890
:10021000BF030008BF030008BF030008BF030008B6
:10022000BF03000800000000BF030008000000003A
:10023000BF030008BF03000800000000BF03000860
:10024000BF030008BF030008BF030008BF03000886
:10025000BF030008BF030008BF030008BF03000876
:10026000BF030008BF030008BF030008BF03000866
:10027000BF030008BF030008BF0300080000000020
:10028000BF030008BF030008BF030008BF03000846
:1002900000000000BF030008BF03000800000000CA
:1002A00000000000BF030008BF030008BF030008F0
:1002B000D1C00008BF030008BF03000859090008A7
:1002C00069090008ADB20008BF030008DFF810D0CC
:1002D00000F0EEF80048004785DB0008AFF300802F
:1002E000E01E00242C4B19680868B0E8F04F80F33A
:1002F0000988BFF36F8F4FF0000080F311887047BB
:100300000000000008480068006880F308884FF08B
:10031000000080F3148862B661B6BFF34F8FBFF35D
:100320006F8F00DF00BF00BF08ED00E0DFF80C00BA
:10033000016841F470010160704700BF88ED00E082
:10034000EFF30980BFF36F8F134B1A681EF0100F85
:1003500008BF20ED108A20E9F04F106009B44FF07B
:10036000500080F31188BFF34F8FBFF36F8F0DF0F4
:1003700053FD4FF0000080F3118809BC196808682C
:10038000B0E8F04F1EF0100F08BFB0EC108A80F3F9
:100390000988BFF36F8F70472C000024EFF30580AE
:1003A000704700000648804706480047FEE7FEE722
:1003B000FEE7FEE7FEE7FEE7FEE7FEE7FEE7FEE715
:1003C000CDB10008CD0200082DE9F05F0546002000
:1003D00092469B4688460646814640241BE02846B6
:1003E00041464746224600F053F853465A46C01A43
:1003F000914110D311461846224600F03AF82D1AC2
:1004000067EB01084F4622460120002100F031F839
:1004100017EB00094E41201EA4F10104DFDC484621
:1004200031462A464346BDE8F09F40EA01039B0758
:1004300003D009E008C9121F08C0042AFAD203E059
:1004400011F8013B00F8013B521EF9D27047D2B2BD
:1004500001E000F8012B491EFBD270470022F6E7AD
:1004600010B513460A4604461946FFF7F0FF20462A
:1004700010BD202A04DB203A00FA02F10020704768
:100480009140C2F1200320FA03F3194390407047D2
:10049000202A04DB203A21FA02F00021704721FAD9
:1004A00002F3D040C2F12002914008431946704740
:1004B000064C074D06E0E06840F0010394E80700B1
:1004C00098471034AC42F6D3FFF704FFA4E10008CC
:1004D000C4E1000870B5044643492068884203D04F
:1004E00042492068884208D14148006800F4403001
:1004F00008B1012009E0002007E03E48006800F450
:10050000403008B1012000E00020B8B107F05AFAED
:1005100005466068B0F5803F06D0B0F5003F04D0D6
:10052000B0F5403F08D105E000BF6068000CB5FBA6
:10053000F0F502E0AD0800E000BF2BE04FF4002032
:10054000002105F03FFE05466068C0F31101F9B9CE
:1005500080140C281CD2DFE800F01B060708090AEB
:100560000B111315171900BF00BF00BF00BF00BF5C
:100570006068800C4000B5FBF0F50AE02D0908E04A
:100580006D0906E0AD0904E0ED0902E02D0A00E086
:1005900000BF00BF6D081848854206D820688068F3
:1005A00020F44070216888601DE01448854208D816
:1005B0002068806820F4407040F480702168886072
:1005C00011E00F48854208D82068806820F4407008
:1005D00040F400702168886005E02068806840F47D
:1005E00040702168886070BD0020024000210240F8
:1005F0000823024008630258105E5F0020BCBE0062
:1006000040787D0100BFFEE710B5024801F014FEFE
:1006100010BD0000F40400240146374A08689042E7
:1006200049D0354A18320868904244D0324A3032B4
:10063000086890423FD0304A4832086890423AD029
:100640002D4A60320868904235D02B4A78320868CB
:10065000904230D0284A9032086890422BD0264AE7
:10066000A8320868904226D0244A0868904222D0D6
:10067000224A1832086890421DD0204A3032086859
:10068000904218D01D4A48320868904213D01B4A45
:100690006032086890420ED0184A7832086890425A
:1006A00009D0164A90320868904204D0134AA83202
:1006B0000868904201D1012000E00020B0B10A7822
:1006C000103A1823B2FBF3F000F007020C4B9A5CCF
:1006D000CA65032805D90A686FF30902121D8A65E5
:1006E00003E00A686FF309028A6503E0086820F0F6
:1006F000FF008865886D70471000024010040240BA
:1007000008E1000810B502682B4C0368A34222D010
:10071000294C14340368A3421DD0274C28340368A5
:10072000A34218D0244C3C340368A34213D0224C7B
:1007300050340368A3420ED01F4C64340368A342B4
:1007400009D01D4C78340368A34204D01A4C8C3471
:100750000368A34201D1012300E000238BB1037899
:10076000083B1424B3FBF4F1144B03EB8103036641
:10077000124B8033436601F01F040123A3408366BC
:1007800018E00378103B1824B3FBF4F10C4B9A42A9
:1007900004D80B4BA83B9A4200D30831094B03EB1A
:1007A00081030366074B8033436601F01F04012376
:1007B000A340836610BD0000085402580058025838
:1007C000B8040240000802400179A9B3082940D8C2
:1007D000204B02689A4222D01E4B143302689A4280
:1007E0001DD01C4B283302689A4218D0194B3C3359
:1007F00002689A4213D0174B503302689A420ED0C7
:10080000144B643302689A4209D0124B7833026861
:100810009A4204D00F4B8C3302689A4201D10122D4
:1008200000E000224AB14A1E0B4B03EB8202C26673
:10083000094A4032026708E00BE04A1E074B03EB0F
:100840008202C266054A403202674A1E0123934073
:100850004367704708540258005902580009024083
:10086000014600208A69D2B98A6A32B1012A0DD0C4
:10087000022A03D0032A10D10EE000BFCA6A02F098
:100880008072B2F1807F00D1012007E0CA6AB2F124
:10089000C07F00D1012001E000E000BF36E08A699E
:1008A000B2F5005F1BD18A6A32B1012A07D0022A51
:1008B00003D0032A11D10AE000BF01200EE0CA6A6A
:1008C00002F08072B2F1807F00D1012006E0CA6A96
:1008D000B2F1C07F00D1012000E000BF16E08A6ABB
:1008E00032B1012A05D0022A04D0032A0CD103E038
:1008F00000BF00BF012008E0CA6A02F08072B2F1B6
:10090000807F00D1012000E000BF00BF704770472A
:1009100072B600BFFEE7000010B5024802F0CCFE40
:1009200010BD00006C05002410B5024802F0C4FEA2
:1009300010BD00006C05002410B5024802F0BCFE9A
:1009400010BD00000C06002410B5024802F0B4FEF1
:1009500010BD00000C06002410B5024802F0ACFEE9
:1009600010BD0000AC06002410B5024802F0A4FE41
:1009700010BD0000AC06002410B501464A6B0868A3
:10098000D0F884004FF6FC74A04340EA82000C6863
:10099000C4F884000868D0F8840020F47F04088F2D
:1009A00044EA00400C68C4F88400886B024408687C
:1009B000D0F888004FF6FC74A04340EA82000C682F
:1009C000C4F888000868D0F8880020F4FE04888FF6
:1009D00044EA00400C68C4F88800C86B02EB40028F
:1009E0000868D0F8A0004FF6FC74A04340EA8200EB
:1009F0000C68C4F8A0000868D0F8A00020F4FE0439
:100A00004020405A44EA00400C68C4F8A000D1E9F4
:100A1000104004FB00220868D0F8B0004FF6FC74C8
:100A2000A04340EA82000C68C4F8B0000868D0F81F
:100A3000B00020F4FE04B1F8480044EA00400C681D
:100A4000C4F8B000D1E9124004FB00220868D0F8D5
:100A5000AC004FF6FC74A04340EA82000C68C4F876
:100A6000AC00D1E9144004FB00220868D0F8F00083
:100A70004FF6FC74A04340EA82000C68C4F8F00012
:100A80000868D0F8F00020F47C14B1F8580044EA6B
:100A900000400C68C4F8F000886D02EB4002086862
:100AA000D0F8C0004FF6FC74A04340EA82000C6806
:100AB000C4F8C0000868D0F8C00020F47C14B1F875
:100AC0005C0044EA00400C68C4F8C0000868D0F834
:100AD000C00020F07C5491F8600044EA00600C688B
:100AE000C4F8C0002A4C486B04EB8000C866CC6E8A
:100AF000886B04EB80040C670C6FC86B04EBC004BC
:100B00004C67D1E9100460434C6F04EB80048C67A0
:100B1000D1E9120460438C6F04EB8004CC67D1E907
:100B200014046043CC6F04EB80048020445044588C
:100B3000886D04EBC004842044508C6EC86D604303
:100B40008424645804EB8004882044508C6E086E22
:100B500060438824645804EB80049020445040583B
:100B60000C4CA04209D99831486840F020004860F8
:100B7000032001F89809012010BDCB6E02E000208F
:100B800018601B1D902040589842F8D80020F3E7C9
:100B900000AC0040FCD300402DE9F041054614466E
:100BA0001E46D1F804C0BCF1000F0AD1D1F810C024
:100BB000D1F808804CEA080CB1F800804CEA884370
:100BC0000BE0D1F810C04CF0804CD1F808804CEA12
:100BD000080CD1F800804CEA080391F82080D1F885
:100BE0001CC04CEA086CD1F818804CEA080CD1F80B
:100BF00014804CEA080CD1F80C804CEA0807D5F8B0
:100C000068C00CFB06FCD5F8848008EB8C021360EE
:100C1000121D1760121D002019E000F1030C14F8DA
:100C20000CC04FEA0C6800F1020C14F80CC048EA42
:100C30000C4800F1010C14F80CC048EA0C2C14F814
:100C400000804CEA080CC2F800C0121D001DDFF83D
:100C50001880D1F80CC008EB1C4C9CF800C08445EF
:100C6000DBD8BDE8F081000010E100082DE9F04379
:100C70009DB004460E464FF00008306800B100BF3A
:100C800000BF94F85C00012803D102201DB0BDE82C
:100C9000F083012084F85C0000BF002019901A90B6
:100CA00046492068884202D14548019001E0002071
:100CB0000190019850B9206E40F02000206600BFDE
:100CC000002084F85C0000BF0120DFE7019808F0F5
:100CD000D5FF0746206808F0D1FF002861D1002F1A
:100CE0005FD136492068884203D035492068884260
:100CF00001D1344800E034480546306858B3A8684C
:100D000020F4404071680843A8602C49206888425C
:100D100003D02B492068884201D12A4800E02A48A4
:100D20002849884209D1254808F099FF814624487E
:100D300008F095FF49EA000002E0244808F08FFF20
:100D400070BBB16830680843A96840F61F729143D0
:100D50000843A8602BE0A86820F44040A860174929
:100D60002068884203D016492068884201D115487E
:100D700000E015481349884209D1104808F06FFF78
:100D800081460F4808F06BFF49EA000002E00F4877
:100D900008F065FF20B9A86840F61F718843A86075
:100DA00005E0206E40F0200020664FF0010800BFF3
:100DB000002084F85C0000BF404667E70020024046
:100DC00000210240002302400063025800600258E4
:100DD0002DE9F84F04460D464FF0000A0020009020
:100DE00094F84400012800D105E0FE4920688842BB
:100DF00000D100E000BFFC49E868884200D00EE066
:100E0000FA492068884200D100BFF9492068884229
:100E100000D100BFF3492068884200D100BF00BF65
:100E200094F85C00012802D10220BDE8F88F01206F
:100E300084F85C0000BF206808F01BFF002872D116
:100E4000E8492068884215D02068C1692868C0F345
:100E5000130018B92868C0F3846004E0286890FA89
:100E6000A0F0B0FA80F000F01F0201209040014392
:100E70002068C1612168D5E9002001F1300CC0F380
:100E8000012B0CEB8B03D3F800C000F01F0E4FF0CA
:100E90001F0B0BFA0EFB2CEA0B0C00F01F0BC2F31E
:100EA000846E0EFA0BFE4CEA0E0CC3F800C000BFB5
:100EB000206808F0DEFE8146206808F0C6FE07467E
:100EC000B9F1000F7ED1002FFCD1AA6829682068F3
:100ED00008F0D9FEC3492068884208D168692168B2
:100EE000C968C1F3C101490000FA01F825E0C14811
:100EF000006800F07040B0F1805F07D16869216838
:100F0000C968C1F382014900884015E02068C068C3
:100F100000F0100040B968692168C968C1F3820116
:100F20004900884008E0F2E268692168C96801F078
:100F300010018908490088408046286904287CD02F
:100F400021684346D5F810C02A6801F1600B0BEB0D
:100F50008C00DFF890B259450AD1D0F800B002F009
:100F6000F84E4EF0004E4EEA030EC0F800E00BE0E3
:100F7000D0F800B00BF0004B02F0F84E4EEA030E32
:100F80004BEA0E0BC0F800B000BF964920688842BB
:100F900031D12068EA692969924B98420CD100F15D
:100FA000600C0CEB8103D3F800C02CF0807C4CEA81
:100FB000020CC3F800C000BF00BF206895F82020D5
:100FC000296900E0F5E0012A01D1520600E0002283
:100FD0001346844A90420CD100F1600C0CEB810264
:100FE000D2F800C02CF0007C4CEA030CC2F800C020
:100FF00000BF00BF21E1206895F821202969012A5E
:1010000001D1D20700E000221346764A90420CD06C
:1010100000F1600C0CEB8102D2F800C02CF0004C07
:101020004CEA030CC2F800C000BF00BF20682B7E52
:101030002969012B02D1DB0201E00DE000231A46F1
:10104000036923F4F04301F01F0C02FA0CFC43EA9D
:101050000C03036100BFF0E062492068884271D14F
:101060000021206808F0E8FDC0F3130030B900212A
:10107000206808F0E1FDC0F3846007E000212068EB
:1010800008F0DAFD90FAA0F0B0FA80F02968C1F318
:10109000130119B92968C1F3846104E0296891FA40
:1010A000A1F1B1FA81F1884204D1002211462068F1
:1010B00008F004FE0121206808F0BEFDC0F3130013
:1010C00030B90121206808F0B7FDC0F3846007E063
:1010D0000121206808F0B0FD90FAA0F0B0FA80F08D
:1010E0002968C1F3130119B92968C1F3846104E0C7
:1010F000296891FAA1F1B1FA81F1884204D1002264
:101100000121206808F0DAFD0221206808F094FD32
:10111000C0F3130030B90221206808F08DFDC0F340
:10112000846007E00221206808F086FD90FAA0F0B4
:10113000B0FA80F02968C1F3130121B92968C1F31D
:10114000846105E036E0296891FAA1F1B1FA81F1F4
:10115000884204D100220221206808F0AFFD03215B
:10116000206808F069FDC0F3130030B9032120683E
:1011700008F062FDC0F3846007E00321206808F0F6
:101180005BFD90FAA0F0B0FA80F02968C1F313017A
:1011900019B92968C1F3846104E0296891FAA1F1C1
:1011A000B1FA81F1884248D100220321206808F079
:1011B00085FD42E02068006E00F0F8402978B0EB31
:1011C000816F05D12068006E20F00040216808661C
:1011D0002068406E00F0F8402978B0EB816F10D1A4
:1011E000206809E0006002580000FF47002002402C
:1011F000002102400010005C406E20F00040216899
:1012000048662068806E00F0F8402978B0EB816F66
:1012100005D12068806E20F0004021688866206833
:10122000C06E00F0F8402978B0EB816F05D12068DE
:10123000C06E20F000402168C866206808F00AFDF2
:1012400000286FD12068EA682968B74B984212D10C
:10125000D0F8B030C1F3130C23EA0C0302F0180BE2
:10126000DFF8C8C22CFA0BFC0CEA010C43EA0C03B1
:10127000C0F8B03011E0D0F8C030C1F3130C23EA4D
:101280000C0302F0180BDFF8A4C22CFA0BFC0CEADA
:10129000010C43EA0C03C0F8C03000BFA449E86861
:1012A00088427DD12B68C3F313031BB92B68C3F3AA
:1012B000846304E02B6893FAA3F3B3FA83F35B1C13
:1012C00003F01F03092B3FD82B68C3F313031BB98B
:1012D0002B68C3F3846304E02B6893FAA3F3B3FA97
:1012E00083F35B1C03F01F034FF0010C0CFA03FCAB
:1012F0002B68C3F313031BB92B68C3F3846304E0A7
:101300002B6893FAA3F3B3FA83F35B1C03F01F0378
:101310004CEA836C2B68C3F3130323B92B68C3F324
:10132000846305E0B1E02B6893FAA3F3B3FA83F387
:101330005B1C03F01F0303EB43034FF0000B4BEA6E
:1013400003534CEA030340E02B68C3F313031BB9B8
:101350002B68C3F3846304E02B6893FAA3F3B3FA16
:1013600083F35B1C03F01F034FF0010C0CFA03FC2A
:101370002B68C3F313031BB92B68C3F3846304E026
:101380002B6893FAA3F3B3FA83F35B1C03F01F03F8
:101390004CEA836C2B68C3F313032BB92B6800E072
:1013A00018E0C3F3846304E02B6893FAA3F3B3FA61
:1013B00083F35B1C03F01F030A3B03EB43034FF073
:1013C000007B4BEA03534CEA03031946AA682068E2
:1013D00008F059FC286800F00040002855D0554A14
:1013E0002168914203D0544A2168914201D1534966
:1013F00000E053490846816801F0E07600BF4D499E
:101400002068884203D04C492068884201D14B486B
:1014100000E04B484949884209D1464808F01AFC87
:101420008346454808F016FC4BEA000002E03E48BF
:1014300008F010FCF0BB43492868884226D106F426
:10144000000018BB38492068884266D1394B2268B1
:101450009A4203D0384B22689A4201D1374A00E0C1
:10146000374A104646F4000108F021FC364800686F
:101470003649B0FBF1F0401C4000009002E00098BB
:10148000401E009000980028F9D146E030492868B5
:10149000884219D106F08070B0B92349206888428B
:1014A0003BD1244B22689A4203D0234B22689A42B4
:1014B00003D100E024E0214A00E0214A104646F032
:1014C000807108F0F4FB28E022492868884224D182
:1014D00006F4800008BB1449206888421DD1154BD2
:1014E00022689A4203D0144B22689A4201D1134ACF
:1014F00000E0134A104646F4800108F0D8FB0CE0E7
:10150000206E40F0200020664FF0010A05E0206EBA
:1015100040F0200020664FF0010A00BF002084F850
:101520005C0000BF504680E400600258FFFF0F00DF
:101530000000FF470020024000210240002302403B
:1015400000630258000052C724000024400D03002D
:10155000000021C3000084CB2DE9F84F04464FF072
:1015600000090020009014B90120BDE8F88F20691F
:1015700020B12020005D012800D100BF206E30B9CD
:10158000204600F089F90020606684F85C0020683D
:101590008168C1F3407131B120688168B24A11405D
:1015A000816000BF00BF206808F05EFBA8B920681A
:1015B0008168AE4A114041F08051816000BFAC4863
:1015C0000068AC49B0FBF1F0401C009002E00098CC
:1015D000401E009000980028F9D1206808F044FBD4
:1015E00048B9206E40F010002066606E40F00100A7
:1015F00060664FF00109206808F03BFB0646206E4C
:1016000000F0100000287DD1002EFCD1206E20F4C7
:10161000807040F002002066206808F01BFB78BB59
:1016200095492068884203D094492068884201D1B6
:10163000934800E093489249884209D18E4808F0C7
:1016400009FB82468D4808F005FB4AEA000002E0EB
:101650008D4808F0FFFA98B9874B22689A4203D068
:10166000864B22689A4201D1854A00E0854A10469D
:101670006168826822F47C120A43826000BF00BF66
:1016800081492068884223D1607EE16B41EA403085
:10169000E1680843A168082901D100210FE0A16891
:1016A0000C2901D104210AE0A1681C2901D10821DB
:1016B00005E0A168182901D11C2100E0002101F0FA
:1016C0000C0140EA41012020005D41EA004509E0AB
:1016D000607EE16B41EA4030A16808432021095D4A
:1016E00040EA01452020005D012803D1A08C401E66
:1016F00045EA4045A06A38B1208D00F47870E16A6F
:10170000084300E0A7E005435F49206888420FD105
:101710002068C0685D49084028432168C860206887
:10172000006920F04060616B08432168086106E0B1
:101730002068C0685649084028432168C86020686E
:1017400008F097FA8046206808F07FFA0746B8F15B
:10175000000F66D1002F64D14B492068884206D122
:10176000207E810394F8380041EA400503E0207EA2
:10177000216B41EA80352068C06844F20301884348
:1017800028432168C86094F84400012834D13E49B8
:101790002068884200D100E000BFA06A08B1E06A7A
:1017A00000B900BF38492068884210D1A06C40F0D1
:1017B0000101E06C0843216D0843616D0843216815
:1017C0000969344A11400843216808611AE0B4F8F5
:1017D0004800401E012141EA0041E06C0843216DB0
:1017E0000843616D0843216809692A4A521E114065
:1017F00008432168086105E02068006920F00100C5
:10180000216808612068006920F07040216C08435D
:10181000216808611C492068884202D02046FEF7F2
:1018200059FE2069012809D12068006B20F00F00C3
:10183000E169491E08432168086305E02068006BE0
:1018400020F00F0021680863206E20F0020040F0B5
:101850000100206605E0206E40F0100020664FF089
:101860000109484681E60000C0FFFF5FC0FFFF7F1F
:1018700024000024400D030000200240002102400B
:101880000023024000630258006002580740F0FF46
:1018900003C0F0FF1FF800FC10B5B6B004461421D9
:1018A00030A8FEF7DBFDB82102A8FEF7D7FD3F49BF
:1018B0002068884277D14FF400210020CDE9021042
:1018C00002200490102105910221069107910891B0
:1018D000C021099100210A910B9100202A9002A8B1
:1018E00005F046F808B1FFF713F800BF304800686C
:1018F00040F020002E4908600846006800F02000F3
:10190000019000BF00BF00BF29480830006840F0C8
:1019100001002749083108600846006800F001000E
:10192000019000BF00BF00BF0846006840F00400FF
:1019300008600846006800F00400019000BF00BF86
:1019400020203090032031900020329030A9194897
:1019500002F024FC102030900320319000203290BF
:1019600030A9154802F01AFC1448154908600920EE
:101970004860002112488160C1604FF480610161BC
:1019800049004161890081614911C1610021016201
:10199000416201F0CDF908B1FEF7BAFF00BF084877
:1019A000A065846300BF36B010BD00000020024077
:1019B000D8440258000002580008025810000240A3
:1019C000F40400242DE9F041044602F0E5FC8046D1
:1019D00014B90120BDE8F08194F83500022808D040
:1019E0008020606500BF002084F8340000BF012023
:1019F000F0E7FE492068884249D0FC491831206848
:101A0000884244D0F9493031206888423FD0F749B4
:101A10004831206888423AD0F449603120688842D1
:101A200035D0F24978312068884230D0EF49903182
:101A3000206888422BD0ED49A8312068884226D002
:101A4000EB492068884222D0E94918312068884251
:101A50001DD0E74930312068884218D0E449483128
:101A60002068884213D0E2496031206888420ED055
:101A7000DF4978312068884209D0DD4990312068FB
:101A8000884204D0DA49A8312068884201D1012077
:101A900000E0002068B12068006820F01E00216886
:101AA00008602068406920F080002168486125684E
:101AB00006E02068006820F00E00216808602568B4
:101AC000CA492068884270D0C849183120688842C5
:101AD0006BD0C64930312068884266D0C34948314E
:101AE0002068884261D0C1496031206888425CD05A
:101AF000BE4978312068884257D0BC49903120686F
:101B0000884252D0B949A831206888424DD0B8499E
:101B10002068884249D0B64918312068884244D0AC
:101B2000B3493031206888423FD0B14948312068FC
:101B300088423AD0AE4960312068884235D0AC49FD
:101B400078312068884230D0A94990312068884295
:101B50002BD0A749A8312068884226D0A549206803
:101B6000884222D0A3491431206888421DD0A1495F
:101B700028312068884218D09E493C31206888422C
:101B800013D09C495031206888420ED09949643165
:101B90002068884209D0974978312068884204D06B
:101BA00094498C312068884201D1012000E0002056
:101BB00028B1206E006820F48070216E08608B4987
:101BC0002068884249D0894918312068884244D029
:101BD00086493031206888423FD0844948312068A6
:101BE00088423AD0814960312068884235D07F49A7
:101BF00078312068884230D07C4990312068884212
:101C00002BD07A49A8312068884226D078492068AC
:101C1000884222D076491831206888421DD0744904
:101C200030312068884218D0714948312068884294
:101C300013D06F496031206888420ED06C497831EA
:101C40002068884209D06A4990312068884204D0CF
:101C50006749A8312068884206D12068006820F0D2
:101C600001002168086005E02068006820F001009C
:101C70002168086011E002F08FFBA0EB0800052846
:101C80000BD920206065032084F8350000BF0020B8
:101C900084F8340000BF01209CE6286800F00100B1
:101CA0000028E8D151492068884249D04F4918316D
:101CB0002068884244D04D493031206888423FD066
:101CC0004A494831206888423AD048496031206802
:101CD000884235D0454978312068884230D0434920
:101CE0009031206888422BD04049A8312068884232
:101CF00026D03F492068884222D03D4918312068CB
:101D000088421DD03A4930312068884218D038497D
:101D100048312068884213D03549603120688842B4
:101D20000ED0334978312068884209D0304990314B
:101D30002068884204D02E49A8312068884201D109
:101D4000012000E0002040B1A66D94F85C0000F096
:101D50001F013F208840B06007E0A76D94F85C0049
:101D600000F01F01012088407860204920688842E7
:101D700076D01E4918312068884271D01B49303115
:101D8000206888426CD0194948312068884267D061
:101D9000164960312068884262D014497831206841
:101DA00088425DD0114990312068884258D00F494F
:101DB000A8312068884253D00D49206888424FD00E
:101DC0000B491831206888424AD0094930312068CF
:101DD000884245D0064948312068884240D00449AD
:101DE0006031206888423BD0014905E01000024084
:101DF00010040240085402587831206888422FD0DD
:101E00002549206888422BD0234918312068884210
:101E100026D022492068884222D0204914312068E7
:101E200088421DD01D4928312068884218D01B499E
:101E30003C312068884213D01849503120688842CC
:101E40000ED0164964312068884209D01349783190
:101E50002068884204D011498C312068884201D121
:101E6000012000E0002068B1D4E919104860E06E5C
:101E700040B1E06E006820F48070E16E0860D4E943
:101E80001C104860012084F8350000BF002084F851
:101E9000340000BF00BF9DE5A00402400854025872
:101EA00070B504460CB9012070BD94F835000228C5
:101EB00003D0802060650120F6E7DC492068884275
:101EC00049D0DA4918312068884244D0D7493031A6
:101ED000206888423FD0D5494831206888423AD0AE
:101EE000D24960312068884235D0D04978312068A5
:101EF000884230D0CD499031206888422BD0CB49E0
:101F0000A8312068884226D0C9492068884222D05A
:101F1000C7491831206888421DD0C5493031206832
:101F2000884218D0C24948312068884213D0C0493D
:101F30006031206888420ED0BD49783120688842DF
:101F400009D0BB4990312068884204D0B849A831F3
:101F50002068884201D1012000E00020F0B3042075
:101F600084F83500B149206888424BD0AF49183118
:101F70002068884246D0AD4930312068884241D03F
:101F8000AA494831206888423CD0A849603120687D
:101F9000884237D0A54978312068884232D0A34999
:101FA0009031206888422DD0A049A831206888420D
:101FB00028D09F492068884224D09D491831206844
:101FC00088421FD09A493031206888421AD09849F7
:101FD00048312068884215D0954900E020E0603102
:101FE000206888420ED0924978312068884209D012
:101FF0008F4990312068884204D08D49A8312068EB
:10200000884206D12068006820F00100216808603D
:1020100009E12068006820F001002168086002E101
:102020002068006820F00E00216808607F49206861
:10203000884249D07D4918312068884244D07B4984
:102040003031206888423FD0784948312068884242
:102050003AD0764960312068884235D0734978316A
:102060002068884230D071499031206888422BD056
:102070006E49A8312068884226D06D492068884280
:1020800022D06B491831206888421DD06849303110
:102090002068884218D0664948312068884213D0A9
:1020A00063496031206888420ED0614978312068E8
:1020B000884209D05E4990312068884204D05C494A
:1020C000A8312068884206D12068006820F001000D
:1020D0002168086005E02068006820F001002168A0
:1020E000086052492068884270D0504918312068F1
:1020F00088426BD04D4930312068884266D04B49C8
:1021000048312068884261D048496031206888425F
:102110005CD0464978312068884257D04349903195
:102120002068884252D04149A831206888424DD069
:102130003F492068884249D03D491831206888428B
:1021400044D03B493031206888423FD0384948313B
:10215000206888423AD0364960312068884235D0BC
:10216000334978312068884230D031499031206835
:1021700088422BD02E49A8312068884226D02D498C
:102180002068884222D02B491431206888421DD013
:10219000284928312068884218D026493C312068D7
:1021A000884213D023495031206888420ED02149FB
:1021B00064312068884209D01E49783120688842FD
:1021C00004D01C498C312068884201D1012000E0F4
:1021D0000020D8B1206E006820F48070216E086065
:1021E000A56D94F85C0000F01F0101208840686034
:1021F000D4E919104860E06E40B1E06E006820F448
:102200008070E16E0860D4E91C104860012084F8F9
:10221000350000BF002084F8340000BF206D10B1ED
:102220002046216D884700203EE600001000024055
:1022300010040240085402582DE9F84F04460020CB
:102240000090FE4800684FF41651B0FBF1FAA66DFD
:10225000D4F858803768D8F80090F9492068884247
:1022600049D0F74918312068884244D0F4493031C8
:10227000206888423FD0F2494831206888423AD0ED
:10228000EF4960312068884235D0ED4978312068C7
:10229000884230D0EA499031206888422BD0E84902
:1022A000A8312068884226D0E6492068884222D09A
:1022B000E4491831206888421DD0E2493031206855
:1022C000884218D0DF4948312068884213D0DD4960
:1022D0006031206888420ED0DA497831206888421F
:1022E00009D0D84990312068884204D0D549A83116
:1022F0002068884201D1012000E0002000287DD024
:1023000094F85C0000F01F01082088403840002845
:1023100068D0CB492068884249D0C9491831206823
:10232000884244D0C6493031206888423FD0C449F1
:102330004831206888423AD0C149603120688842DB
:1023400035D0BF4978312068884230D0BC499031BF
:10235000206888422BD0BA49A8312068884226D00C
:10236000B8492068884222D0B6491831206888428E
:102370001DD0B44930312068884218D0B149483165
:102380002068884213D0AF496031206888420ED05F
:10239000AC4978312068884209D0AA499031206838
:1023A000884204D0A749A8312068884204D1206817
:1023B000006800F0040003E02068006800F00800F6
:1023C00080B12068006820F004002168086094F85B
:1023D0005C0000F01F0108208840B060606D40F094
:1023E0000100606594F85C0000F01F010120884046
:1023F0003840E8B392492068884200E0B7E24BD009
:102400008F4918312068884246D08D493031206884
:10241000884241D08A494831206888423CD0884966
:1024200060312068884237D08549783120688842F9
:1024300032D083499031206888422DD08049A8311C
:102440002068884228D07F492068884224D07D496E
:102450001831206888421FD07A493031206888427C
:102460001AD0784948312068884215D0754900E073
:1024700026E06031206888420ED0724978312068A9
:10248000884209D06F4990312068884204D06D4954
:10249000A8312068884204D12068406900F080009B
:1024A00002E020680068002050B194F85C0000F061
:1024B0001F0101208840B060606D40F0020060653F
:1024C00094F85C0000F01F01042088403840E8B315
:1024D0005B49206888424BD05949183120688842AE
:1024E00046D0574930312068884241D0544948315C
:1024F000206888423CD0524960312068884237D0F9
:102500004F4978312068884232D04D499031206857
:1025100088422DD04A49A8312068884228D04949AC
:102520002068884224D047491831206888421FD04B
:1025300044493031206888421AD0424948312068E5
:10254000884215D03F496031206800E024E088428D
:102550000ED03C4978312068884209D03949903101
:102560002068884204D03749A8312068884204D1C5
:102570002068006800F0020002E020680068002087
:1025800050B194F85C0000F01F0104208840B06056
:10259000606D40F00400606594F85C0000F01F017D
:1025A000102088403840E8B325492068884251D03F
:1025B00023491831206888424CD0214930312068A5
:1025C000884247D01E4948312068884242D01C4981
:1025D0006031206888423DD01949783120688842AE
:1025E00038D0174990312068884233D01449A83137
:1025F000206888422ED01349206888422AD0114989
:1026000018312068884225D00E4930312068884230
:1026100020D00C494831206888421BD009496031DC
:10262000206800E04DE0884214D0064978312068E7
:1026300088420FD003499031206805E0240000242F
:102640001000024010040240884203D0FE49206876
:10265000884204D12068006800F0080003E0206888
:10266000006800F0040060B394F85C0000F01F0103
:1026700010208840B0602068006800F4802080B19D
:102680002068006800F4002028B9206CC8B12046FA
:10269000216C884715E0A06C98B12046A16C884752
:1026A0000FE02068006800F4807028B92068006896
:1026B00020F0080021680860206C10B12046216CD1
:1026C000884794F85C0000F01F01202088403840C3
:1026D00000287DD0DD492068884249D0DB49183187
:1026E0002068884244D0D9493031206888423FD0A0
:1026F000D6494831206888423AD0D44960312068B0
:10270000884235D0D14978312068884230D0CF49CD
:102710009031206888422BD0CC49A831206888426B
:1027200026D0C949A8392068884221D0C6499039A5
:10273000206888421CD0C44978392068884217D064
:10274000C14960392068884212D0BF4948392068A1
:1027500088420DD0BC4930392068884208D0BA4937
:1027600018392068884203D0B7492068884204D1CC
:102770002068006800F0100003E02068006800F0A6
:10278000020028B394F85C0000F01F01202088406C
:10279000B06094F8350004282DD12068006820F03E
:1027A0001600216808602068406920F080002168D8
:1027B0004861206C08B9A06C28B12068006820F03E
:1027C00008002168086094F85C0000F01F0100E038
:1027D0003FE03F208840B060012084F8350000BF12
:1027E000002084F8340000BF206D10B12046216D18
:1027F0008847BDE8F88F2068006800F4802080B129
:102800002068006800F4002028B9606C08B32046F6
:10281000616C88471DE0E06BD8B12046E16B8847CA
:1028200017E02068006800F4807068B920680068CC
:1028300020F0100021680860012084F8350000BFF6
:10284000002084F8340000BFE06B10B12046E16B3B
:102850008847606D00287AD0606D00F00100E8B311
:10286000042084F835007949206888424BD07749A4
:1028700018312068884246D0744930312068884237
:1028800041D072494831206888423CD06F4960315C
:102890002068884237D06D4978312068884232D02C
:1028A0006A499031206888422DD06849A831206853
:1028B000884228D06449A8392068884223D06249D8
:1028C0009039206888421ED05F4978392068884254
:1028D00019D05D4960392068884200E040E012D09C
:1028E00059494839206888420DD057493039206805
:1028F000884208D0544918392068884203D0524988
:102900002068884206D12068006820F00100216814
:10291000086005E02068006820F001002168086078
:1029200000BF0098401C0090504500D905E0206889
:10293000006800F001000028F3D100BF20680068A3
:1029400000F0010020B1032084F8350003E00DE021
:10295000012084F8350000BF002084F8340000BF57
:10296000E06C002802D02046E16C8847D9E1384964
:102970002068884222D036491431206888421DD010
:10298000334928312068884218D031493C312068C9
:10299000884213D02E495031206888420ED02C49ED
:1029A00064312068884209D02949783120688842FA
:1029B00004D027498C312068884201D1012000E0F1
:1029C00000200028D2D02068056894F85C0000F050
:1029D0001F010420884000EA0900D8B305F0040074
:1029E000C0B394F85C0000F01F0104208840C8F8D0
:1029F000040005F4004080B105F4803030B9A06CCB
:102A00000028B3D02046A16C88478AE1206C0028BA
:102A1000ACD02046216C884783E105F02000E8BB5C
:102A20000A492068884253D00849183120688842F2
:102A30004ED0064930312068884249D00349483198
:102A40002068884244D006E0B804024010000240EA
:102A5000085402584FE0B44960312068884237D0AA
:102A6000B14978312068884232D0AF49903120682E
:102A700088422DD0AC49A8312068884228D0AB4983
:102A80002068884224D0A9491831206888421FD084
:102A9000A6493031206888421AD000E025E0A349D9
:102AA00048312068884213D0A049603120688842AC
:102AB0000ED09E4978312068884209D09B499031D8
:102AC0002068884204D09949A8312068884206D1FC
:102AD0002068006820F008002168086005E0206890
:102AE000006820F0040021680860206C10B32046C4
:102AF000216C884715E194F85C0000F01F0102206A
:102B0000884000EA0900E8B305F00200D0B394F869
:102B10005C0000F01F0102208840C8F8040005F4A2
:102B2000004070B105F4803028B9606C10B12046C7
:102B3000616C8847F5E0E06BF0B32046E16B8847B5
:102B4000EFE005F02000C0BB7749206888424ED0F6
:102B5000754918312068884249D07349303120685E
:102B6000884244D070494831206888423FD06E493D
:102B70006031206888423AD06B49783120688842B9
:102B800035D000E04EE068499031206888422ED070
:102B90006549A8312068884229D064492068884264
:102BA00025D0624918312068884220D05F493031F1
:102BB000206888421BD001E06EE02DE05B4948317F
:102BC0002068884213D059496031206888420ED06D
:102BD000564978312068884209D05449903120689C
:102BE000884204D05149A8312068884206D1206823
:102BF000006820F014002168086005E02068006883
:102C000020F00A0021680860012084F8350000BF28
:102C1000002084F8340000BFE06BE8B32046E16B8D
:102C200088477EE094F85C0000F01F01082088408F
:102C300000EA090080B305F0080068B33A4920684B
:102C400088424BD0384918312068884246D03649EE
:102C500030312068884241D0334948312068884269
:102C60003CD0314960312068884237D02E497831D4
:102C70002068884232D02C499031206888422DD07B
:102C80002949A8312068884228D0284920688842EC
:102C900024D02649183100E043E0206888421DD046
:102CA000224930312068884218D0204948312068B4
:102CB000884213D01D496031206888420ED01B49DC
:102CC00078312068884209D01849903120688842BC
:102CD00004D01649A8312068884206D120680068CF
:102CE00020F01C002168086005E02068006820F0E2
:102CF0000E002168086094F85C0000F01F010120BC
:102D00008840C8F804000120606584F8350000BFE1
:102D1000002084F8340000BFE06C10B12046E16C64
:102D2000884700BF65E50000100002401004024023
:102D30002DE9F041044601F02FFB804614B9012033
:102D4000BDE8F081FE492068884249D0FC4918312D
:102D50002068884244D0FA493031206888423FD008
:102D6000F7494831206888423AD0F54960312068F7
:102D7000884235D0F24978312068884230D0F04915
:102D80009031206888422BD0ED49A83120688842D4
:102D900026D0EC492068884222D0EA4918312068C0
:102DA00088421DD0E74930312068884218D0E54973
:102DB00048312068884213D0E24960312068884257
:102DC0000ED0E04978312068884209D0DD49903141
:102DD0002068884204D0DB49A8312068884201D1AC
:102DE000012000E00020002873D0606A00B100BF1D
:102DF000022084F8350000BF002084F8340000BFB2
:102E0000CF492068884249D0CD491831206888428E
:102E100044D0CB493031206888423FD0C84948313E
:102E2000206888423AD0C64960312068884235D04F
:102E3000C34978312068884230D0C1499031206838
:102E400088422BD0BE49A8312068884226D0BD498F
:102E50002068884222D0BB491831206888421DD0A2
:102E6000B84930312068884218D0B64948312068C6
:102E7000884213D0B3496031206888420ED0B149EE
:102E800078312068884209D0AE4990312068884264
:102E900004D0AC49A8312068884206D12068006877
:102EA00020F001002168086005E02068006820F03B
:102EB0000100216808600DE001F06EFAA0EB080047
:102EC000052807D920206065032084F835000120FB
:102ED00036E769E02068006800F001000028EBD1C7
:102EE0002068056898480540D4E902010843216933
:102EF000084361690843A1690843E1690843216AFD
:102F000008430543606A042803D1D4E90B01084350
:102F100005436068292802D360682E2817D96068A5
:102F20003F2802D36068422811D96068472802D33D
:102F3000606848280BD960684F2802D3606852281F
:102F400005D96068742804D36068772801D8012007
:102F500000E0002008B145F4801520680560206875
:102F6000456925F00705606A0543606A04280DD1AC
:102F7000A06A0543E06A48B12046FDF771FC28B11C
:102F800040206065012084F83500D9E6206845615D
:102F90002046FDF741FB064694F85C0000F01F0157
:102FA0003F208840B0609EE068492068884222D077
:102FB00066491431206888421DD064492831206850
:102FC000884218D061493C312068884213D05F495B
:102FD0005031206888420ED05C49643120688842B4
:102FE00009D05A4978312068884204D057498C3139
:102FF0002068884201D1012000E00020E0B353495D
:103000002068884222D051491431206888421DD05E
:103010004E4928312068884218D04C493C312068FC
:10302000884213D049495031206888420ED0474920
:1030300064312068884209D0444978312068884248
:1030400004D042498C312068884201D1012000E03F
:10305000002000B100BF022084F8350000BF00202E
:1030600084F8340000BF2068056839480540A0682E
:10307000402802D1102106E02EE0A068802801D16E
:10308000C10100E00021E06841EAD001206941EA85
:10309000D001606941EAD001A06941EAD001E0694C
:1030A00041EAD001206A41EA10100543206805601A
:1030B00026492068401A1421B0FBF1F08000E06539
:1030C0002046FDF7A9FA074694F85C0000F01F01BE
:1030D00001208840786006E040206065032084F885
:1030E000350001202CE61649206888427AD0144920
:1030F00018312068884275D01149303120688842E3
:1031000070D00F494831206888426BD00C4960313B
:103110002068884266D00A4978312068884261D0A8
:1031200007499031206888425CD00549A831206861
:10313000884257D003492068884253D0014909E0AA
:1031400010000240100402403F8010FE0854025854
:103150000F00FEFF18312068884243D037492068AD
:1031600088423FD035491831206888423AD03349E7
:1031700030312068884235D0304948312068884253
:1031800030D02E496031206888422BD02B497831CD
:103190002068884226D02A492068884222D02849BF
:1031A0001431206888421DD0254928312068884282
:1031B00018D023493C312068884213D0204950312F
:1031C000206888420ED01E4964312068884209D0A8
:1031D0001B4978312068884204D019498C31206815
:1031E000884201D1012000E0002000B32046FDF715
:1031F00089FAA068802801D1002060602079216EC2
:103200000860D4E919104860606860B160680828F7
:1032100009D82046FDF7D8FA0020E16E0860D4E90D
:103220001C10486003E00020E06620676067002013
:103230006065012084F83500002081E540040240EB
:103240000854025870B5044601F0A6F80646254613
:10325000681C10B104480078054400BF01F09CF8D8
:10326000801BA842FAD370BD2000002430B503466D
:1032700093F89840012C01D0022C3ED11868806D43
:10328000084030B91868C06D40F001001D68E8655D
:103290000EE01868806D0840884206D11868C06D3D
:1032A00040F002001D68E86502E003201D68E86543
:1032B00001F4007030B11868D0F8E00010431D68C8
:1032C000C5F8E00001F4806030B11868D0F8E4007F
:1032D00010431D68C5F8E40000BF1868406D0B4D31
:1032E0000D4028431D6868650948006840EA9170F0
:1032F000074D286000BF002030BDD3F89C0040F08F
:103300000200C3F89C000120F6E70000FFFFCF3F5A
:1033100014A800402DE9F04104460E461746706897
:1033200000B900E000BF94F89800022832D120686C
:10333000D0F8C00000F07C5040B9D4F89C0040F0B8
:103340002000C4F89C000120BDE8F0812068D0F87E
:10335000C40000F4001038B1D4F89C0040F40070B0
:10336000C4F89C000120EFE72068D0F8C400C0F347
:1033700004452B463A4631462046FDF70DFC012018
:10338000A8402168C1F8D0000120A840C4F89400EA
:103390000020D9E7D4F89C0040F00800C4F89C0055
:1033A0000120D1E7704710B5034601B900E000BF26
:1033B00093F89800012824D151B91868D0F8F0008A
:1033C00020F07C5040EA02601C68C4F8F00016E06F
:1033D00001290AD11868D0F8A00020F0FE4040EA88
:1033E00002601C68C4F8A00009E01868D0F8B000BA
:1033F00020F0FE4040EA02601C68C4F8B0000020E3
:1034000010BDD3F89C0040F00400C3F89C000120DC
:10341000F6E7F0B5024692F89860012E01D0022E30
:1034200043D1C868072800D100BF086818BBC86826
:10343000072800D000BFC86807280BD1088A4FF0C2
:10344000605747EA0040CF6940EA07208F6940EAA9
:1034500007040AE0087A80070F7B40EAC7600F8AFA
:1034600040EA07404F6940EA0704D76E486807EB17
:1034700080031C6017E0C868072800D000BF0F7BDE
:10348000086940EA4774C868072801D18D6903E0DC
:103490000F7A486940EA8775176F486807EBC003E1
:1034A0001C601B1D1D600020F0BDD2F89C0040F088
:1034B0000200C2F89C000120F6E770477047000048
:1034C0002DE9F04304460D469C46002394F898806D
:1034D000B8F1020F74D1402D38D12068D0F8A00087
:1034E00000F4FE0040B9D4F89C0040F02000C4F87D
:1034F0009C000120BDE8F0832068D0F8A40000F013
:103500007F0038B9D4F89C0040F48070C4F89C0067
:103510000120EFE72068D0F8A400C0F3006040B1BC
:103520002068D0F8A0004FF00049B9EBD07F00D15F
:1035300001232068D0F8A400C0F305200344606C88
:103540005843D4F8749009EB80014BE0412D38D1F9
:103550002068D0F8B00000F4FE0038B9D4F89C0020
:1035600040F02000C4F89C000120C3E72068D0F898
:10357000B40000F07F0038B9D4F89C0040F48070AB
:10358000C4F89C000120B5E72068D0F8B400C0F36F
:10359000006040B12068D0F8B0004FF00049B9EBAE
:1035A000D07F00D101232068D0F8B400C0F30520FB
:1035B0000344E06C5843D4F8789009EB800111E0A3
:1035C0006EE0206DA84207D8D4F89C0040F020009F
:1035D000C4F89C0001208DE7606D6843D4F87C90AE
:1035E00009EB8001086800F080405060506820B905
:1035F0000868C0F38A40106003E0086820F060406B
:103600001060086800F000509060086800F000400A
:103610001061091D088880B2D061086800F470202C
:10362000D060086800F480105061086800F4001051
:1036300090610868C0F3066010620868C00F5062AD
:10364000091D0F46002603E0B85D0CF80600761C45
:10365000DFF85C90D06809EB10400078B042F3D8F6
:10366000402D03D12068C0F8A83017E0412D03D1C8
:103670002068C0F8B83011E0202D06D20120A84003
:10368000D4F80090C9F8980008E005F01F0901205F
:1036900000FA09F0D4F80090C9F89C00002029E74E
:1036A000D4F89C0040F00800C4F89C00012021E7F9
:1036B00010E10008704700002DE9F04F8DB004467E
:1036C000EF4800688707EE48001D006807EA80772A
:1036D0002068006D00F470482068406D00EA08081A
:1036E0002068006D00F00F092068406D00EA0909AC
:1036F0002068006D00F0F00A2068406D00EA0A0AB8
:103700002068006D00F0715B2068406D00EA0B0BD3
:103710002068006D00F060700C902068406D0C997E
:1037200008400C902068456D2068066DC5F30020A8
:1037300070B1C6F3002058B100BF4FF4807021680B
:1037400008650020CE49086000BF2046FFF7B2FFA1
:10375000C5F38020C8B1C6F38020B0B12068D0F88E
:10376000DC000A902068D0F8E4000A9908400A902A
:1037700000BF4FF48060216808650020C0490860E0
:1037800000BF20460A9900F04EFC67B100BFBD485B
:10379000384021680865B80FB949086000BF39464C
:1037A0002046FFF7FFFDB8F1000F0ED000BFB5486F
:1037B00008EA0000216808654FEA9870B04908607F
:1037C00000BF4146204600F030FCB9F1000F0ED09A
:1037D00000BFAC4809EA0000216808654FEA99700B
:1037E000A749086000BF4946204600F0DFFBBAF158
:1037F000000F0ED000BFA3480AEA00002168086548
:103800004FEA9A709E49086000BF5146204600F07A
:10381000E9FBC5F3C02070B1C6F3C02058B100BFAA
:103820004FF400602168086500209549086000BFDA
:10383000204600F0FBFBC5F34020C8B1C6F3402092
:10384000B0B12068D0F8D8000B902068D0F8E00024
:103850000B9908400B9000BF4FF400702168086579
:1038600000208749086000BF20460B9900F0DCFB70
:10387000C5F3C04070B1C6F3C04058B100BF4FF4AB
:1038800000202168086500207D49086000BF2046AF
:1038900000F08AFBC5F3004070B1C6F3004058B198
:1038A00000BF4FF48030216808650020744908602B
:1038B00000BF204600F0B6FBC5F3804070B1C6F3F0
:1038C000804058B100BF4FF4802021680865002077
:1038D0006B49086000BF204600F0A3FBC5F34040E1
:1038E00088B1C6F3404070B100BF4FF4003021688A
:1038F000086500206249086000BFD4F89C0040F0D1
:103900008000C4F89C000C9870B100BF5D490C9811
:103910000840216808650C98800F5949086000BF6D
:1039200020460C99FFF7CAFDBBF1000F10D000BF75
:1039300054480BEA0000216808654FEA9B70504923
:10394000086000BFD4F89C0040EA0B00C4F89C005B
:103950004D49206888427DD16068806800F003008E
:10396000002877D06068006A00F00F000990606856
:10397000406A0999084009906068006A00F03000C8
:1039800008906068406A0899084008906068006A7A
:1039900000F4C07007906068406A0799084007907B
:1039A0006068006A00F4FC4006906068406A06990E
:1039B000084006906068006A00F4F0200590606896
:1039C000406A0599084005906068406A0290606806
:1039D000006A0190099830B1099861680862204630
:1039E000099900F01BFB089830B1089861680862DB
:1039F0002046089900F014FB0298C0F38010A0B193
:103A00000198C0F3801080B16068C06B000C049016
:103A10006068C06B00F03F0003904020616808625E
:103A20002046DDE9032100F0FAFA079830B1079843
:103A3000616808622046079900F0EFFA069840B1E5
:103A4000069861680862D4F89C0006990843C4F897
:103A50009C0000E00AE0059840B1059861680862A2
:103A6000D4F89C0005990843C4F89C00D4F89C0045
:103A700010B12046FFF721FD0DB0BDE8F08F00002A
:103A800010A80040FFFFCF3F00A0004070B594B0E9
:103A900004464C22B34901A8FCF7C7FC14B9012025
:103AA00014B070BDB0492068884203D1206800F589
:103AB00080706060A068B0F5407F00D100BF206CCE
:103AC00000B100BFA06C00B100BF206D00B100BF0D
:103AD000206E00B100BFD4E91710084400B100BF48
:103AE00094F8980028B9002084F89900204600F046
:103AF0003DF92068806920F010002168886100F09D
:103B00004BFC05460EE000F047FC401B0A2809D993
:103B10009834606840F001006060032004F8980960
:103B20000120BDE72068806900F008000828EAD07D
:103B30002068806940F001002168886100F02CFC59
:103B400005460EE000F028FC401B0A2809D99834ED
:103B5000606840F001006060032004F898090120CB
:103B60009EE72068806900F001000028EAD0206804
:103B7000806940F0020021688861207C012806D11C
:103B80002068806920F040002168886105E0206895
:103B9000806940F0400021688861607C012806D17E
:103BA0002068806940F480402168886105E02068D1
:103BB000806920F4804021688861A07C012806D1BA
:103BC0002068806920F480502168886105E02068C1
:103BD000806940F48050216888612068806920F401
:103BE0004070A1680843216888612068806920F0DE
:103BF000A400216888612068006920F01000216815
:103C00000861E068012806D12068806940F004005E
:103C10002168886120E0E068F0B1E068022815D0F2
:103C20002068806940F08000216888612068006910
:103C300040F0100021680861E06803280CD120687A
:103C4000806940F020002168886105E02068806973
:103C500040F0200021688861207E401E4106E06916
:103C6000401E41EA0020216A491E0843A18A491EDC
:103C700040EA01402168C861A068B0F5407F0FD1DB
:103C8000A06A401EE16A491E40EA0121206B401EE5
:103C900041EA0011A08C401E41EA00402168C86042
:103CA000206E38B12068D0F8C000616E08432168EA
:103CB000C1F8C000D4E91710084460B12068D0F8FA
:103CC000C80020F0070001AAA16E52F82110084395
:103CD0002168C1F8C800206C60B12068D0F8BC0031
:103CE00020F0070001AA616C52F8211008432168F6
:103CF000C1F8BC00A06C68B12068D0F8BC0020F00E
:103D0000700101AAE06C52F8200041EA001021681D
:103D1000C1F8BC00206D68B12068D0F8BC0020F468
:103D2000E06101AA606D52F8200041EA002021689C
:103D3000C1F8BC000C492068884205D160688068E1
:103D400020F0030061688860002044F8940FA060B0
:103D500001202071943C2046FCF70EFE06463046BA
:103D60009EE6000020E1000800A0004010B5B6B0BB
:103D70000446142130A8FCF771FBB82102A8FCF717
:103D80006DFB82492068884251D14FF400410020E8
:103D9000CDE9021048031D9002A802F0E9FD08B128
:103DA000FCF7B6FD7A480068401C7949086008466F
:103DB000006801280DD100BF7648006840F480708B
:103DC000744908600846006800F48070019000BFE4
:103DD00000BF00BF6F480C38006840F008006D4914
:103DE0000C3908600846006800F00800019000BF28
:103DF00000BF032030900220319000203290339099
:103E00000920349030A9644800F0C8F90022052147
:103E1000132000F079FB132000F062FB0022052143
:103E2000152000F071FB152000F05AFBABE05B4958
:103E30002068884251D14FF400410020CDE90210A2
:103E400048031D9002A802F093FD08B1FCF760FD45
:103E50004F480068401C4E49086008460068012829
:103E60000DD100BF4B48006840F48070494908609C
:103E70000846006800F48070019000BF00BF00BFDA
:103E800044480C38006840F0020042490C39086090
:103E90000846006800F00200019000BF00BF6020EB
:103EA00030900220319000203290339009203490DD
:103EB00030A93B4800F072F900220521142000F0DF
:103EC00023FB142000F00CFB00220521162000F03B
:103ED0001BFB162000F004FB55E0324920688842A5
:103EE00051D14FF400410020CDE9021048031D904C
:103EF00002A802F03DFD08B1FCF70AFD2448006865
:103F0000401C234908600846006801280DD100BF05
:103F10002048006840F480701E4908600846006828
:103F200000F48070019000BF00BF00BF19480C383A
:103F3000006840F0080017490C390860084600681E
:103F400000F00800019000BF00BF4FF440503090D7
:103F5000022031900020329033900520349030A917
:103F60000D4800F01BF9002205219F2000F0CCFA3B
:103F70009F2000F0B5FA00220521A02000F0C4FA2D
:103F8000A02000F0ADFA36B010BD000000A0004047
:103F900014000024EC440258000C025800A4004015
:103FA0000004025800D400407047000070B5044679
:103FB0000D4605F0010070B10748844201D109F0B7
:103FC0009DFD0648844201D109F0ACFD04488442BD
:103FD00001D109F0BBFD70BD6C0500240C06002466
:103FE000AC0600247047014691F8980001280CD1D6
:103FF000022081F898000868806920F001000A68B2
:1040000090610020C1F89C007047D1F89C0040F0FE
:104010000400C1F89C000120F6E770477047704724
:10402000704770477047704770477047704700008F
:10403000F0B50C4600214E4B93E001268E4006EA77
:104040000402002A7ED04B4E8F0856F827508E0768
:10405000370F0F26BE403540474EB04201D10026F3
:1040600028E0464EB04201D1012623E0444EB04242
:1040700001D102261EE0434EB04201D1032619E0D1
:10408000414EB04201D1042614E0404EB04201D16D
:1040900005260FE03E4EB04201D106260AE03D4E15
:1040A000B04201D1072605E03B4EB04201D10926BE
:1040B00000E00A268F073F0FBE40AE421FD11E68A8
:1040C00096431E605E6896435E604FF0B046766829
:1040D00096434FF0B0477E603E46366896433E605A
:1040E0008E07370F0F2606FA07F5224E8F0856F86F
:1040F0002760AE431F4F4FEA910C47F82C600668CB
:104100004FEA410C032707FA0CF73E430660CF083D
:1041100000F1200656F827604F074FEAD76C0F27AB
:1041200007FA0CF7BE434FEAD10C00F1200747F81D
:104130002C60C6684FEA410C032707FA0CF7BE4310
:10414000C66000E00CE0476801268E40B743476038
:1041500086684FEA410C032707FA0CF7BE438660D6
:10416000491C24FA01F6002E7FF467AFF0BD000071
:10417000800000580804005800000258000402584B
:1041800000080258000C025800100258001402588F
:1041900000180258001C025800240258F8B50246C4
:1041A0000B4600216D4DD2E001278F401E6806EAC4
:1041B0000704002C72D01E7906F00306012E04D0ED
:1041C0001E7906F00306022E13D190684F000326D5
:1041D000BE40B0434F00DE68BE4030439060506840
:1041E00001268E40B0431E79C6F300168E40304340
:1041F00050601E7906F00306032E09D0D0684F00E8
:104200000326BE40B0434F009E68BE403043D0609E
:104210001E7906F00306022E13D1CF0802F1200604
:1042200056F827004E07F70E0F26BE40B0434F0743
:10423000FF0E1E69BE403043CF0802F1200646F84B
:10424000270010684F000326BE40B0431E7906F0D9
:1042500003064F00BE40304310605E6806F44036EF
:10426000002E73D000BF3E4E366846F002063C4F2B
:104270003E603E46366806F00206009600BF00BF6C
:10428000384E8F0856F827008E07370F0F26BE408E
:10429000B043354EB24202D1002629E056E0334EFB
:1042A000B24201D1012623E0314EB24201D10226B1
:1042B0001EE0304EB24201D1032619E02E4EB2422A
:1042C00001D1042614E02D4EB24201D105260FE0A3
:1042D0002B4EB24201D106260AE02A4EB24201D14B
:1042E000072605E0284EB24201D1092600E00A2641
:1042F0008F073F0FBE4030431A4E8F0846F8270005
:104300004FF0B0463068A0435E6806F4801606B1F0
:1043100020434FF0B04630607068A0435E6806F4FA
:10432000001606B120434FF0B04670606868A043A5
:104330005E6806F4003606B1204368602868A04332
:104340005E6806F4803606B120432860491C1E686A
:10435000CE40002E7FF428AFF8BD0000800000584A
:10436000F44402580804005800000258000402589F
:1043700000080258000C025800100258001402589D
:1043800000180258001C0258002402580AB181612A
:1043900001E00B048361704701480068704700002A
:1043A00018000024034800680349097808440149BB
:1043B00008607047180000242000002410B5032076
:1043C00000F0E0F803F048FB10490968C1F303214D
:1043D0000F4A515C01F01F0120FA01F40B480068FC
:1043E00000F00F001146085C00F01F0024FA00F0F6
:1043F00008490860084804600F2000F00FF808B171
:10440000012010BD00F054F80020FAE718440258CB
:1044100094E10008280000242400002470B58AB02C
:104420000446102C0AD200222146A12000F06CF88C
:10443000A12000F055F81948046002E001200AB0FC
:1044400070BD00BF1648006840F0807014490860D5
:104450000846006800F08070009000BF00BF01A90E
:1044600002A803F079FA03F0E5FA45000D48B5FB20
:10447000F0F0461E0C480D49086040F2E7310B4849
:10448000C160466000210161816004F03DFB18B904
:10449000064804F071FBD2E70120D0E71C0000249D
:1044A000EC44025840420F0000E00040540D00244C
:1044B00008B500BF0948006840F0020007490860DD
:1044C0000846006800F00200009000BF00BF002214
:1044D0000F21901E00F018F808BD0000F4440258A7
:1044E0000146084600280DDB00BF00BF00F01F0397
:1044F00001229A4043099B0003F1E023C3F8002105
:1045000000BF00BF00BF70472DE9F05F80460D4639
:10451000164609F087FA074639462A46334601F01F
:104520000700C0F1070ABAF1040F02D94FF0040ADC
:1045300001E0C0F1070AD14600F1040ABAF1070F01
:1045400002D24FF0000A01E0A0F1030AD4464FF076
:10455000010A0AFA09FAAAF1010A0AEA020A0AFA9F
:104560000CFA4FF0010B0BFA0CFBABF1010B0BEA51
:10457000030B4AEA0B042146404609F05BFABDE80A
:10458000F09F000000BF00F00702064B19684FF6CD
:10459000FF031940044B0B4343EA0221014B19600E
:1045A00000BF70470CED00E00000FA052DE9F04F68
:1045B0008DB081460C4693464FF0000AD046FE4926
:1045C000D9F80000884202D10026012501E0012629
:1045D0000025002710E007EB470201AB03EBC20107
:1045E0007A1CD0B206F020F920B14FF0010A082061
:1045F000C9F85400781CC7B2022FECD3BAF1000FEF
:104600007ED1ED48006800F0010038B1EA4800684A
:1046100020F00100E849086048F00108E748006818
:1046200000F0010038B1E548006820F00100E349DE
:10463000086048F00208E24806EB460101AA02EBD6
:10464000C1018968491E50F8210020F48072DC48BD
:1046500006EB460101AB03EBC1018968491E40F836
:104660002120001F006800F0010000287FD0D448FE
:10467000001F006820F00100D149091F0860012DCA
:1046800073D1081D05EB450101AA52F83110491EEE
:1046900050F8210040F00202C94805EB450153F8EB
:1046A0003110491E40F8212005EB450001A901EB1E
:1046B000C0004068A0B1C24805EB450101AA02EB69
:1046C000C1014968491E50F8210040F02002BC4851
:1046D00005EB450103EBC1014968491E40F8212063
:1046E00005EB450001A901EBC000C068D8B1B44892
:1046F00005EB450101AA02EBC101097B491E00E05F
:10470000C6E201F0010150F8210040F48022AC48DB
:1047100005EB450101AB03EBC101097B491E01F02B
:10472000010140F8212005EB450001A901EBC00083
:104730000069002819D0A24805EB450101AA02EB47
:10474000C101097C491E01F0010150F8210040F02F
:1047500080629B4805EB450101AB03EBC101097C7D
:10476000491E01F0010140F8212079E0FFE706EB46
:10477000460001A951F83000002871D0904806EB9E
:10478000460101AA52F83110491E50F8210020F0CC
:1047900001028B4806EB460101AB53F83110491E6C
:1047A00040F8212006EB460001A901EBC00040685B
:1047B000A0B1834806EB460101AA02EBC10149689A
:1047C000491E50F8210020F010027D4806EB4601FA
:1047D00003EBC1014968491E40F8212006EB460061
:1047E00001A901EBC000C068C8B1754806EB4601DD
:1047F00001AA02EBC101097B491E01F0010150F839
:10480000210020F480326E4806EB460101AB03EB39
:10481000C101097B491E01F0010140F8212006EB8E
:10482000460001A901EBC0000069C8B1644806EB6D
:10483000460101AA02EBC101097C491E01F00101F8
:1048400050F8210020F080725D4806EB460101AB74
:1048500003EBC101097C491E01F0010140F8212050
:1048600005EB450101AA52F83110206888421FD09B
:1048700005EB450102EBC10160684968884217D029
:1048800005EB450102EBC101A068896888420FD0A1
:1048900005EB450102EBC101E068C968884207D019
:1048A00005EB450102EBC10120690969884227D166
:1048B00005EB450101AA52F831102068884220D149
:1048C00005EB450102EBC10160684968884218D1D7
:1048D00005EB450102EBC101E068C968884210D1CF
:1048E00005EB450102EBC10120690969884208D145
:1048F0003348001F006840F001003149091F08607B
:104900008EE02F4805EB450101AA52F83110491EEF
:1049100050F8210020F00102294805EB450101ABC8
:1049200053F83110491E40F8212005EB450001A93C
:1049300001EBC0004068A0B1214805EB450101AA88
:1049400002EBC1014968491E50F8210020F0100215
:104950001B4805EB450103EBC1014968491E40F8BE
:104960002120174805EB450101AA02EBC101896826
:10497000491E50F8210020F48072114805EB4501D2
:1049800001AB03EBC1018968491E40F8212005EB0A
:10499000450001A901EBC000C06800B3084805EB61
:1049A000450101AA02EBC101097B491E01F0010189
:1049B00050F8210006E000000050005200A0005214
:1049C00004B4005220F48032B34805EB450103EBF8
:1049D000C101097B491E01F0010140F8212005EBCE
:1049E000450001A901EBC0000069C8B1AA4805EB68
:1049F000450101AA02EBC101097C491E01F0010138
:104A000050F8210020F08072A34805EB450101AB6E
:104A100003EBC101097C491E01F0010140F821208E
:104A20009D48A168491E50F8210020F440704FF4C1
:104A3000807141EA462108439749A268521E41F815
:104A400022006069401E091F0968C1F307418842BE
:104A50000BD99148001F006820F47F01A08A401EF6
:104A600041EA00408C49091F08608B48001F00681C
:104A700000F00100002875D087482168491E50F8D1
:104A8000210020F00300401C83492268521E41F897
:104A90002200606868B108466168491E50F821002C
:104AA00020F0300040F010027B486168491E40F859
:104AB0002120E06800F4803090B17748217B491EC6
:104AC00001F0010150F8210020F4E02040F4803290
:104AD0007148217B491E01F0010140F8212013E0BB
:104AE000E06888B16C48217B491E01F0010150F853
:104AF000210020F0E06040F080726748217B491E71
:104B000001F0010140F82120206900F4803090B1CB
:104B10006148217C491E01F0010150F8210020F478
:104B2000E02040F440325C48217C491E01F0010144
:104B300040F821209AE02069002811D05648217CB5
:104B4000491E01F0010150F8210020F0E06040F022
:104B500040725148217C491E01F0010140F821209A
:104B600084E0FFE74C482168491E50F8210020F0FE
:104B70000300012141EA4601084347492268521EC9
:104B800041F82200606878B108466168491E50F813
:104B9000210020F03000102141EA461108433E492F
:104BA0006268521E41F82200E06800F48030A8B12B
:104BB0003948217B491E01F0010150F8210020F401
:104BC000E0204FF4803141EA864108433249227B9C
:104BD000521E02F0010241F8220016E0E068A0B186
:104BE0002D48217B491E01F0010150F8210020F0E1
:104BF000E0604FF0807141EA866108432649227BDC
:104C0000521E02F0010241F82200206900F48030B7
:104C1000A8B12148217C491E01F0010150F8210072
:104C200020F4E0204FF4403141EA864108431A491C
:104C3000227C521E02F0010241F8220016E0206997
:104C4000A0B11548217C491E01F0010150F8210056
:104C500020F0E0614FF0407040EA866001430E486A
:104C6000227C521E02F0010240F8221008F00100DE
:104C700028B10A48006840F001000849086008F0BF
:104C8000020028B10648006840F0010004490860AD
:104C900050460DB0BDE8F08F04B4005200500052F1
:104CA00000A0005270B5044600250CB9012510E0A3
:104CB0002068006820F00100216808602068806892
:104CC00020F0020021688860204600F08DF8002066
:104CD0002065284670BD0000F8B504460025FFF7A2
:104CE0005BFB06460CB901257AE000206065206D6B
:104CF000002875D1204600F0A7F841F288312046FF
:104D000000F074F9208A401EE16841EA00416069C0
:104D1000401E41EA0020616B0843E16908432168B5
:104D20008968304A11400843216888602068C0685B
:104D300020F4E020216A08432168C860208EA16B1E
:104D400041EA0040216808612168E06B4861206801
:104D5000006820F4F8516068401E41EA0020216894
:104D60000860A06D3346002220210090204605F007
:104D7000CFFD05468DBB2068C06820F0FF00616A4A
:104D8000491E08432168C8602068006820F0400080
:104D9000A168084321680860D4E90A010843216832
:104DA000D1F8081121F0A04108432168C1F8080199
:104DB0002068006840F0010021680860A0690228AE
:104DC00005D12068806840F0020021688860E068B2
:104DD000B0F1806F02D10120206501E00220206542
:104DE0002846F8BDF4F8E0F810B5044610492068EC
:104DF00088421CD10F48006820F400100D4908605B
:104E00000846006820F4002008600A210A48FFF7DD
:104E10000FF905210948FFF70BF94FF40061084825
:104E2000FFF706F94FF400610648FFF701F910BDDE
:104E300000A00052D4440258000002580004025856
:104E400000100258000C025810B5B6B004461421E8
:104E500030A8FBF703FBB82102A8FBF7FFFA5D4976
:104E6000206888427ED14FF000710020CDE9021009
:104E7000159002A801F07CFD08B1FBF749FD00BFC9
:104E80005548006840F4001053490860084600681F
:104E900000F40010019000BF00BF00BF084600688A
:104EA00040F4002008600846006800F400200190EB
:104EB00000BF00BF00BF48480C30006840F0010050
:104EC00045490C3108600846006800F00100019077
:104ED00000BF00BF00BF0846006840F00200086045
:104EE0000846006800F00200019000BF00BF00BF4C
:104EF0000846006840F0100008600846006800F0AE
:104F00001000019000BF00BF00BF0846006840F0DD
:104F1000080008600846006800F00800019000BF23
:104F200000BF022030903190002032900320339057
:104F30000920349030A92948FFF730F90820309033
:104F400002203190002032900320339006203490CC
:104F500030A92248FFF722F9012030900220319039
:104F6000002000E034E0329003203390042034909D
:104F700030A91B48FFF712F904203090022031902D
:104F800000203290032033900920349030A9144837
:104F9000FFF704F94FF400603090022031900020B8
:104FA0003290032033900B20349030A90D48FFF746
:104FB000F5F84FF4006030900220319000203290DC
:104FC000032033900920349030A90748FFF7E6F812
:104FD00036B010BD00A00052D44402580000025860
:104FE0000004025800100258000C02580246916555
:104FF00000207047704710B50446D4F8080507F044
:10500000A8FB10BD70B504460D4605EBC50304F1C1
:105010003C0101EB8301CA682946D4F8080507F072
:1050200093FA70BD70B504460D4605EBC50304F553
:105030001F7101EB8301CA682946D4F8080507F0FF
:1050400007FB70BD10B50446D4F8080507F084FBD3
:1050500010BD2DE9F04104460D4605F08000802882
:1050600008D105F00F0000EBC00104F13C0000EB9B
:10507000810607E005F00F0000EBC00104F51F708A
:1050800000EB81063146206808F0F6FA07463846FC
:10509000BDE8F08170B504460E4606F00F00616869
:1050A000884201D9012070BD06F0800080280AD115
:1050B00006F00F0000EBC00104F13C0000EB81059D
:1050C0000120687009E006F00F0000EBC00104F554
:1050D0001F7000EB8105002068700020A87006F0AA
:1050E0000F00287000BF94F8BC04012801D10220F1
:1050F000D9E7012084F8BC0400BF2946206808F0E5
:105100004DF800BF002084F8BC0400BF00BFCAE710
:105110002DE9F04705460E4690461F464FF0000920
:1051200006F0800080280AD106F00F0000EBC001D5
:1051300005F13C0000EB81040120607009E006F0FD
:105140000F0000EBC00105F51F7000EB810400208B
:10515000607006F00F002070C4F808802771607836
:1051600008B120786083022F01D10020607100BF58
:1051700095F8BC04012802D10220BDE8F087012087
:1051800085F8BC0400BF2146286807F053FF00BF24
:10519000002085F8BC0400BF4846EEE72DE9F04149
:1051A00005460E461746984606F00F0000EBC00174
:1051B00005F51F7000EB8104E760C4F81080002043
:1051C0006061607006F00F002070E868012800D16F
:1051D000E7612A7B2146286808F074F80020BDE8C2
:1051E000F08170B504460D4605F00F0061688842F5
:1051F00001D9012070BD05F0800080280AD105F09A
:105200000F0000EBC00104F13C0000EB810601201F
:10521000707007E005EBC50104F51F7000EB810617
:10522000002070700120B07005F00F00307000BFDA
:1052300094F8BC04012801D10220DBE7012084F8A6
:10524000BC0400BF3146206807F0EFFF05F00F00F7
:1052500028B9217B04F2C442206807F067FF00BF31
:10526000002084F8BC0400BF00BFC3E72DE9F04173
:1052700005460E461746984606F00F0000EBC001A3
:1052800005F13C0000EB8104E760C4F810800020C9
:1052900060610120607006F00F002070E86801284E
:1052A00000D1E7612A7B2146286808F00BF800202E
:1052B000BDE8F0812DE9FE4F0446D4F800B05E460B
:1052C000206808F08EFA002874D1206808F0C8FA27
:1052D00008B9BDE8FE8F40F608008059C0F30D20E4
:1052E000C4F8FC04206808F0BBFA00F002000228B1
:1052F00005D12068406900F00200216848612068FB
:1053000008F0AEFA00F01000102845D1206880693E
:1053100020F0100021688861DBF8209009F00F0070
:1053200000EBC00104F51F7000EB810AC9F3434094
:1053300002281AD147F6F07009EA000030B3C9F329
:105340000A125846DAF80C1008F08FFAC9F30A115D
:10535000DAF80C000844CAF80C00C9F30A11DAF8AC
:1053600014000844CAF8140010E0C9F343400628AA
:105370000CD1082204F2C441584608F076FAC9F369
:105380000A11DAF814000844CAF814002068806989
:1053900040F0100021688861206808F061FA00F48C
:1053A0000020B0F5002F7BD10025206808F028FAF6
:1053B000029072E003E3029800F00100002868D038
:1053C000E9B2206808F03FFA804608F0010048B1D1
:1053D000012106F5306000EB45108160294620462A
:1053E00005F0F6FA08F00800082809D1082106F5AA
:1053F000306000EB451081602946204605F0B6FA82
:1054000008F01000102805D1102106F5306000EBDF
:105410004510816008F00200022824D1DBF8140056
:1054200000F08000802807D140F60400805940F445
:10543000806140F60400815105EBC50104F51F7041
:1054400000EB810A9AF80300012806D100208AF8AF
:105450000300E9B2204600F0BDFA022106F53060F3
:1054600000EB4510816008F02000202805D12021A4
:1054700006F5306000EB4510816008F40050B0F58F
:10548000005F06D14FF4005106F5306000EB451087
:1054900081606D1C029840080290029800288AD111
:1054A000206808F0DDF900F48020B0F5802F7DD170
:1054B000206808F09BF9029000259AE0029800F01D
:1054C0000100002873D0E9B2206808F0A3F98046F3
:1054D00008F00100F0B305F00F01012088400190B1
:1054E00040F634008159019821EA000040F6340169
:1054F0008851012106F5106000EB45108160E068DD
:10550000012824D105EBC50104F13C0000EB81002A
:1055100005EBC502C16804F13C0000EB8200806825
:10552000014405EBC50204F13C0000EB8200C160C0
:105530006DB905EBC50104F13C0000EB8100006989
:1055400028B904F2C4420121206807F0EFFDE9B256
:10555000204600E001E0FFF755FD08F008000828AC
:1055600005D1082106F5106000EB4510816008F0B8
:105570001000102805D1102106F5106000EB451031
:10558000816008F04000402805D1402106F51060F8
:1055900000EB4510816008F0020002281DD1294669
:1055A000584608F0DFF805EBC50101E025E01CE0F6
:1055B00004F13C0000EB810A9AF80300012806D1AF
:1055C00000208AF80300E9B2204600F0FAF902212F
:1055D00006F5106000EB4510816008F0800080281F
:1055E00003D12946204605F095FA6D1C0298400823
:1055F0000290029800287FF461AF206808F030F92B
:1056000000F00040B0F1004F1CD140F6040080597A
:1056100020F0010140F60400815194F8F4040128BF
:1056200007D1002084F8F40400212046FFF7E2FCB3
:1056300002E0204600F0EFF92068406900F00040E9
:1056400021684861206808F00BF900F40060B0F5AB
:10565000006F0ED140F60800805900F0010010B133
:10566000204600F00BFA2068406900F400602168D1
:105670004861206808F0F4F800F00060B0F1006FB5
:1056800019D12068406900F000602168486194F8F1
:10569000F40468B9012084F8F4042068406DC0F374
:1056A0008300C4F8F80401212046FFF7A3FC02E0C0
:1056B000204600F0E3F9206808F0D2F800F48050AA
:1056C000B0F5805F7ED140F60400805920F00101E2
:1056D00040F6040081511021206808F043F80027AB
:1056E00032E04FF67F3106F5106000EB4710816025
:1056F00006F5106000EB4710006820F4001106F575
:10570000106000EB471001604FF67F3106F5306006
:1057100000EB4710816006F5306000EB4710006831
:1057200020F4001106F5306000EB4710016006F52B
:10573000306000EB4710006840F0006106F5306013
:1057400000EB471001607F1C6068B842C9D840F682
:105750001C00805940F0011140F61C008151206B63
:1057600070B1D6F8840840F00B01C6F8841840F6F2
:105770004400805940F00B0140F6440081510FE095
:1057800040F61400805942F22B01084340F6140100
:105790008851081F805940F00B014FF4016081517E
:1057A000D6F8000820F4FE60C6F80008217B04F259
:1057B000C442206807F0BAFC2068406900F48050B9
:1057C000216800E000E04861206808F049F800F432
:1057D0000050B0F5005F17D1206807F093FC2068F7
:1057E00007F0ECFF206102F0EDF80090227C2068C9
:1057F000009908F07FF8204600F0F5F8206840692D
:1058000000F4005021684861206808F029F800F091
:105810000800082808D1204600F004F920684069F3
:1058200000F0080021684861206808F019F800F0CD
:105830008000802818D1DBF8180020F08000CBF819
:10584000180001250DE005EBC50104F51F7000EB04
:105850008100C078012803D1E9B22046FFF7F9FBA7
:105860006D1C6068A842EED8206807F0F9FF00F4CC
:105870008010B0F5801F2DD1012522E006F51060C3
:1058800000EB4510D0F8009005EBC50104F13C0099
:1058900000EB81000079012812D109F00040B0F13D
:1058A000004F0DD1012105EBC50204F13C0000EBD6
:1058B0008200C170E8B240F080012046FFF7C9FBCA
:1058C0006D1C6068A842D9D82068406900F4801037
:1058D00021684861206807F0C3FF00F40010B0F5AC
:1058E000001F44D1012538E006F5306000EB45107B
:1058F000D0F8009005EBC50104F51F7000EB8100A6
:105900000079012828D109F00040B0F1004F23D1DF
:1059100009F4803094F8FC1401F0010188421BD195
:10592000012105EBC50204F51F7000EB8200C17078
:10593000DBF8180040F08000CBF81800DBF814000A
:1059400000F0800040B940F60400805940F4007136
:1059500040F60400815103E06D1C6068A842C3D882
:1059600000BF2068406900F4001021684861206889
:1059700007F076FF00F08040B0F1804F08D120465C
:10598000FFF739FB2068406900F0804021684861DA
:10599000206807F065FF00F0040004280FD120689C
:1059A000D0F8049009F00400042802D12046FFF743
:1059B00049FB2068406840EA09002168486000BF50
:1059C00087E470B504460D462946D4F8080506F06C
:1059D000F2FE70BD70B504460D462946D4F80805A0
:1059E00006F00DFF70BD70B504460125206908B9A9
:1059F000002506E02069022801D1012501E0FAF71F
:105A000087FF2946D4F8080506F0A2FFD4F8080558
:105A100006F049FF70BD10B50446D4F8080506F03D
:105A200078FF10BD10B50446D4F8080506F07CFFD9
:105A300010BD70B504460D4600BF94F8BC040128A3
:105A400001D1022070BD012084F8BC0400BF84F89D
:105A500038502946206807F038FF00BF002084F83E
:105A6000BC0400BF00BFEDE710B5044604F2C4411A
:105A7000D4F8080506F083FF10BD000010B50446F9
:105A8000D4F8080506F0C9FF2068D0F8000E40F0F1
:105A900001002168C1F8000E206A28B1034800689F
:105AA00040F006000149086010BD000010ED00E064
:105AB00070B5044615480068C0F3800048B9134823
:105AC000006800F00700A04201D0012070BD002056
:105AD000FCE70E48006820F0070020430B490860EF
