:020000040800F2
:1000000038040020A10100080F0B0008490A00086D
:100010000D0B0008BF080008A11200080000000036
:10002000000000000000000000000000B90D000802
:10003000FD08000800000000E50B0008750E000830
:10004000BB010008BB010008BB010008BB010008A0
:10005000BB010008BB010008BB010008BB01000890
:10006000BB010008BB010008BB010008BB01000880
:10007000BB010008BB010008BB010008BB01000870
:10008000BB010008BB01000895070008BB01000880
:10009000BB010008BB010008BB010008BB01000850
:1000A000BB010008BB010008BB010008BB01000840
:1000B000BB010008BB010008BB010008BB01000830
:1000C000BB010008BB010008BB010008BB01000820
:1000D000BB010008250F0008D90F00088D1000088B
:1000E00015090008BB010008BB010008BB0100089E
:1000F000BB010008BB010008BB010008BB010008F0
:10010000BB010008BB010008BB010008BB010008DF
:10011000BB010008BB010008BB010008BB010008CF
:10012000BB010008BB010008BB010008BB010008BF
:10013000BB010008BB010008BB010008BB010008AF
:10014000BB010008BB010008BB010008BB0100089F
:10015000BB010008BB010008BB010008BB0100088F
:10016000BB010008BB010008BB010008BB0100087F
:10017000BB010008BB010008BB010008BB0100086F
:10018000BB010008BB010008DFF810D000F02CFA1A
:1001900000480047A91B0008AFF300803804002086
:1001A0000648804706480047FEE7FEE7FEE7FEE711
:1001B000FEE7FEE7FEE7FEE7FEE7FEE7C90E000802
:1001C0008901000800F0004230F000400AD0C10D63
:1001D00001F56071C0F3160042EA0151C208400700
:1001E0001143704700200146704730B50B46014669
:1001F00000202022012409E021FA02F59D4205D3C6
:1002000003FA02F5491B04FA02F52844151EA2F16F
:100210000102F1DC30BD2DE9F05F05460020924679
:100220009B4688460646814640241BE028464146B8
:100230004746224600F0F9F953465A46C01A914102
:1002400010D311461846224600F0E0F92D1A67EB4C
:1002500001084F4622460120002100F0D7F917EB94
:1002600000094E41201EA4F10104DFDC484631465E
:100270002A464346BDE8F09F2DE9FE4F804681EABD
:100280000300C00F0C46009021F0004123F0004510
:10029000B8EB0200A94105D24046214690461C46D3
:1002A0000B46024623F00040104347D0270DC7F30A
:1002B0000A00C3F30A510290401A019040286BDAF9
:1002C000C3F3130040F4801B0098924620B1002332
:1002D000D2EB030A63EB0B0B01985946C0F14002C5
:1002E000504600F093F906460D4650465946019A8D
:1002F00000F0ABF910EB08006141002487EA1152CD
:1003000084EAE7731A4340D0009A62B3019A012A43
:100310004FEA075215DC001B61EB02014FF000426F
:1003200002EA0752CDE90042001C41F58011324635
:100330002B4600F0ABF903B0BDE8F08F40462146F4
:10034000F9E7001B61EB0201001C41F58013001866
:100350005B412018A2F5001747EB030140EAD57076
:10036000B6196D4111E06D084FEA360645EAC075D1
:100370004FEA0752001B61EB0201001C41F580119E
:1003800049084FEA30000019514132462B4603B06C
:10039000BDE8F04F00F06BB9009801224000002347
:1003A000D0EB020263EBE073009821464FEAE07461
:1003B000B8EB000061EB0401E9E783F000435BE781
:1003C00081F0004158E72DE9FE4F81EA030404F073
:1003D000004421F0004100944FF0000B23F0004353
:1003E00050EA01045ED052EA03045BD0C3F30A541E
:1003F000C1F30A552C44A4F2F3340194A0FB025437
:10040000C1F3130141F48011C3F3130343F48013C8
:1004100001FB024400FB034E840A970A44EA81541C
:1004200047EA8357A4FB076802958D0A05FB0785F9
:100430004FEA932C04FB0C542705029D4FEA065803
:1004400047EA1637B5EB08056EEB070C870E920EE0
:1004500047EA811742EA8312A7FB0201B6EB0B01C0
:1004600064EB00042B0D43EA0C335E1844EB1C5084
:10047000DA465146E7FB0201C5F313044FEA0B339A
:1004800043EA14534FEA0432019C43EA0603A4F101
:100490000C040294009CCDE900B400F0F7F803B01E
:1004A000BDE8F08F00200146F9E72DE9F04D81EA23
:1004B000030404F0004B21F0004514464FF0000AFD
:1004C00023F0004150EA050220D054EA01021DD079
:1004D000C5F30A570246C5F31303C1F31300C1F372
:1004E0000A5640F4801543F48013A7EB0608101B4E
:1004F000D64608F2FD3873EB050002D308F1010877
:1005000001E092185B41B8F1000F03DA00200146C8
:10051000BDE8F08D00204FF48011064684460EE0C1
:10052000171B73EB050705D3121B63EB050306438B
:100530004CEA010C49084FEA300092185B4150EA3E
:100540000107EDD152EA030012D082EA040083EAE7
:100550000501084305D0101BAB4106D20122002340
:1005600006E000224FF0004302E06FF0010253105A
:100570001AEB06004CEB085110EB0A0041EB0B01A3
:10058000BDE8F04D00F073B8C1F30A52C1F3130196
:1005900040F2FF3341F480119A4202DA0020014612
:1005A000704740F233439A42A2F2334202DC524295
:1005B00000F03BB800F02AB830B5041E71F1000419
:1005C00004DB4FF00044404264EB0101141E73F160
:1005D000000405DB1C464FF00043524263EB04036A
:1005E000994208BF904230BD064C074D06E0E068D6
:1005F00040F0010394E8070098471034AC42F6D36A
:10060000FFF7C6FD681C0008881C0008202A04DBD0
:10061000203A00FA02F1002070479140C2F1200315
:1006200020FA03F3194390407047202A04DB203A54
:1006300021FA02F00021704721FA02F3D040C2F102
:1006400020029140084319467047202A06DBCB1749
:10065000203A41FA02F043EAE07306E041FA02F37D
:10066000D040C2F12002914008431946704710B5AE
:10067000141E73F1000408DA401C41F100019218C5
:100680005B411A4301D120F0010010BD2DE9F04D6E
:1006900092469B4611B1B1FA81F202E0B0FA80F2C3
:1006A00020329046FFF7B2FF04460F4640EA0A00A8
:1006B00041EA0B0153465A46084313D0114653EA08
:1006C000010019D0C8F140025046FFF7AEFF0546C1
:1006D0000E46504659464246FFF798FF084305D05C
:1006E000012004E020463946BDE8F08D0020054396
:1006F00046EAE0762C4337430A986305E40AA0EB08
:1007000008000022FD0A44EA47540A3002D50020BE
:100710000146E9E7010510196941DDE908450019BD
:100720006941BDE8F04DA2E7090AC943016070477D
:10073000002904D0816841F001018160704781681F
:1007400021F001018160704710B5074C226807490C
:100750000A40D0E900131943D0E90230034319439A
:100760001143216010BD000004230140E030FCFF74
:10077000C06C80B2704730B5024600200B0A546846
:1007800001258D402C401168194202D0002C00D068
:10079000012030BD70B50A4D40F20524214628469F
:1007A000FFF7E9FF012804D12846FFF7E1FF054ADA
:1007B000108021462846BDE87040FFF7B5BF000015
:1007C000002001402400002001238B40002A03D098
:1007D00041681943416070474168994341607047DF
:1007E00030B542680F4B1A400C790B6842EA04227C
:1007F0001343436083680C4A1340D1E90342224308
:100800004D798C6844EA450422431A438260C26AE7
:1008100022F47002097D491EC9B242EA0151C16247
:1008200030BD0000FFFEFFFCFDF7FFC070B50726DE
:1008300009290AD9C568A1F10A0404EB4404A640B9
:10084000B543A3401D43C56007E0056901EB4104C2
:10085000A640B543A3401D4305611F23072A09D2C3
:10086000446B521E02EB820293409C4391400C4326
:10087000446370BD0D2A09D2046BD21F02EB8202C1
:1008800093409C4391400C43046370BDC46A0D3A8D
:1008900002EB820293409C4391400C43C46270BDC2
:1008A000816841F0804181607047002101600171E1
:1008B00041718160C1600161012101757047FEE7EE
:1008C0001CB50121402000F08FF901218DF80410A2
:1008D00000208DF80600802200928DF807108DF818
:1008E0000500054C6946204600F05CF88021204652
:1008F00000F0A6F81CBD000000180240704742F648
:10090000E06303E01946491E89B2FCD2401E80B262
:10091000F8D2704710B54FF40064204600F010F88C
:10092000002806D000F0A6F82046BDE8104000F0F0
:1009300001B810BD0149086070470000143C014037
:1009400001460020024A12680A4200D00120704786
:10095000143C014010B500F097FA00F09DF800F04B
:1009600075F8FFF7ADFF00F09CFC00F01CFABDE845
:10097000104001A000F0A0BC0D0A204576657279F8
:100980007468696E67496E69742068617320616C70
:10099000726561647920636F6D706C657465642045
:1009A0000D0A00002DE9F041002201274FF0030C51
:1009B00007FA02F50B682B40AB422CD106685300B6
:1009C0000CFA03F4A64306600E79D0F800809E402E
:1009D00046EA080606600E79012E01D0022E12D1D9
:1009E0008668A64386604E79D0F808809E4046EA25
:1009F000080686604668AE43466045688E79964034
:100A0000B6B235434560C568A543C560CC799C4006
:100A1000C3681C43C460521C102AC9D3BDE8F081CE
:100A200010B54B07DB0E9A40C90800EB8100016A44
:100A30000F249C40A1430162016A1143016210BD71
:100A40004183704701837047FEE700001CB5012118
:100A5000082000F0C9F800208DF804004FF4784118
:100A600000918DF8070069460148FFF79BFF1CBD08
:100A7000000C024010B5074C40212046FFF7E2FF72
:100A800080212046FFF7DEFFA1152046BDE810407B
:100A9000FFF7D6BF001402401CB50121202000F052
:100AA000A3F84020009001208DF8040000218DF86B
:100AB00006108DF807008DF805100A4C694620468F
:100AC000FFF770FF8021009169462046FFF76AFF1B
:100AD000A115009169462046FFF764FF00F004F875
:100AE0001CBD00000014024010B5074C40212046F8
:100AF000FFF7A6FF80212046FFF7A4FFA11520469F
:100B0000BDE81040FFF79EBF00140240FEE77047AB
:100B100038B54FF4A06000F05BF825208DF8000098
:100B200001248DF801408DF802408DF8034068469D
:100B300000F01AF826208DF800008DF801408DF89D
:100B400002408DF80340684600F00EF827208DF82B
:100B500000008DF801408DF802408DF80340684692
:100B600000F002F838BD000030B50F23C27801252F
:100B70000178002A1FD0154A126802F4E062C2F51B
:100B8000E062C2F30722C2F10404D3404278A240DB
:100B900084781C401443220101F1E02181F80024F3
:100BA000007800F01F018D404009800000F1E02036
:100BB000C0F8005130BD01F01F0085404809800099
:100BC00000F1E020C0F8805130BD00000CED00E0E5
:100BD0000249084302490860704700000000FA0516
:100BE0000CED00E070470000054A002903D01168B1
:100BF0000143116070471168814311607047000024
:100C000030380240054A002903D0116801431160C1
:100C100070471168814311607047000040380240FE
:100C2000054A002903D0116801431160704711681B
:100C300081431160704700004438024070B5244B76
:100C4000196801F00C01234C00291ED0224E042902
:100C50001DD008291DD00460196801F0F0010909B0
:100C60001E4A545C0168E14041601C6804F4E05491
:100C7000A40A145D21FA04F484601B6803F4604341
:100C80005B0BD25CD140C16070BD0460E4E70660DC
:100C9000E2E70F4A121F1168C1F38055116801F095
:100CA0003F0135B1B6FBF1F11468C4F38814614318
:100CB00005E0B4FBF1F11468C4F3881461431268D1
:100CC000C2F30142521C5200B1FBF2F10160C3E7D2
:100CD000083802400024F40040787D011400002010
:100CE0001CB501210220FFF77FFF012000900320A7
:100CF0008DF8040000208DF8070069460148FFF7D1
:100D000051FE1CBD0004024010B58AB0012108024A
:100D1000FFF786FF002400944FF480300190029486
:100D20004FF4706003906846FFF70EFD04A8FFF7CC
:100D3000BCFD04948DF8144001208DF81500069434
:100D4000079408948DF824000C4C04A92046FFF762
:100D500047FD0323012208212046FFF767FD0122FA
:100D600040F205212046FFF72FFD01212046FFF725
:100D7000DFFC2046FFF794FD0AB010BD00200140C3
:100D800008B54FF4C060FFF723FF12208DF8000074
:100D900001208DF801008DF802008DF803006846EF
:100DA000FFF7E2FE08BD10B5FFF79AFFFFF7ACFFB3
:100DB000BDE81040FFF7E4BF704700000CB500220B
:100DC000019200922749086840F4803008604FF48F
:100DD000A043086800F4003000900198401C019086
:100DE000009810B901989842F3D10868800302D5A1
:100DF0000120009000E000920098012831D11948AC
:100E00004030026842F0805202601748026842F4A3
:100E1000404202601348083002680260026842F4EF
:100E200000420260026842F4A0520260021F0F4BAF
:100E300013600A6842F080720A600A689201FCD569
:100E40000B4A40F205711160016821F00301016055
:100E5000016841F0020101600168C1F381010229CA
:100E6000FAD10CBD00380240007000401954400710
:100E7000003C024003480168002902D00168491E75
:100E8000016070472C0000200D484FF47A71006813
:100E9000B0FBF1F0401EB0F1807F01D301200AE0E9
:100EA0004FF0E0214861074AF0201070002088616F
:100EB000072008610020002800D0FEE770470000EE
:100EC0000000002023ED00E010B51248016841F455
:100ED000700101601048016841F0010101600E4A93
:100EE00000210832116002680C4B1A400260031D99
:100EF0000B4A1A60026822F48022026006480C3015
:100F00000160FFF75BFF03494FF000608039086024
:100F100010BD000088ED00E000380240FFFFF6FE43
:100F20001030002440F22551014800F01CB90000A7
:100F30000010014070B586B001210846FFF754FE4D
:100F400000248DF816408DF8174002258DF81550B5
:100F50008DF81450680204901D4E04A93046FFF726
:100F600021FD8DF814502902049104A93046FFF7A1
:100F700019FD07220A213046FFF752FD07220921F9
:100F80003046FFF74DFD01211020FFF749FE4FF4D9
:100F9000E13000900C20ADF80A00ADF80840ADF843
:100FA0000C40ADF80640ADF804400A4C69462046B6
:100FB00000F014F9012240F22551204600F0F3F828
:100FC000FFF7A6FD0121204600F0BAF806B070BD7B
:100FD000000002400010014040F22551014800F09D
:100FE000C2B800000044004070B586B00121084638
:100FF000FFF7FAFD00248DF816408DF81740022502
:101000008DF815508DF81450082004901D4E04A939
:101010003046FFF7C7FC8DF814500421049104A951
:101020003046FFF7BFFC072203213046FFF7F8FCEC
:10103000072202213046FFF7F3FC01214804FFF7A5
:10104000E1FD4FF4E1300090ADF80C400C20ADF81C
:101050000A00ADF80840ADF80640ADF804400A4C6F
:101060006946204600F0BAF8012240F22551204698
:1010700000F099F8FFF74CFD0121204600F060F8E0
:1010800006B070BD000002400044004040F225510F
:10109000014800F068B800000048004070B586B014
:1010A00001210220FFF7A0FD00248DF816408DF8E5
:1010B000174002258DF815508DF81450A8020490A1
:1010C0001D4E04A93046FFF76DFC8DF814506902DF
:1010D000049104A93046FFF765FC07220B21304636
:1010E000FFF79EFC07220A213046FFF799FC0121F9
:1010F0008804FFF787FD4FF4E13000900C20ADF835
:101100000A00ADF80840ADF80C40ADF80640ADF867
:1011100004400A4C6946204600F060F8012240F283
:101120002551204600F03FF8FFF7F2FC0121204650
:1011300000F006F806B070BD000402400048004010
:10114000002904D0818941F400518181704781894F
:1011500021F40051818170470246002012880A4222
:1011600000D00120704770B5002440F66A12C1F328
:10117000421301F01F05012606FA05F2012B0CD0DF
:10118000022B0DD0838A1340090A8E40008830401C
:101190000BB100B10124204670BD83891340F3E7F1
:1011A000038A1340F0E710B540F66A13C1F3421307
:1011B00001F01F040121A140012B07D0022B07D011
:1011C00014303AB102680A43026010BD0C30F8E7EF
:1011D0001030F6E702688A43026010BD7FB504460E
:1011E0000D46208A20F44051E88808432082A089D7
:1011F00041F20C618843A9882A8911436A89024314
:101200001143A181A08A20F44071A8890843A082DB
:101210006846FFF713FD1E48844202D01D488442F1
:1012200001D1039800E00298A189090408D500EBD8
:10123000C00101EB001029684900B0FBF1F007E0A4
:1012400000EBC00101EB001029688900B0FBF1F050
:101250006422B0FBF2F109010B096FF018056B4332
:1012600000EB8300A3891D044FF0320307D503EB85
:10127000C000B0FBF2F000F00700084306E003EB0B
:101280000010B0FBF2F000F00F00084320817FBD9A
:101290000010014000140140C1F308018180704733
:1012A000FEE710B5FFF746FEFFF79EFEBDE81040D3
:1012B000FFF7F4BE704700000FB4054B10B503A94B
:1012C000044A029800F0DAF810BC5DF814FB000044
:1012D000851B00083000002002E008C8121F08C16A
:1012E000002AFAD170477047002001E001C1121FA7
:1012F000002AFBD1704700002DE9FF5F82B000217A
:10130000DDE90430020DDDF840B0034318D044F6A7
:101310001050A2F2FF3242431514119801281FD039
:10132000A5EB0B00401C5FEA000A4FF000064E4F91
:10133000DFF83891B046504615D5CAF1000413E0E5
:10134000119801244AA3012801D16FEA0B010298E8
:10135000119AC0E90031C0E9024206B0BDE8F09F31
:10136000CBF10000DFE704460021404A491842EB78
:101370000450CDE9001012E0E00707D032463B46AA
:1013800040464946FFF71FF88046894632463B46AD
:1013900010461946FFF717F806460F466410002C52
:1013A000EAD1DDE90401DDE90023BAF1000F06DA34
:1013B000FFF709F842464B46FFF705F805E0FFF74F
:1013C00074F842464B46FFF770F804460E4600227A
:1013D000284BFFF7F1F803D84FF0FF30014607E044
:1013E0000022254B20463146FEF746FFFFF7CCF89A
:1013F000102409E0002C0ADB0A220023FEF70BFF71
:10140000039B30321A55641E50EA0102F2D1641C6B
:10141000039AC4F111031444119A012A03D0012242
:1014200008430DD10AE0084304D000204FF0110B0F
:10143000119072E7A3EB0B056D1E0DE05B4504DD1B
:101440004FF0000205F1010504E003DA4FF000025D
:10145000A5F10105002AECD002981199C0E90231EA
:10146000C0E9004579E70000000014400000F03FAB
:10147000300000000000F0430000E03F2DE9FF4F86
:1014800095B09A46884606460025EEE1252877D194
:1014900000242746F94A0121039400E0044316F88A
:1014A000013F203B01FA03F01042F7D130782A289F
:1014B00011D06FF02F033078A0F13002092A16D82E
:1014C000039A44F0020402EB820203EB420210444E
:1014D000761C0390EFE758F8042B0392002A03DAF6
:1014E000504244F40054039044F00204761C3078D7
:1014F0002E2816D116F8010F44F004042A280DD026
:101500006FF02F023078A0F13003092B09D807EBD8
:10151000870302EB4303C718761CF3E758F8047BF4
:10152000761C30786C280FD006DC4C2817D0682841
:101530000DD06A2814D104E0742810D07A280FD175
:101540000DE044F400140AE044F4801401E044F493
:1015500040147278824202D104F58014761C761C05
:10156000307866280BD013DC582877D009DC0028A7
:1015700075D04528F6D04628F4D047281AD193E1F3
:1015800018E0632835D0642879D0652812D18BE122
:10159000702873D008DC6728F1D069286FD06E28D6
:1015A0000DD06F2806D1ACE073282CD0752874D0EC
:1015B000782853D05246179990476D1C54E1C4F3D4
:1015C0000250022809D003280DD0D8F800100428B2
:1015D0000DD00D6008F1040846E1D8F80010EA17B4
:1015E000C1E90052F6E7D8F800100D80F2E70D705F
:1015F000F0E718F8041B8DF8001000208DF80100AA
:10160000EB46012003E058F804BB4FF0FF306107C0
:101610004FF0000102D40DE009F101018946B94201
:101620000FDA8145F8DB1BF809100029F4D108E036
:1016300009F1010189468142FADB1BF809100029F2
:10164000F6D103985346A0EB090721463846179A6E
:1016500000F080FA284400EB090507E044E008E1C7
:101660000DE01BF8010B524617999047B9F101099B
:10167000F7D2534621463846179AF2E039E00A215C
:10168000C4F302524FF0000B0091022A06D058F822
:10169000040BC117032A09D00AE023E008F1070070
:1016A00020F00702F2E80201904605E000B2C117FF
:1016B000042A01D140B2C117002906DA0A460021E6
:1016C000404261EB02012D2202E0220504D52B22CB
:1016D0008DF80420012203E0E20701D02022F7E781
:1016E000914657E00A2100E010214FF0000B0091D5
:1016F0000BE010214FF0000B44F004040827009188
:1017000003E008204FF0000B0090C4F30252022ABD
:1017100005D058F8040B0021032A08D008E008F18E
:10172000070020F00702F2E80201904603E080B2D1
:10173000042A00D1C0B24FF0000922072AD532781E
:10174000702A07D0DDF800C08CF0100C5CEA0B0C9E
:1017500005D00EE040228DF80420012208E050EA76
:10176000010306D030238DF804308DF805200222C5
:101770009146009B83F0080353EA0B030AD150EA19
:10178000010201D1620705D530228DF804204FF007
:1017900001097F1E3278582A04D039A20C920CAA73
:1017A00002920BE03BA2F9E75B46009AFEF733FD9D
:1017B0000C9B9B5C029A521E0292137050EA01022B
:1017C000F2D1029804A9081A00F1200B600702D593
:1017D00024F4803400E001275F4502DDA7EB0B0015
:1017E00000E0002000EB0B01009003984944401AF0
:1017F0000390E00306D453462146179A039800F05D
:10180000A9F90544002706E001A85246C05D1799D2
:1018100090476D1C7F1C4F45F6DBE0030CD553460B
:101820002146179A039800F095F9054404E030200A
:101830005246179990476D1C0099481E0090002948
:10184000F5DC08E00298029952460078491C0291A2
:10185000179990476D1CBBF10001ABF1010BF1DC56
:101860005BE100F065F90544761C307800287FF4D0
:101870000DAE19B02846BDE8F08F00000928010020
:1018800030313233343536373839616263646566F6
:1018900000000000303132333435363738394142B8
:1018A0004344454600000000600700D4062708F1C5
:1018B000070020F00700F0E80223804603F0004C08
:1018C0005FEA0C0001D097A009E0200501D596A0A1
:1018D00005E0E00701D095A001E0AFF24C001390C5
:1018E000307823F0004365280CD006DC452809D069
:1018F00046281DD047287FD13BE0662818D06728AE
:101900007AD136E00021112F01DB112000E0781C94
:10191000CDE9000104A90CA8FFF7EEFCDDE90D01FB
:101920000C9A4FF0000B07F10109109200914EE064
:101930004FF000400097CDE9011004A90CA8FFF773
:10194000DBFCDDE90D020C9B0F994FF0000B91467B
:101950001093009211B9791C00EB0109B7EB090053
:1019600003D4C0F1FF3B07F10109A9EB0700019087
:1019700042E0012F00DA01270021112F01DD1120A3
:1019800000E03846CDE9000104A90CA8FFF7B4FC3B
:10199000DDE90D010C9A00914FF0000BB946109251
:1019A00021070FD4009A4A4503DA914601E0A9F1D4
:1019B0000109B9F1010F05DD109AA9F10101515C8E
:1019C0003029F4D0B84202DA10F1040F03DA012111
:1019D000CDE9011010E0002803DC8344A9EB0001ED
:1019E00002E0411C494500DD8946A0EB0B00401C8C
:1019F00001904FF000400290200705D4019848451F
:101A000002DB4FF0FF30019000208DF84B00029870
:101A10000DF14B07B0F1004F25D002200C902B2088
:101A20000D90029800280CDA404202902D200D9073
:101A300007E00A210298FEF7D8FB3031029007F840
:101A4000011D0C99481E0C900029F2DC0298002818
:101A5000EFD1791E0D980870307800F0200040F02A
:101A6000450007F8020D11A8C01BC01D0290139875
:101A7000007800B1012000EB0901019801EBE07151
:101A8000029801440398401A401E0390E00306D4D4
:101A900053462146179A039800F05CF805441398C2
:101AA000007818B15246179990476D1CE00323D572
:101AB00053462146179A039800F04CF805441BE062
:101AC000BBF1000F07DB0098584504DD109817990B
:101AD00010F80B0001E0179930205246904701980A
:101AE0000BF1010B401E05F10105019004D12E20E0
:101AF0005246179990476D1CB9F10001A9F10109EF
:101B0000DEDC05E017F8010B5246179990476D1C73
:101B10000299481E02900029F4DC53462146179A88
:101B200003989EE62D0000002B000000200000001E
:101B30002DE9F041044600251E461746880404D4CA
:101B400005E039462020B0476D1C641EF9D52846B3
:101B5000BDE8F0812DE9F041044600251E4690467F
:101B6000C80301D5302700E02027880404D505E00C
:101B700041463846B0476D1C641EF9D52846BDE87D
:101B8000F081000070B50446064DE1B22846FFF72B
:101B900083FB80212846FFF7DFFA0028F9D0204692
:101BA00070BD0000001001402DED048BFEF7D2FE49
:101BB000FFF780FB154C9FED168ADFED168A9FED2F
:101BC000169ADFED169A4FF4FA75208800EE100A87
:101BD000B8EE400A20EE080A20EE280A20EE090A94
:101BE00020EE290A84ED010A21880DA0FFF764FB8D
:101BF0006068FEF7E7FA41EC100B12A053EC102BD3
:101C0000FFF75AFB2846FEF77AFEDEE724000020A5
:101C10000000803933335340000020420AD7233C70
:101C20000D0A205468652063757272656E742041D8
:101C3000442076616C7565203D203078253034581D
:101C4000200D0A000D0A20546865206375727265C4
:101C50006E742041442076616C7565203D202566B8
:101C60002056200D0A000000881C000800000020FB
:101C700034000000D8120008BC1C0008340000200A
:101C800004040000E8120008007A030A00000000C3
:101C9000000000000102030406070809000000001C
:101CA0000102030401020304060708090000000002
:0C1CB00000000000000000000000000028
:040000050800018965
:00000001FF
