:020000040800F2
:100000007808002005010008B3290008F125000840
:10001000B129000845090008992D000800000000DA
:10002000000000000000000000000000B7290008E8
:100030003F0A000800000000B5290008B92900089F
:100040001F0100081F0100081F0100081F01000810
:100050001F0100081F0100081F0100081F01000800
:100060001F0100081F0100081F010008FD0900080A
:100070001F0100081F0100081F010008090A0008ED
:100080001F0100081F0100081F0100081F010008D0
:100090001F0100081F0100081F0100081F010008C0
:1000A0001F0100081F0100081F0100081F010008B0
:1000B000392A00081F0100081F0100081F0100085D
:1000C0001F0100081F0100081F0100081F01000890
:1000D0001F010008752D0008812D00088D2D0008D6
:1000E0001F0100081F0100081F010008DFF810D0E1
:1000F00000F05EFB00480047D12F0008AFF30080FE
:10010000780800200648804706480047FEE7FEE7DB
:10011000FEE7FEE7FEE7FEE7FEE7FEE7FEE7FEE7B7
:10012000352A0008ED000008202A04DB203A21FAD5
:1001300002F00021704721FA02F3D040C2F1200200
:100140009140084319467047D2B201E000F8012BF4
:10015000491EFBD270470022F6E710B513460A4647
:1001600004461946FFF7F0FF204610BDF0B480EAC0
:100170000102D40F4200B2EB410F02D20246084600
:1001800011464A0042D0C30DDDB2C1F3C752AD1AC9
:10019000202D35DAC1F3160141F4000204B15242B8
:1001A000C5F1200602FA06F12A411044B3EBD05FF4
:1001B00023D0C4B1012DA0EBC35009DCF0BC4FF03B
:1001C000004202EAC352DBB200F5000000F064BA5C
:1001D000400000F1807000EBC350A0F1807040EA55
:1001E000D170490009E0490841EAC071A0EBC35051
:1001F00000F50000400800EBC350F0BC00F043BA2B
:100200006142012202EB4101001BF6E7F0BC70479E
:1002100081F00041AAE780F00040A7E780EA0102F0
:1002200010B502F00043400022D04A001FD0010E5A
:1002300001EB1261C0F35600C2F3560240F4000015
:1002400042F40002A0FB022000047F39140400D015
:10025000401C50EA124001D44000491EC2B20C06B4
:1002600004EBD010401C4008802A02D003E000209C
:1002700010BD20F00100002900DA0020184310BD55
:1002800030B480EA010202F0004530F0004221F073
:10029000004013D090B1C30DD40DC2F31601C0F3CA
:1002A0001600E41A41F4000140F400027D3491424A
:1002B00001D3641C00E04900002C02DA30BC0020AD
:1002C00070474FF400000023914201D3891A034381
:1002D00040084FEA4101F7D151B1914202D14FF0AC
:1002E000004105E002D24FF0010101E06FF0010191
:1002F00003EBC450284430BC00F0C5B92DE9FE4FD3
:10030000804681EA0300C00F0C46009021F00041B6
:1003100023F00045B8EB0200A94105D24046214632
:1003200090461C460B46024623F00040104347D03F
:10033000270DC7F30A00C3F30A510290401A019037
:1003400040286BDAC3F3130040F4801B00989246F8
:1003500020B10023D2EB030A63EB0B0B0198594643
:10036000C0F14002504600F06DF906460D46504679
:100370005946019A00F075F910EB0800614100241C
:1003800087EA115284EAE7731A4340D0009A62B3B5
:10039000019A012A4FEA075215DC001B61EB0201AA
:1003A0004FF0004202EA0752CDE90042001C41F53D
:1003B000801132462B4600F0ACF903B0BDE8F08F57
:1003C00040462146F9E7001B61EB0201001C41F5A4
:1003D000801300185B412018A2F5001747EB0301BA
:1003E00040EAD570B6196D4111E06D084FEA360646
:1003F00045EAC0754FEA0752001B61EB0201001C81
:1004000041F5801149084FEA300000195141324648
:100410002B4603B0BDE8F04F00F06CB90098012204
:1004200040000023D0EB020263EBE073009821460A
:100430004FEAE074B8EB000061EB0401E9E783F0F8
:1004400000435BE781F0004158E72DE9FE4F81EA68
:10045000030404F0004421F0004100944FF0000B2D
:1004600023F0004350EA01045ED052EA03045BD05B
:10047000C3F30A54C1F30A552C44A4F2F334019493
:10048000A0FB0254C1F3130141F48011C3F3130321
:1004900043F4801301FB024400FB034E840A970AD5
:1004A00044EA815447EA8357A4FB076802958D0A02
:1004B00005FB07854FEA932C04FB0C542705029D8E
:1004C0004FEA065847EA1637B5EB08056EEB070CFE
:1004D000870E920E47EA811742EA8312A7FB0201B8
:1004E000B6EB0B0164EB00042B0D43EA0C335E18F2
:1004F00044EB1C50DA465146E7FB0201C5F31304F6
:100500004FEA0B3343EA14534FEA0432019C43EAA7
:100510000603A4F10C040294009CCDE900B400F0A1
:10052000F8F803B0BDE8F08F00200146F9E7C10FED
:1005300080EAE0700844CA079623002100F0ACB8B6
:1005400096230022114600F0A7B800F0004220F0E8
:100550000040C10DC0F3160040F400007F2901DA0D
:1005600000207047962903DCC1F19601C84001E0E4
:1005700096398840002AF4D04042704720F000406D
:10058000C10DC0F3160040F400007F2901DA0020FD
:100590007047962903DCC1F19601C840704796392F
:1005A0008840704700F0004230F000400AD0C10D92
:1005B00001F56071C0F3160042EA0151C20840071C
:1005C0001143704700200146704701F0004330B4EA
:1005D00021F0004150EA010206D00A0DA2F5607236
:1005E000C1F31301002A02DC30BC00207047440F25
:1005F00044EAC104C100E01830BC00EBC25000F076
:1006000042B80000002801DBC0F10040002901DBF6
:10061000C1F100418842704730B50B4601460020C9
:100620002022012409E021FA02F59D4205D303FAB4
:1006300002F5491B04FA02F52844151EA2F1010235
:10064000F1DC30BD202A04DB203A00FA02F1002060
:1006500070479140C2F1200320FA03F31943904000
:100660007047202A06DBCB17203A41FA02F043EA12
:10067000E07306E041FA02F3D040C2F1200291405B
:100680000843194670470029A8BF7047401C49001D
:1006900008BF20F00100704710B4B0FA80FC00FAE7
:1006A0000CF050EA010404BF10BC704749B1CCF112
:1006B000200421FA04F411FA0CF118BF012121439E
:1006C0000843A3EB0C01CB1D4FEA00614FEA102059
:1006D00042BF002010BC704700EBC35010440029FB
:1006E000A4BF10BC7047401C490008BF20F00100A7
:1006F00010BC704710B5141E73F1000408DA401CDA
:1007000041F1000192185B411A4301D120F0010030
:1007100010BD2DE9F04D92469B4611B1B1FA81F220
:1007200002E0B0FA80F220329046FFF78BFF0446D9
:100730000F4640EA0A0041EA0B0153465A46084375
:1007400013D0114653EA010019D0C8F140025046B7
:10075000FFF7EAFC05460E46504659464246FFF76B
:1007600071FF084305D0012004E020463946BDE86A
:10077000F08D0020054346EAE0762C4337430A9883
:100780006305E40AA0EB08000022FD0A44EA47548E
:100790000A3002D500200146E9E701051019694138
:1007A000DDE9084500196941BDE8F04DA2E7000008
:1007B000064C074D06E0E06840F0010394E80700AE
:1007C00098471034AC42F6D3FFF794FCC8300008C9
:1007D000E830000870B5044600688168C943C9075D
:1007E00017D1816821F00101816000F02FFE0546DC
:1007F0000AE000BF00F02AFE401B022804D920684E
:100800008068C043C00706D020688068C043C00726
:10081000F0D0002070BDA06A40F01000A062E06A35
:1008200040F00100E062012070BD10B50146406A51
:10083000826A12F0500F05D0006A026BBDE81040CA
:1008400008461047816A41F4007181620168896835
:10085000C1F3424107290CD1017B51B9816A21F4CE
:1008600080718162816AC90403D4816A41F0010107
:10087000816200F005FA10BD10B5406A816A41F04E
:1008800040018162C16A41F00401C16200F0FAF9DD
:1008900010BD10B5406A00F0F4F910BDF8B500269F
:1008A0000446009600688168C943C9072DD0816855
:1008B00041F001018160164816490068B0FBF1F073
:1008C00000E0401E00900028FBD100F0BFFD05466F
:1008D00016E000BF00F0BAFD401B022810D92068C6
:1008E0008068C043C0070BD0A06A40F01000A0622F
:1008F000E06A40F00100E06284F824600120F8BD65
:1009000020688068C043C007E4D10020F8BD000023
:100910007800002040420F0070B504460D4608489C
:1009200000F0C4F84FF4FA6000F088FC0020A060EA
:10093000E06020602061C4E90505E061606070BD91
:10094000B8000020FEE700002DE9F047054600F062
:1009500081F801462860264801F08CFE2969FFF7DE
:100960005DFC244C6860617819B1A968FFF74AFE04
:1009700001D26868A8606678DFF87C90642E0BD29C
:100980006F6860683946FFF7F1FB6060207849F8CE
:100990002070401C207016E02778606859F82710F6
:1009A000FFF736FCD5F804804146FFF7DFFB6060B7
:1009B00049F8278064207F1CB7FBF0F100FB117120
:1009C0002170642E05D8761CF0B26070642801D9BD
:1009D00002E06070C0B200E06420401CFFF7B0FD90
:1009E00001466068FFF74CFCE8600120BDE8F08735
:1009F000A000002064000020E8020020014800F070
:100A00000DBB0000E8000020014800F007BB00001B
:100A1000A402002030B590F840500124AC40C56BD2
:100A20006C60046863604368102B036803D09960AE
:100A30000068C26030BD9A600068C16030BD704718
:100A400072B6FEE70870020A4A70020C8A70000E45
:100A5000C870704710B501220D490E4800F0E8F942
:100A60000B480088FFF76CFD0B49FFF709FCFFF707
:100A700099FD0A4A0A4BFFF7E8FC0A4A0A4BFFF7BE
:100A8000DEFCFFF7A2FDB0F5000F00DA002010BD7C
:100A900066000020B8000020E53CF2436F8104C5E9
:100AA0008F31EB3FF72B5382B4B59C3FF8B500254F
:100AB0000446009590F8240001280BD0012084F80A
:100AC00024002046FFF786FE2046FFF7E7FE0600DB
:100AD00002D050E00220F8BDA06A20F4885040F017
:100AE0000200A062022000F04FFD25490968B1FB19
:100AF000F0F0400000E0401E00900028FBD120688C
:100B0000816841F00801816000F0A0FC074608E020
:100B100000F09CFCC01B0A2803D9206880680007ED
:100B200015D4206880680007F2D42068816841F0FD
:100B30000401816000F08AFC074612E000F086FCA8
:100B4000C01B0A280DD920688068400709D5A06A13
:100B500020F0020040F01000A06284F82450012030
:100B6000F8BD206880684007E8D4A06A20F0020041
:100B700040F00100A06284F824503046F8BD000027
:100B800078000020F8B50024009490F82420254631
:100B9000012A12D0012280F824204A681F23072A44
:100BA0000DD20668776B521E02EB820293409F4380
:100BB0000B6893401F43776319E00220F8BD066875
:100BC0000D2A0AD2376BD21F02EB820293409F4359
:100BD0000B6893401F43376309E0F76A0D3A02EB55
:100BE000820293409F430B6893401F43F7620A6859
:100BF000072306680A2A0AD3F7680A3A02EB420278
:100C000093409F438B6893401F43F76008E0376928
:100C100002EB420293409F438B6893401F4337612E
:100C20000A68102A01D0112A20D1124B02689A4278
:100C300017D193681B0219D4936843F4000393609F
:100C40000968102912D10C490C4A0968B1FBF2F16C
:100C500001EB8101490000E0491E00910029FBD110
:100C600004E0816A41F020018162012480F824506F
:100C70002046F8BD002401407800002040420F00CB
:100C800070477047704700002DE9F0414FF00007B2
:100C900004003D467ED0A06A002628B9E66284F8AA
:100CA0002460204600F07EF82046FFF793FDA16AFD
:100CB000C90600D420B1A06A40F01000A06269E02B
:100CC000A16A21F4885141F00201A1626268E169E0
:100CD000237B0A4347EA43010A43A1684FF4807724
:100CE000B94209D0012907D05FF0000194F814C07F
:100CF000BCF1010F02D00AE03946F7E7F3B1A36A6D
:100D000043F02003A362E36A43F00103E362236834
:100D1000D3F804C02CF4694C4CEA010CC3F804C0AD
:100D200021688B68DFF870C003EA0C0313438B6003
:100D3000A168B9420BD0012909D00CE0DFF85CC0F2
:100D4000A3690CEB43330B4343F40061DFE7218AD3
:100D50000D05A5F580152168CB6A23F470032B439C
:100D6000CB62216889680E4B1940914208D1E66236
:100D7000A16A21F0020141F00101A162BDE8F08108
:100D8000A06A20F0020040F01000A062E06A40F08B
:100D90000100E0620120F1E7FDF7E1FF00E0FFFF65
:100DA000FE0E1FFF70B586B0002506460095019522
:100DB000029503950068194988422DD11849886920
:100DC00040F400708861886900F4007004908869BC
:100DD00040F0040088618869694600F004000490CE
:100DE00001200090032001900E4800F039FA0F4CCA
:100DF0000D48C4E900058020C4E90250400020618C
:100E00008000C4E905052046E56100F0B1F908B1AC
:100E1000FFF716FE3462666206B070BD0024014022
:100E2000001002400008014008000240E8000020D5
:100E30002DE9F047894604463B4900683B4F0E1DAB
:100E40009046884201D0B84207D1306810F4702F24
:100E500003D001252846BDE8F08794F82400012836
:100E60000CD0012084F824002046FFF717FD050070
:100E70004FF0000004D084F82400EBE70220EAE7FA
:100E8000A16A40F60162914341F48071A162216838
:100E9000B94218D1326812F4702F14D0A16A41F40B
:100EA0008011A1623168490505D5A16A21F400517C
:100EB00041F48051A162A16AC9040AD5E16A21F016
:100EC0000601E16206E0A26A22F48012A262496889
:100ED000E9E7E06284F82400216A15488862216A03
:100EE0001448C862216A1448086321686FF0020040
:100EF00008602068816841F4807181602168434600
:100F00004A464C31206A00F061F920688168C1F3DB
:100F100042410729816803D041F48011816099E73B
:100F200041F4A001FAE7000000240140002801403C
:100F30002B080008930800087908000810B590F8FD
:100F400021100022022905D00421816380F820208D
:100F5000012010BD01680B6823F00E030B600168CF
:100F60000B6823F001030B6090F84030C46B012143
:100F700001FA03F3636080F8211080F82020104606
:100F800010BD000010B590F821100024022903D0F4
:100F90000421816301243DE001680A6822F00E0209
:100FA0000A6001680A6822F001020A601A4A0168B0
:100FB000914201D1012121E0174A1432914201D11D
:100FC00010211BE0144A2832914201D1891515E005
:100FD000114A3C32914201D189140FE00E4A50323D
:100FE000914202D14FF4803108E00B4A64329142C1
:100FF00002D14FF4801101E04FF08071064A083AA7
:101000005160012180F82110002180F82010416BEF
:1010100001B18847204610BD080002402DE9F05F6D
:10102000C16B0C6801680B68D0F840C0042202FA5A
:101030000CF2494DDFF824A1494E4A4FDFF828B1A0
:10104000DFF828E122422CD05A072AD50A689206F6
:1010500003D40A6822F004020A600168A94201D19F
:10106000042219E0514501D1402215E0B14202D1DC
:101070004FF4806210E0B94202D14FF480420BE09D
:10108000594502D14FF4802206E0714502D14FF458
:10109000800201E04FF080622F4908394A60C16A3E
:1010A0003BE04FF0020808FA0CF818EA040F4FF082
:1010B00000094FF0010235D05FEA837832D50B6822
:1010C0009B0605D40B6823F00A030B6080F82120EF
:1010D0000168A94201D1022219E0514501D1202223
:1010E00015E0B14202D14FF4007210E0B94202D1D2
:1010F0004FF400520BE0594502D14FF4003206E0A4
:10110000714502D14FF4001201E04FF00072124914
:1011100008394A6080F82090816A00291AD0BDE819
:10112000F05F0847082505FA0CF5254212D01B0789
:1011300010D50B6823F00E030B6090F84010C36BC2
:1011400002FA01F15960826380F8212080F8209032
:10115000016BE2E7BDE8F09F080002401C0002407E
:101160003000024044000240580002406C0002403F
:1011700030B528B308C8134914221944B1FBF2F161
:101180008900C16310498163022141771A6843F6DF
:10119000F0718A43D0E900142143D0E902452C4381
:1011A0002143046921434469214384692143114354
:1011B000196000214163012242770177084630BD62
:1011C000012030BDF8FFFDBF0000024070B50446AD
:1011D00090F82000002501280CD0012084F8200080
:1011E00094F821600020012E06D084F8200002250A
:1011F000284670BD022070BD022684F82160A063DD
:101200002068066826F0010606602046FFF702FC0B
:10121000E06A00282068016802D041F00E0106E073
:1012200021F0040101602068016841F00A010160B9
:101230002068016841F001010160D9E770B50446FA
:1012400000F004F90546601C02D00448007804440C
:1012500000F0FCF8401BA042FAD370BD6C000020E7
:101260002DE9F84FDFF8B8910024A9F1040B2346CB
:101270000F2709F1040AABF1040EC9E00125A540CE
:101280002A40AA427DD1674ED1F804C0ACEB0608D3
:10129000B44532D014DCBCF1030F3AD009DCBCF108
:1012A000000F2AD0BCF1010F1CD0BCF1020F31D1CC
:1012B0001DE0BCF1110F17D0BCF1120F2AD119E0BB
:1012C000B8F5881F19D006DCB8F5803F15D0B8F501
:1012D000801F1FD111E0B8F5001F0ED0B8F5041F14
:1012E00018D10AE0CB6815E0CB681B1D12E0CB6873
:1012F00008330FE0CB680C330CE08B682BB1012B6B
:101300004FF0080303D0456104E0042302E00561C7
:1013100000E00023FF2A01D8064601E000F10406A0
:101320004FEA840501D9A5F12005D6F8008007FA17
:1013300005FC28EA0C0803FA05F548EA0508C6F892
:1013400000804D68ED0062D5374DAE6946F001066C
:10135000AE61AD6924F0030605F001050095334D3B
:1013600006EB050CDCF80850A607360F07FA06F85E
:1013700025EA0805DFF8B880404503D14FF00008A2
:1013800017E044E0DFF8AC80404502D14FF001089F
:101390000FE0DFF8A480404502D14FF0020808E0DA
:1013A000DFF89880404502D14FF0030801E04FF08C
:1013B000040808FA06F848EA0508CCF808804D68E1
:1013C000D9F80060ED024D4601D5164300E0964382
:1013D0002E604D68DAF80060AD02554601D516431F
:1013E00000E096432E604D68DBF80060AD035D467B
:1013F00001D5164300E096432E604D68DEF800608C
:10140000ED03754601D5164300E096432E60641C3B
:101410000D682A46E5407FF431AFBDE8F88F000043
:1014200008040140000011100010024000000140BB
:1014300000080140000C0140001001400014014070
:101440000AB1016170470904FBE7000001488068A8
:10145000704700006C000020024881680278114447
:10146000816070476C000020074810B5016841F0AA
:1014700010010160032000F075F80F2000F006F85D
:1014800000F024F8002010BD0020024070B50D4D82
:1014900004464FF47A712878B1FBF0F00A490968E4
:1014A000B1FBF0F000F02CFC48B9102C07D2002260
:1014B0002146501E00F036F800206C6070BD0120FF
:1014C00070BD00006C000020780000200C4808B5BA
:1014D000816941F001018161816901F0010100919F
:1014E000C16941F08051C161C06900F08050009035
:1014F0000448416821F0E06141F00071416008BD9D
:101500000010024000000140002809DB00F01F022B
:10151000012191404009800000F1E020C0F8001155
:1015200070470000F0B40E4B1B680C46C3F3022357
:10153000C3F10705042D00D90425191D072901D27F
:10154000002300E0DB1E012606FA05F1491E2140BA
:1015500099409E40761E16403143F0BC01F02EBCEF
:101560000CED00E0064900F0070208684FF6FF03A3
:10157000184040EA0220034A104308607047000008
:101580000CED00E00000FA0510B501460020234CE8
:10159000012922D0022939D010291DD16168226881
:1015A000D20119D51E48C1F38342C903805C0AD514
:1015B00061681B4AC1F34041921E515C194AB2FB5B
:1015C000F1F1484301E0184948436168490203D4F6
:1015D00040000321B0FBF1F010BD226AC2F30121EB
:1015E000012903D1920701D5C80310BD022905D1F5
:1015F000626A920702D549F6404010BD0329FCD12A
:1016000021688903F9D54FF2244010BD00F02AF972
:101610006168C1F38131491C4900DBE700100240D9
:10162000A030000800127A0000093D002DE9F843BF
:1016300005460078354CC00754D0E0690026C0004C
:1016400008D4E06940F08050E061E069012600F0D4
:10165000805000902E480168C90512D40168804668
:1016600041F480710160FFF7F1FE074605E000BF1D
:10167000FFF7ECFEC01B642823D8D8F80000C00593
:10168000F6D5206A10F4407021D0A98801F4407189
:1016900081421CD0206A1F49012220F440700A6058
:1016A00000220A602062C00711D0FFF7CFFE074674
:1016B00041F2883808E000BFFFF7C8FEC11B414572
:1016C00002D90320BDE8F883206A8007F4D5206A98
:1016D000696820F44070084320621EB1E06920F080
:1016E0008050E0612878800705D56068A96820F4FB
:1016F0004040084360602878C00605D56068E96806
:1017000020F48000084360600020DBE70010024006
:1017100000700040400442422DE9F0470F460500AA
:1017200061D0434E306800F00700B84209D23068FB
:1017300020F0070038433060306800F00700B842FE
:1017400051D128683B4C810712D5400703D560680A
:1017500040F4E06060602878000703D5606840F4DA
:10176000605060606068A96820F0F0000843606025
:101770002878C00728D06868012810D0216802287E
:1017800010D0890700292EDA616821F00301014396
:101790006160FFF75BFE804641F288390DE0216809
:1017A0008903EFE78901EDE7FFF750FEA0EB0801A1
:1017B000494502D90320BDE8F0876068696800F0F8
:1017C0000C00B0EB810FEFD1306800F00700B84299
:1017D0000BD9306820F0070038433060306800F0E3
:1017E0000700B84201D00120E5E72878400705D579
:1017F0006068E96820F4E0600843606028780007CA
:1018000006D56068296920F4605040EAC100606034
:1018100000F038F86168084AC1F30311515CC84010
:101820000649086006480068FFF730FE0020C2E75E
:101830000020024000100240B03000087800002074
:10184000700000200448054900684968044AC1F353
:101850000221515CC840704778000020001002400F
:10186000C03000080448054900684968044AC1F3CB
:10187000C221515CC840704778000020001002402F
:10188000C03000080E4A51680E4801F00C03042BCA
:1018900011D0082B0FD10C48C1F38343C903C05C9E
:1018A0000AD55168084AC1F34041921E515C054A6D
:1018B0005043B0FBF1F070470449484370470000C3
:1018C0000010024000127A008E30000800093D002E
:1018D0002DE9F84F040070D02078C04DC00749D0E2
:1018E0006868C0F38100012807D06868C0F38100F0
:1018F000022809D16868C00306D52868800339D555
:1019000060680028E7D035E06068B0F5803F0BD014
:1019100010B1B0F5A02F11D0286820F480302860D5
:10192000286820F4802002E0286840F48030286095
:10193000606890B1FFF78AFD06460AE0286840F427
:1019400080202860F0E700BFFFF780FD801B64283F
:1019500073D828688003F7D50CE0FFF777FD0646BB
:1019600005E000BFFFF772FD801B6428F0D82868EF
:101970008003F7D420789A4E80074FF001094FF08A
:10198000000839D5686810F00C0F07D06868C0F3FC
:101990008100022809D16868C00306D4286880073E
:1019A00014D52069012808D110E02069B0B1C6F82B
:1019B0000090FFF74BFD074605E00AE1FFF746FD03
:1019C000C01B0228C4D828688007F7D52868616939
:1019D00020F0F80040EAC10028600DE0C6F8008061
:1019E000FFF734FD074604E0FFF730FDC01B022877
:1019F00023D828688007F7D4207800072CD57948A9
:101A0000A169D9B1C0F80090FFF720FD074604E0B6
:101A1000FFF71CFDC01B02280FD8686A8007F7D5A6
:101A200071484FF4FA510068B0FBF1F0009000BF2C
:101A30000098411E0091FAD20EE080E0C0F80080CC
:101A4000FFF704FD074604E0FFF700FDC01B022876
:101A500075D8686A8007F7D42078400760D5E869B0
:101A60000027C00008D4E86940F08050E861E869C8
:101A7000012700F0805000905C480168C90513D42C
:101A80000168834641F480710160FFF7DFFC824604
:101A900006E000BFFFF7DAFCA0EB0A0064284ED88E
:101AA000DBF80000C005F5D5E06801280AD008B1D0
:101AB000052813D0286A20F001002862286A20F047
:101AC000040002E0286A40F001002862E06841F268
:101AD000883B98B1FFF7BAFC82460BE0286A40F0D9
:101AE00004002862EEE700BFFFF7B0FCA0EB0A019C
:101AF00059455AD8286A8007F6D50CE0FFF7A6FCAE
:101B0000824605E0FFF7A2FCA0EB0A0159454CD83C
:101B1000286A8007F6D41FB1E86920F08050E86198
:101B2000E06988B36968C1F38101022944D00228C1
:101B3000C6F8608004D0FFF789FC044638E034E042
:101B4000FFF784FC074604E0FFF780FCC01B022877
:101B50002BD828688001F7D4206AB0F5803F05D1E2
:101B60006868A16820F4003008436860D4E908017F
:101B70000843696821F4741108436860C6F86090EE
:101B8000FFF764FC044606E025E000BFFFF75EFCBB
:101B9000001B022809D828688001F7D51BE000BF88
:101BA000FFF754FC001B022802D90320BDE8F88F80
:101BB00028688001F4D40EE00128F7D06868226A12
:101BC00000F48031914204D1616A00F470108842BF
:101BD00001D00120EAE70020E8E700000010024001
:101BE0000000424280044242780000200070004021
:101BF00070B5040009D0606A002540B125616561B7
:101C0000A56294F8510040B10CE0012070BD6068FD
:101C1000B0F5827FF4D0E561F2E784F850502046B9
:101C200000F040F8022084F851002068016821F09B
:101C300040010160A088218900F4827001F4044110
:101C40000843A18901F400610843217C01F00201ED
:101C50000843217D01F001010843218B01F400714B
:101C60000843217F01F03801084394F8201001F067
:101C700080010843218D01F4005108432168086068
:101C8000A069042101EA1040216848602068C16908
:101C900021F40061C1616565012084F851000020D4
:101CA00070BD000000B585B0002100910191029146
:101CB000039100680F4988421AD10F48816941F4A5
:101CC00080518161816901F480510491816941F001
:101CD000040181618069694600F004000490A0203D
:101CE000009002200190032003900448FFF7B8FA07
:101CF00005B000BD00300140001002400008014066
:101D000010B5401EB0F1807F01D3012010BD4FF00F
:101D1000E02460610F21601701F050F80020A061FD
:101D200007202061002010BD7047704770B590F803
:101D30003C20012A26D0012480F83C40022280F871
:101D40003D2003685A689D6822F070060A68324395
:101D50005A600D4B02689A4208D0B2F1804F05D00C
:101D60000A4B9A4202D00A4B9A4204D1496825F0A4
:101D700080031943916080F83D40002180F83C10B9
:101D8000084670BD022070BD002C014000040040D8
:101D90000008004010B5040003D094F83D0010B1D5
:101DA00007E0012010BD002084F83C00204600F030
:101DB0001FF8022084F83D00211D206800F042FE3B
:101DC000012084F8460084F83E0084F83F0084F83F
:101DD000400084F8410084F8420084F8430084F80D
:101DE000440084F8450084F83D00002010BD000048
:101DF00008B50068B0F1804F12D10A48C16941F0BE
:101E00000101C161C069002200F00100009011468B
:101E10001C20FFF787FBBDE808401C20FFF774BBC0
:101E200008BD00000010024070B5044690F83C0068
:101E30000025012817D0012684F83C60022084F890
:101E40003D002068826822F0770222F47F4282609F
:101E50000868502838D00DDC20284FD005DC90B31E
:101E6000102811D14AE0022070BD302846D0402809
:101E70000AD13BE060282FD070280DD0B0F5805FEC
:101E800003D0B0F5005F12D0012584F83D6000203A
:101E900084F83C00284670BDCB68D1E90121206858
:101EA00000F00CFE2068816841F0770109E0CB6802
:101EB000D1E90121206800F001FE2068816841F429
:101EC00080418160E1E719E0CA684968206800F054
:101ED00007FE5021206806E0CA684968206800F0C3
:101EE00010FE6021206800F0F3FDCEE7CA68496863
:101EF000206800F0F5FD40212068F4E722680146E3
:101F00001046F0E770472DE9F04104460068C668C6
:101F100005694FF00007A90713D5B10711D5F91EC0
:101F2000016101202077206880698007204602D067
:101F3000FFF7E8FF04E000F07EF8204600F07CF8B0
:101F40002777680716D5700714D521686FF004004D
:101F50000861022020772068806910F4407F2046C5
:101F600002D0FFF7CFFF04E000F065F8204600F054
:101F700063F82777280715D5300713D521686FF048
:101F800008000861042020772068C0698007204687
:101F900002D0FFF7B7FF04E000F04DF8204600F054
:101FA0004BF82777E80616D5F00614D521686FF0B0
:101FB00010000861082020772068C06910F4407F75
:101FC000204602D0FFF79EFF04E000F034F82046E0
:101FD00000F032F82777E80708D0F00706D021682C
:101FE0006FF001000861204600F028F8280608D5A7
:101FF000300606D521686FF0800008612046FFF7A3
:1020000093FE680608D5700606D521686FF040007B
:102010000861204600F01EF8A8060AD5B00608D5CB
:1020200021686FF0200008612046BDE8F041FFF70D
:102030007CBEBDE8F08170477047000003498842CC
:1020400003D103480168491C0160704784010020E6
:10205000000000207047704770470000F8B5016825
:1020600004460868CA684B6910F00F0F4FF000056E
:1020700059D003F0010602F49077374365D0C107C9
:1020800005D0D10503D5616C41F0010161644107C0
:1020900005D5D90703D0616C41F002016164810765
:1020A00005D5D90703D0616C41F0040161640107D3
:1020B00007D502F02001314303D0616C41F00801E3
:1020C0006164616C00293AD0800604D5900602D57F
:1020D000204600F057FD20684069616CC0F3801015
:1020E000090700D460B3204600F025FD2068406950
:1020F000400621D52068143050E8001F21F040012F
:1021000040E80012002AF5D1E06BA8B16D494163A7
:10211000E06BFEF737FF002811D0E06B416B01B098
:10212000BDE8F040084783060FD593060DD520463D
:10213000BDE8F84000F026BD2046FFF78DFFF8BD52
:102140002046FFF789FF6564F8BD266B2023012E2A
:102150007CD1C6067AD5D60678D50868486800903E
:1021600048694FF00206400640D5E16B08684068B8
:102170000004000CE8D0A28D8242E5D9E085886990
:1021800020282DD020680C3050E8001F21F48071E9
:1021900040E80012002AF5D12068143050E8001FF2
:1021A00021F0010140E80012002AF5D12068143026
:1021B00050E8001F21F0400140E80012002AF5D14C
:1021C00084F84230256320680C3050E8001F21F06D
:1021D000100140E80012002AF5D1E06BFEF7AEFED8
:1021E0006663A08DE18D401A81B22AE0A08DE18D59
:1021F000401A81B2E08D0028A6D00029A4D0226820
:102200000C3252E8000F20F4907042E80007002FD3
:10221000F5D12068143050E8002F22F0010240E888
:102220000027002FF5D184F84230256320680C3058
:1022300050E8002F22F0100240E80023002BF5D1D7
:1022400066632046FFF707FFF8BDFFE705062BD5BD
:10225000150629D594F841002128F5D1A068B0F5DC
:10226000805F01D12069B0B1206A411C21622168E0
:1022700000784860E08C401E0004000CE084E3D14C
:102280002068C16821F08001C1602068C16841F008
:102290004001C160D8E7206A0088C0F308004860A8
:1022A000206A801C2062E5E74006CDD55006CBD5DC
:1022B000CA68204622F04002CA6084F8413000F02B
:1022C0004FF9C1E7272B000870B5040004D094F83B
:1022D0004100002510B106E0012070BD84F8405097
:1022E000204600F023F8242084F841002068C168CB
:1022F00021F40051C160204600F0A6FC206801696D
:1023000021F4904101612068416921F02A01416175
:102310002068C16841F40051C1606564202084F8E0
:10232000410084F842006563002070BDF0B585B0BF
:1023300000240094019402940394054603684D48D8
:10234000DFF82CC1022103224B4E0715634538D11B
:10235000836943F480438361836903F48043049376
:10236000836943F0040383618069039200F00400F1
:1023700004900802CDE9000169463046FEF770FF7F
:10238000CDE90074694630460294FEF769FF3C4E81
:102390003A48C6E900048020C6E90240346174610D
:1023A000B4613046F461FEF7E3FE08B1FEF748FB86
:1023B000EE630022114625207562FFF7B3F8252051
:1023C00028E0304DAB4229D1C36943F40033C361E7
:1023D000C36903F400330493836943F00403836106
:1023E0008069039200F0040004900420CDE900010C
:1023F00069463046FEF734FF0820CDE900046946FF
:1024000030460294FEF72CFF002211462620FFF7EB
:1024100089F82620FFF778F805B0F0BD1A4DAB42D9
:10242000FAD1C36943F48023C361C36903F48023F1
:102430000493836943F0080383618069CDE90071E7
:1024400000F00800CDE90320104D69462846FEF74C
:1024500007FFE814CDE90004694628460294FEF718
:10246000FFFE002211462720FFF75CF82720D1E766
:1024700000380140001002400008014058000240AE
:10248000A40200200044004000480040000C01402D
:1024900010B5084C0168012200230748A14201D170
:1024A000027000E00370054CA14201D1427010BDE2
:1024B000437010BD00380140180000200048004063
:1024C0002DE9F843044690F84100984616460D461B
:1024D000202802D00220BDE8F88385B17EB100201B
:1024E0006064212084F84100FEF7B0FFA684814695
:1024F000E684A0682027B0F5805F02D003E00120C9
:10250000E9E7206910B12E4600250EE000260CE018
:102510008021204600F0F4FBA8B9C6B116F8010BE3
:1025200021684860E08C401EE084E08C4B464FF010
:102530000002CDF800800028EAD14FF0400120468B
:1025400000F0DEFB40B184F841700320C3E735F8AA
:10255000020BC0F30800E3E784F841700020BAE7FB
:102560007047000010B5074C07A0216800F034F850
:1025700008A0616800F030F8A168BDE8104008A02C
:1025800000F02AB8000000204E756D5F642E766161
:102590006C0000004E756D5F782E76616C00000057
:1025A0004E756D5F492E76616C00000010B50446D3
:1025B0000846FDF7CAFF21460246BDE8104001A0CB
:1025C00000F0ECBB6164642025732E69642C302C10
:1025D0002564FFFFFF0000000A46014601A000F04D
:1025E000DDBB000025733D2564FFFFFF00000000F8
:1025F000FEE7000070B50D4614461C49FEF722FAAE
:102600001A492846091DFEF71DFA184920460831C7
:10261000FEF718FA154918460C31FEF713FA4FF079
:10262000FF342346042211491148FFF749FF0F499F
:1026300023460422091D0E48FFF742FF0B4923469B
:10264000042208310A48FFF73BFF084923460422C9
:102650000C310748FFF734FF2346BDE870400349BB
:10266000042208390248FFF72BBF00002400002095
:10267000140200202DE9F0418846044601690068F3
:10268000FDF774FD606007466169FDF76FFD014667
:102690003846FDF7F5FDE060A56806462946404648
:1026A000FDF7B6FD3146FDF7B9FD2946FDF75EFDA4
:1026B0000546A06031464FF07E50FDF7A9FD394632
:1026C000FDF7ACFD20602846BDE8F081044B0360B7
:1026D000002343608360C360C0E9041270470000B8
:1026E0000AD7A33C3EB500241048009401940294FC
:1026F0000D498460016004730475012505614FF480
:1027000060214460C161FEF7BFFA08B1FEF798F995
:10271000CDE90045694605480294FEF733FA0028E2
:1027200001D0FEF78DF93EBD00240140B800002025
:102730000D4808B5416941F001014161406900223D
:1027400000F00100009011460B20FEF7EBFE0B207D
:10275000FEF7DAFE002211460F20FEF7E3FEBDE889
:1027600008400F20FEF7D0BE001002402DE9F043D4
:1027700085B000253448009501950295039581693F
:1027800041F010018161816901F0100104918169BA
:1027900041F020018161816901F02001049181698A
:1027A00041F004018161816901F0040104918169B2
:1027B00041F0080181618069012200F00800234F87
:1027C0005403049021463846FEF73AFEDFF8808035
:1027D000002250214046FEF733FEDFF878900122B8
:1027E00003214846FEF72CFE009401240226CDE981
:1027F0000246694638460194FEF732FD50208DE8C6
:1028000051000326694640460396FEF729FDCDE9AF
:102810000064CDE9024669464846FEF721FDE00323
:10282000CDE90005694602944046FEF719FD4FF4D4
:102830007E70CDE90005694602944846FEF710FD1A
:1028400005B0BDE8F0830000001002400010014018
:1028500000080140000C0140104810B50E4901600D
:102860004FF48271416000218160C1604FF40072B9
:102870000161C0E905120822C0E9072141628162B5
:102880000A21C162FFF7B4F9002803D0BDE8104067
:10289000FEF7D6B810BD0000003001402C0100202A
:1028A00010B586B000241748009401940294039454
:1028B00004944FF080410594016041F61F41C0E946
:1028C00001141321C0E9031480218161FFF762FA2A
:1028D00008B1FEF7B5F84FF48050009069460948FA
:1028E000FFF7A2FA08B1FEF7ABF8049404A9054873
:1028F0000594FFF71BFA002801D0FEF7A1F806B0F7
:1029000010BD0000840100200C4810B50A49016088
:102910004FF416514160002181600C22C160C0E972
:1029200004128161C161FFF7CFFC002803D0BDE82C
:102930001040FEF785B810BD00380140CC010020E2
:102940000C4810B50A4901604FF4E13141600021A3
:1029500081600C22C160C0E904128161C161FFF78E
:10296000B3FC002803D0BDE81040FEF769B810BDE5
:1029700000440040140200200C4810B50A490160D0
:102980004FF4E1314160002181600C22C160C0E957
:1029900004128161C161FFF797FC002803D0BDE8F4
:1029A0001040FEF74DB810BD004800405C0200200A
:1029B000FEE7FEE770477047FEF74EBD30B593B0B7
:1029C00028216846FDF7C7FB14210AA8FDF7C3FBC1
:1029D000002501200F9510951195010412958DE8A1
:1029E000230004904FF4E010CDE90810022407946E
:1029F0006846FEF76DFF08B172B6FEE70AA90F2020
:102A000081E831004FF48060CDE90D0502210AA86C
:102A1000FEF782FE08B172B6FEE74FF40040119057
:102A20000F940FA8FEF702FE002801D072B6FEE751
:102A300013B030BD704700000148FFF764BA0000D2
:102A400084010020F0B50268194B1A4C1A4D4FF062
:102A50008047984205D0B84203D0A04201D0A84296
:102A600003D122F070064A683243984205D0B8423A
:102A700003D0A04201D0A84203D122F44074CA6816
:102A800022434C6922F08002224302608A68C262BB
:102A90000A688262984201D109690163012141619A
:102AA0000169C90703D0016921F001010161F0BD8D
:102AB000002C0140000400400008004010B584686C
:102AC00042EA032224F47F440A432243826010BD79
:102AD000826822F070020A4342F007018160704769
:102AE00010B5036A046A24F001040462846924F0C6
:102AF000F00444EA021423F00A020A4384610262E9
:102B000010BD10B5036A046A24F0100404628469DD
:102B100023F0A00324F4704444EA023243EA011192
:102B20008261016210BD10B5406A0021C185C18477
:102B3000FFF792FA10BD01680C3151E8002F22F422
:102B4000907241E80023002BF5D10168143151E85F
:102B5000002F22F0010241E80023002BF5D1016B88
:102B6000012909D101680C3151E8002F22F010022F
:102B700041E80023002BF5D1202180F842100021EC
:102B80000163704708B590F84210222901D0022055
:102B900008BD82684FF480539A4201D1016921B186
:102BA000816A9A421BD04AB10AE00268816A52687F
:102BB000C2F308020A80816A891C08E0026972B1C6
:102BC0000268526802F07F020A70816A491C8162C1
:102BD000C18D491E0904090CC18503D01BE00268A0
:102BE0005268F1E70168CA6822F02002CA600168F1
:102BF000CA6822F48072CA6001684A6922F0010240
:102C00004A61202180F8421000214163026B012AB1
:102C100003D0FFF73DFC002008BD016301680C31C3
:102C200051E8002F22F0100241E80023002BF5D1DB
:102C300001680A68D20602D50A6849680091818D48
:102C4000FFF709FAE7E7000070B50446006801697C
:102C5000E26821F44051114301612169A0680843F1
:102C6000616908432168CA6841F20C639A430243D0
:102C7000CA6020684169A26921F440711143416131
:102C80001E492068884202D1FEF7ECFD01E0FEF704
:102C9000D9FD00EBC00101EB0012606864218000E7
:102CA000B2FBF0F3B3FBF1F36FF018067343B2FB22
:102CB000F0F5B2FBF0F605EB8305322303EB0515C7
:102CC000B5FBF1F5B6FBF1F605F0F00505EB0615E1
:102CD000B2FBF0F6B2FBF0F0B0FBF1F06FF01802CF
:102CE000504306EB800003EB0010B0FBF1F02168CD
:102CF00000F00F002844886070BD000000380140DB
:102D00002DE9F843984617460D460446089E24E0F0
:102D1000701C22D0FEF79AFBA0EB0800B0421AD834
:102D2000CEB12068C168490717D5802D15D0402D38
:102D300013D00168C94309070FD401680025406812
:102D400000902046FFF7F7FE0820606484F84050AA
:102D50000120BDE8F8830320FBE72068006835EA1E
:102D6000000004D00020B842D2D00020F1E70120BA
:102D7000F9E700000148FFF771B90000CC0100201D
:102D80000148FFF76BB90000140200200148FFF76B
:102D900065B900005C020020FEE700000FB4054B9F
:102DA00010B503A9044A029800F028F810BC5DF899
:102DB00014FB0000B52F00087C0000200907090E55
:102DC000002804DB00F1E02080F80014704700F0D8
:102DD0000F0000F1E02080F8141D704702E008C8E1
:102DE000121F08C1002AFAD170477047002001E085
:102DF00001C1121F002AFBD1704700002DE9FF4FCF
:102E00008BB09A460F460546002606E025280BD0D3
:102E100052460D9990476D1C761C28780028F5D1F4
:102E20000FB03046BDE8F08F0024A0460122604973
:102E300000E0044315F8013F203B02FA03F008428A
:102E4000F7D128782E2817D115F8010F44F0040483
:102E50002A280ED06FF02F022878A0F1300109291E
:102E60000AD808EB880102EB410100EB01086D1C58
:102E7000F2E757F8048B6D1C287869283ED006DCF1
:102E80000028CDD063280BD0642804D136E0732805
:102E900010D075284BD052460D999047761C85E08E
:102EA00017F8040B8DF8000000208DF80100E946AA
:102EB000012003E057F8049B4FF0FF3061074FF00B
:102EC000000401D40AE0641C44450DDA8442FADBB4
:102ED00019F804100029F6D106E0641C8442FCDBDA
:102EE00019F804100029F8D1264404E019F8010B60
:102EF00052460D999047641EF8D257E001CF4FF02B
:102F00000A0B002802DA40422D2102E0210504D5F7
:102F10002B218DF82410012103E0E10705D02021A9
:102F2000F7E70DF1200908910CE00021F9E701CF46
:102F30004FF00A0BF9E75946FDF76EFB01F130023D
:102F400009F8012D0028F6D1ADEB090000F1200BA6
:102F5000600701D44FF00108D84502DDA8EB0B0053
:102F600000E000208046002406E009A85246005DEB
:102F70000D999047641C761C08988442F5DB04E0A8
:102F8000302052460D999047761CB8F10001A8F107
:102F90000108F5DC05E019F8010B52460D99904740
:102FA000761CBBF10001ABF1010BF4DC6D1C34E7C6
:102FB0000928010038B504468DF8000002230122DB
:102FC00069460248FFF77CFA204638BDCC01002054
:102FD000FEF74AFAFFF7F2FCFFF7C8FBFFF7A8FB82
:102FE000FFF792FCFFF7ACFCFFF7C6FCFFF77AFB9C
:102FF000FFF732FCFFF754FC1C4A1D491D48FFF740
:1030000065FB1C4864212038FDF786FC194C4FF005
:103010007E50203C184E194D194F2061154820381C
:10302000FDF792FC31466068FDF7F8F8FDF7A6FA67
:1030300080B2A8603146E068FDF7F0F8FDF79EFA2F
:1030400080B26860FFF78EFAA868FDF770FA014653
:103050000CA0FFF7ABFA3878FDF772FA0346D4E913
:103060000001E268FFF7C6FAD8E700000AD7233C60
:1030700017B7D138A000002000007A4400000020DB
:1030800064000020766F6661000000000102020308
:103090000405060708090A0B0C0D0E0F101001029B
:1030A00002030405060708090A0B0C0D0E0F101089
:1030B00000000000000000000102030406070809E8
:1030C0000000000001020304E830000800000020B6
:1030D00080000000DC2D000868310008800000201E
:1030E000F8070000EC2D00080A0000003200000084
:1030F0001E000000000000000000000000000000B2
:10310000000000000000807F0000000000000000C0
:1031100000000000000000000000000000000000AF
:10312000000000000000000000000000000000009F
:10313000000000000000000000000000000000008F
:10314000000000000000000000000000000000007F
:10315000000000000100000010000000000000005E
:0831600000127A0000000000DB
:04000005080000ED02
:00000001FF
