:020000040800F2
:10000000C80800200501000847390008E534000849
:10001000453900088D110008453E00080000000029
:100020000000000000000000000000004B39000844
:10003000DF1200080000000049390008253A0008D6
:100040001F0100081F0100081F0100081F01000810
:100050001F0100081F0100081F0100081F01000800
:100060001F0100081F0100081F010008A912000855
:100070001F0100081F0100081F0100081F010008E0
:100080001F0100081F0100081F0100081F010008D0
:100090001F0100081F0100081F0100081F010008C0
:1000A0001F0100081F0100081F0100081F010008B0
:1000B000A53A0008B13A00081F0100081F01000816
:1000C0001F0100081F0100081F0100081F01000890
:1000D0001F010008213E00082D3E0008393E00089F
:1000E0001F0100081F0100081F010008DFF810D0E1
:1000F00000F01CFD0048004769470008AFF300808E
:10010000C80800200648804706480047FEE7FEE78B
:10011000FEE7FEE7FEE7FEE7FEE7FEE7FEE7FEE7B7
:10012000A13A0008ED000008202A04DB203A21FA59
:1001300002F00021704721FA02F3D040C2F1200200
:100140009140084319467047D2B201E000F8012BF4
:10015000491EFBD270470022F6E710B513460A4647
:1001600004461946FFF7F0FF204610BD0FB400B556
:100170008DB010A909900B9000914FF0FF300A90BC
:1001800000200C9005480690054807906A4609A88B
:100190000F9900F0D9FB0DB05DF814FB650900085C
:1001A000830900082DE9FF5F1D464FF0FF3BD5E9AD
:1001B000014691465F464FF00008A9697F1C0198EF
:1001C0008847296A824688470028F6D1BAF1FF3F5E
:1001D0000CD024F4C064002E19DD600614D5BAF1E9
:1001E0002B0F09D0BAF12D0F0ED103E0584604B001
:1001F000BDE8F09F44F48064A9697F1C019888479A
:10020000761E8246002E02DDBAF1300F03D0B9F11E
:10021000000F26D032E0A969761E44F400747F1CDA
:10022000019888478246002E05DDBAF1780F06D086
:10023000BAF1580F03D0B9F1000F10D01EE0B9F198
:10024000000F02D0B9F1100F18D1A969761E24F45D
:1002500000747F1C019888478246102002E0082025
:1002600000E00A20814609E008FB0908A969761E1A
:1002700044F400747F1C019888478246002E05DDF7
:100280004946504600F04CFB0028EDDAE969019838
:100290008847A00502D46FF00100A8E7E00725D148
:1002A000600613D5600502D5C8F1000000E04046A5
:1002B00029680A1D2A600968220501D5087015E021
:1002C000220701D5088011E008600FE02868011DB1
:1002D00029600068210502D580F8008006E021072A
:1002E00002D5A0F8008001E0C0F8008038467EE723
:1002F000F0B480EA0102D40F4200B2EB410F02D207
:100300000246084611464A0042D0C30DDDB2C1F391
:10031000C752AD1A202D35DAC1F3160141F400029F
:1003200004B15242C5F1200602FA06F12A411044F6
:10033000B3EBD05F23D0C4B1012DA0EBC35009DCD7
:10034000F0BC4FF0004202EAC352DBB200F50000FD
:1003500000F031BB400000F1807000EBC350A0F111
:10036000807040EAD170490009E0490841EAC07153
:10037000A0EBC35000F50000400800EBC350F0BCF8
:1003800000F010BB6142012202EB4101001BF6E7C5
:10039000F0BC704781F00041AAE780F00040A7E779
:1003A00080EA010210B502F00043400022D04A006A
:1003B0001FD0010E01EB1261C0F35600C2F35602CA
:1003C00040F4000042F40002A0FB022000047F3948
:1003D000140400D0401C50EA124001D44000491ED1
:1003E000C2B20C0604EBD010401C4008802A02D098
:1003F00003E0002010BD20F00100002900DA0020F9
:10040000184310BD30B480EA010202F0004530F01C
:10041000004221F0004013D090B1C30DD40DC2F3BF
:100420001601C0F31600E41A41F4000140F4000282
:100430007D34914201D3641C00E04900002C02DAB3
:1004400030BC002070474FF400000023914201D3DC
:10045000891A034340084FEA4101F7D151B1914253
:1004600002D14FF0004105E002D24FF0010101E05E
:100470006FF0010103EBC450284430BC00F092BA85
:100480002DE9FE4F804681EA0300C00F0C46009024
:1004900021F0004123F00045B8EB0200A94105D24C
:1004A0004046214690461C460B46024623F000403B
:1004B000104347D0270DC7F30A00C3F30A51029037
:1004C000401A019040286BDAC3F3130040F4801BFC
:1004D0000098924620B10023D2EB030A63EB0B0B8A
:1004E00001985946C0F14002504600F0F8F906461E
:1004F0000D4650465946019A00F000FA10EB0800EC
:100500006141002487EA115284EAE7731A4340D01C
:10051000009A62B3019A012A4FEA075215DC001BC8
:1005200061EB02014FF0004202EA0752CDE90042BE
:10053000001C41F5801132462B4600F079FA03B0D9
:10054000BDE8F08F40462146F9E7001B61EB020150
:10055000001C41F5801300185B412018A2F500171C
:1005600047EB030140EAD570B6196D4111E06D0803
:100570004FEA360645EAC0754FEA0752001B61EBA9
:100580000201001C41F5801149084FEA30000019B2
:10059000514132462B4603B0BDE8F04F00F039BA66
:1005A0000098012240000023D0EB020263EBE073CD
:1005B000009821464FEAE074B8EB000061EB0401BB
:1005C000E9E783F000435BE781F0004158E72DE95C
:1005D000FE4F81EA030404F0004421F0004100943E
:1005E0004FF0000B23F0004350EA01045ED052EAC2
:1005F00003045BD0C3F30A54C1F30A552C44A4F29C
:10060000F3340194A0FB0254C1F3130141F48011AF
:10061000C3F3130343F4801301FB024400FB034EB6
:10062000840A970A44EA815447EA8357A4FB07687F
:1006300002958D0A05FB07854FEA932C04FB0C54A9
:100640002705029D4FEA065847EA1637B5EB08051D
:100650006EEB070C870E920E47EA811742EA83126F
:10066000A7FB0201B6EB0B0164EB00042B0D43EA80
:100670000C335E1844EB1C50DA465146E7FB02018E
:10068000C5F313044FEA0B3343EA14534FEA043221
:10069000019C43EA0603A4F10C040294009CCDE9FA
:1006A00000B400F0C5F903B0BDE8F08F00200146AA
:1006B000F9E72DE9F04D81EA030404F0004B21F045
:1006C000004514464FF0000A23F0004150EA0502AD
:1006D00020D054EA01021DD0C5F30A570246C5F3E3
:1006E0001303C1F31300C1F30A5640F4801543F419
:1006F0008013A7EB0608101BD64608F2FD3873EBF3
:10070000050002D308F1010801E092185B41B8F13D
:10071000000F03DA00200146BDE8F08D00204FF401
:100720008011064684460EE0171B73EB050705D3C0
:10073000121B63EB050306434CEA010C49084FEA20
:10074000300092185B4150EA0107EDD152EA0300F4
:1007500012D082EA040083EA0501084305D0101B89
:10076000AB4106D20122002306E000224FF00043F5
:1007700002E06FF0010253101AEB06004CEB085137
:1007800010EB0A0041EB0B01BDE8F04D00F041B960
:10079000C10F80EAE0700844CA079623002100F0E8
:1007A0000AB996230022114600F005B900F0004274
:1007B00020F00040C10DC0F3160040F400007F2976
:1007C00001DA00207047962903DCC1F19601C84088
:1007D00001E096398840002AF4D04042704700F08A
:1007E000004230F000400AD0C10D01F56071C0F345
:1007F000160042EA0151C208400711437047002029
:100800000146704701F0004330B421F0004150EA46
:10081000010206D00A0DA2F56072C1F31301002A8D
:1008200002DC30BC00207047440F44EAC104C10020
:10083000E01830BC00EBC25000F0B4B8002801DB77
:10084000C0F10040002901DBC1F10041884270473E
:1008500030B50B46014600202022012409E021FA90
:1008600002F59D4205D303FA02F5491B04FA02F58D
:100870002844151EA2F10102F1DC30BD2DE9F05F24
:100880000546002092469B468846064681464024FF
:100890001BE02846414647462246FFF745FC5346A3
:1008A0005A46C01A914110D311461846224600F00C
:1008B00016F82D1A67EB01084F4622460120002149
:1008C00000F00DF817EB00094E41201EA4F10104C1
:1008D000DFDC484631462A464346BDE8F09F202AE1
:1008E00004DB203A00FA02F1002070479140C2F187
:1008F000200320FA03F3194390407047202A06DBB7
:10090000CB17203A41FA02F043EAE07306E041FADD
:1009100002F3D040C2F120029140084319467047CB
:100920003A2800D2303820F02002412A01D3A2F127
:100930003700884201D34FF0FF30704702681144FE
:100940001378016018467047D16004495161044929
:10095000116200211161114600F000B93D09000843
:10096000510B0008426842B1016811F8013B23B104
:10097000521EC0E90012184670470121C160881E4E
:10098000704742685AB1C368016843B983688B42B3
:1009900005D0491E521CC0E90012002070474FF0DC
:1009A000FF3070470029A8BF7047401C490008BFAE
:1009B00020F00100704710B4B0FA80FC00FA0CF08F
:1009C00050EA010404BF10BC704749B1CCF12004C7
:1009D00021FA04F411FA0CF118BF01212143084354
:1009E000A3EB0C01CB1D4FEA00614FEA102042BF80
:1009F000002010BC704700EBC35010440029A4BF76
:100A000010BC7047401C490008BF20F0010010BC1A
:100A1000704710B5141E73F1000408DA401C41F150
:100A2000000192185B411A4301D120F0010010BD72
:100A30002DE9F04D92469B4611B1B1FA81F202E0E8
:100A4000B0FA80F220329046FFF749FF04460F4685
:100A500040EA0A0041EA0B0153465A46084313D0C4
:100A6000114653EA010019D0C8F140025046FFF781
:100A70005BFB05460E46504659464246FFF72FFFA0
:100A8000084305D0012004E020463946BDE8F08D3A
:100A90000020054346EAE0762C4337430A98630575
:100AA000E40AA0EB08000022FD0A44EA47540A3099
:100AB00002D500200146E9E7010510196941DDE989
:100AC000084500196941BDE8F04DA2E7C1F30A529B
:100AD000C1F3130140F2FF3341F480119A4202DA6C
:100AE00000200146704740F233439A42A2F233425B
:100AF00002DC5242FFF718BBFFF7F1BE30B5041E0F
:100B000071F1000404DB4FF00044404264EB01014A
:100B1000141E73F1000405DB1C464FF000435242E3
:100B200063EB0403994208BF904230BD064C074D69
:100B300006E0E06840F0010394E8070098471034AD
:100B4000AC42F6D3FFF7D6FA8C4A0008AC4A00084C
:100B5000C0B24FF4F05100F099B900002DE9F34F05
:100B60008BB04FF0000801F10C000C464FF0010B68
:100B700046460DF1080A01906269012101989047EB
:100B8000051E2DD0252D2CD0216A8847C0B1626961
:100B9000012101989047216A88470028F7D1411E1A
:100BA00062690198904700E0761CA1690B9888471C
:100BB000216A88470028F7D1E1690B988847DBE76D
:100BC000A1690B9888470746A84201D1761CD3E754
:100BD000E1690B9888477F1C02D1B8F1000F6FD0F4
:100BE00047E1002762693D463946019890472A2827
:100BF00004D162690121019890470125DFF88892AC
:100C00006269012101989047A0F130010A290AD2B6
:100C10004F45E5DC07EB870100EB4107303FDFD4B0
:100C200045F01005ECE7E90601D46FF000476C28A9
:100C30000AD04C2814D0682815D06A280DD0742802
:100C40001CD07A281AD01DE06269012101989047D2
:100C50006C2802D045F0040514E045F002050DE0D3
:100C600045F020050AE06269012101989047682853
:100C700002D045F0080505E045F4006562690121F0
:100C800001989047C4E9015765283DD019DC5828E0
:100C90007AD00CDC452837D004DC252826D0412822
:100CA00031D131E046282FD047282CD12CE05B28C9
:100CB00077D0612828D063287CD0642823D15AE0DB
:100CC000D1E06F2848D008DC66281DD067281BD0EB
:100CD000692821D06E2816D127E0702845D07328C6
:100CE00068D0752847D078280DD14DE0A1690B98C0
:100CF0008847054625283FF469AFE1690B98884786
:100D00006D1C3FF46AAFB4E023466A466FF0010001
:100D10000B99AFF300809FE045F040006060A807AA
:100D200023464FF0000236D43EE0E8077FF447AF99
:100D30002068011D21600068290501D506701BE7A8
:100D4000290701D5068017E7A90703D5F117C0E9E0
:100D5000006111E706600FE745F040006060A807FA
:100D600023464FF0080216D41EE040F60E0125EA95
:100D70000100606016E045F040006060A80723466F
:100D80004FF00A0207D40FE045F040006060A8076A
:100D900008D5234610226FF001000B99AFF30080B5
:100DA0005AE007E0234610226FF001000B99FFF78D
:100DB000F9F951E04FF000094F464B46632802D045
:100DC0005B2807D041E02079C00601D40120A06053
:100DD00001273AE062690121019890475E2805D118
:100DE0004FF001096269494601989047216939B974
:100DF00000210A46534643F82120491C0829FADB02
:100E0000B0B3216969B9C11700EBD16253110AEB84
:100E1000830122F01F02821A01200B6890400343D5
:100E20000B6062690121019890475D28E8D1B9F112
:100E3000000F09D00020514651F82020D24341F83C
:100E40002020401C0828F7DB02AB224600976FF0F9
:100E500001000B99AFF3008000280CDA401C08D188
:100E6000BBF1000F05D04FF0FF300DB0BDE8F08FA3
:100E7000FFE74046F9E7E90701D108F10108064418
:100E80004FF0000B78E60000CCCCCC0C7F2801D9C9
:100E9000002208E0064A02EB5002C007127800D197
:100EA000120902F00F020120904008407047000034
:100EB0004A4A000870B5044600688168C943C907FA
:100EC00017D1816821F00101816001F051F80546D8
:100ED0000AE000BF01F04CF8401B022804D920684A
:100EE0008068C043C00706D020688068C043C00740
:100EF000F0D0002070BDA06A40F01000A062E06A4F
:100F000040F00100E062012070BD10B50146406A6A
:100F1000826A12F0500F05D0006A026BBDE81040E3
:100F200008461047816A41F400718162016889684E
:100F3000C1F3424107290CD1017B51B9816A21F4E7
:100F400080718162816AC90403D4816A41F0010120
:100F5000816200F075FB10BD10B5406A816A41F0F6
:100F600040018162C16A41F00401C16200F06AFB84
:100F700010BD10B5406A00F064FB10BDF8B5002646
:100F80000446009600688168C943C9072DD081686E
:100F900041F001018160164816490068B0FBF1F08C
:100FA00000E0401E00900028FBD100F0E1FF054664
:100FB00016E000BF00F0DCFF401B022810D92068BB
:100FC0008068C043C0070BD0A06A40F01000A06248
:100FD000E06A40F00100E06284F824600120F8BD7E
:100FE00020688068C043C007E4D10020F8BD00003D
:100FF000B800002040420F0070B50446244D254E35
:101000008069012908D002290DD04FF07E520329B2
:1010100013D0042916D01AE0FFF7E1FB2A46334625
:10102000FFF72EFA05E0FFF7DAFB2A463346FFF713
:10103000C8FAFFF7E7FBA06109E01146E069FFF796
:1010400057F903E01146E069FFF7A4F9E061A069F0
:1010500003F078FB104D6880A06903F075FBE88011
:10106000E06903F06FFB6881E06903F06DFBE881E4
:101070000A49A069FFF794F9FFF798FB084D094961
:101080006863E069FFF78CF9FFF790FBA86370BD18
:101090007B14AE47E17A843F0C03002000401C46DD
:1010A0000800002000007A442DE9F04104460F4674
:1010B0002D4800F0DBF94FF4FA6000F09FFD0026A8
:1010C00026616661A6602948266066600078284D22
:1010D000012827D0E988688803F096FCA061E98997
:1010E000688903F091FCE061E98A688A03F08CFC6E
:1010F000C4F82000FFF75AFB1E4D1F49E863C4E9FE
:101100000967E662E660A069FFF74AF9FFF74EFB60
:1011100068631A49E069FFF743F9FFF747FBA863E3
:10112000BDE8F08117491648C4E906011649216255
:1011300003F008FB6880A06903F006FBE880E06923
:1011400003F000FB6881E06903F0FEFAE881206AA1
:1011500003F0F8FA6882206A03F0F6FAE88202F0F7
:1011600043FC206AC6E70000D8000020530000209E
:101170000C0300200800002000401C4600007A44B8
:10118000508F593F924BE04100002042FEE70000A3
:101190002DE9F041044600F059F9014620603A4833
:1011A00002F004FA06466060206AFFF718FB374A2F
:1011B000374BFFF70CFA374A374BFFF708FA074669
:1011C0000D463046FFF70BFB3A462B46FFF771FA08
:1011D000FFF718FB0546A0603049E069FFF712F9F8
:1011E00006462946A069FFF7DBF83146FFF7D2F83B
:1011F000E060B0F5000F01DA0020E060284D68786B
:1012000020B1D4E90301FFF719FB01D2E0682061A6
:101210006F78DFF89080142F10D2E6686868314646
:10122000FFF766F8686028787F1C48F82060401C4B
:101230002870F8B26870142817D918E02F786868F9
:1012400008EB870858F8041CFFF7A4F8E668314655
:10125000FFF74EF8686014207F1CB7FBF0F100FB2D
:10126000117148F8046C29706870C0B200E0142055
:10127000401CFFF796FA01466868FFF7C3F8606103
:101280000120BDE8F0810000C0000020C237D1D9A4
:10129000C1EC92407B14AE47E17A843F00007A446F
:1012A000A400002028040020014800F097BB0000A3
:1012B0000801002030B590F840500124AC40C56BC7
:1012C0006C60046863604368102B036803D0996006
:1012D0000068C26030BD9A600068C16030BD704770
:1012E00072B6FEE730B585B00C46054600F036FD17
:1012F00000200090CDE90105CDE9034072B604A9B4
:10130000684600F08DFC10B903A002F09DFD62B6A6
:1013100000F0DAFC05B030BDE693A6E999A420E61A
:101320008890E58A9F0D0A0006490020C86106489A
:10133000016941F004010161016941F0400101616D
:1013400070470000A804002000200240064A002147
:10135000D16106490A6942F002020A6148610869DE
:1013600040F0400008617047A804002000200240BF
:10137000044B0022DA61044A136943F0010313614C
:1013800001807047A8040020002002401448002279
:10139000C168CB06134904D5CA6942F00202CA618A
:1013A0001022C3685B0705D5CB6943F00103CB610D
:1013B00042F00402C369DB0707D0CB6943F00403A2
:1013C000CB61C16921F00101C161A2F580710139D0
:1013D00001D0C2607047C16921F00101C16170474D
:1013E00000200240A804002070B5054600F0C0FDB2
:1013F0000646114C09E0681C07D025B100F0B8FD85
:10140000801BA84201D9032070BDE068C007F2D15B
:10141000E068800601D52020E060E068C00605D4C1
:10142000E069C00702D1E068400703D5FFF7AEFFCF
:10143000012070BD002070BD002002400870020A2B
:101440004A70020C8A70000EC870704710B50122F5
:101450000449054800F0CCF902480088BDE8104076
:10146000FFF79FB9A6000020D8000020F8B500259E
:101470000446009590F8240001280BD0012084F840
:1014800024002046FFF716FD2046FFF777FD0600F3
:1014900002D050E00220F8BDA06A20F4885040F04D
:1014A0000200A062022000F001FE25490968B1FB9C
:1014B000F0F0400000E0401E00900028FBD12068C2
:1014C000816841F00801816000F052FD074608E0A4
:1014D00000F04EFDC01B0A2803D920688068000771
:1014E00015D4206880680007F2D42068816841F034
:1014F0000401816000F03CFD074612E000F038FD79
:10150000C01B0A280DD920688068400709D5A06A49
:1015100020F0020040F01000A06284F82450012066
:10152000F8BD206880684007E8D4A06A20F0020077
:1015300040F00100A06284F824503046F8BD00005D
:10154000B8000020F8B50024009490F82420254627
:10155000012A12D0012280F824204A681F23072A7A
:101560000DD20668776B521E02EB820293409F43B6
:101570000B6893401F43776319E00220F8BD0668AB
:101580000D2A0AD2376BD21F02EB820293409F438F
:101590000B6893401F43376309E0F76A0D3A02EB8B
:1015A000820293409F430B6893401F43F7620A688F
:1015B000072306680A2A0AD3F7680A3A02EB4202AE
:1015C00093409F438B6893401F43F76008E037695F
:1015D00002EB420293409F438B6893401F43376165
:1015E0000A68102A01D0112A20D1124B02689A42AF
:1015F00017D193681B0219D4936843F400039360D6
:101600000968102912D10C490C4A0968B1FBF2F1A2
:1016100001EB8101490000E0491E00910029FBD146
:1016200004E0816A41F020018162012480F82450A5
:101630002046F8BD00240140B800002040420F00C1
:1016400070477047704700002DE9F0414FF00007E8
:1016500004003D467ED0A06A002628B9E66284F8E0
:101660002460204600F07EF82046FFF723FCA16AA4
:10167000C90600D420B1A06A40F01000A06269E061
:10168000A16A21F4885141F00201A1626268E16916
:10169000237B0A4347EA43010A43A1684FF480775A
:1016A000B94209D0012907D05FF0000194F814C0B5
:1016B000BCF1010F02D00AE03946F7E7F3B1A36AA3
:1016C00043F02003A362E36A43F00103E36223686B
:1016D000D3F804C02CF4694C4CEA010CC3F804C0E4
:1016E00021688B68DFF870C003EA0C0313438B603A
:1016F000A168B9420BD0012909D00CE0DFF85CC029
:10170000A3690CEB43330B4343F40061DFE7218A09
:101710000D05A5F580152168CB6A23F470032B43D2
:10172000CB62216889680E4B1940914208D1E6626C
:10173000A16A21F0020141F00101A162BDE8F0813E
:10174000A06A20F0020040F01000A062E06A40F0C1
:101750000100E0620120F1E7FDF7E1FF00E0FFFF9B
:10176000FE0E1FFF70B586B0002506460095019558
:10177000029503950068194988422DD11849886956
:1017800040F400708861886900F4007004908869F2
:1017900040F0040088618869694600F00400049004
:1017A00001200090032001900E4800F0EBFA0F4C4E
:1017B0000D48C4E900058020C4E9025040002061C2
:1017C0008000C4E905052046E56100F0B1F908B1E3
:1017D000FFF786FD3462666206B070BD00240140EA
:1017E00000100240000801400800024008010020EB
:1017F0002DE9F047894604463B4900683B4F0E1DE2
:101800009046884201D0B84207D1306810F4702F5A
:1018100003D001252846BDE8F08794F8240001286C
:101820000CD0012084F824002046FFF7A7FB050018
:101830004FF0000004D084F82400EBE70220EAE730
:10184000A16A40F60162914341F48071A16221686E
:10185000B94218D1326812F4702F14D0A16A41F441
:101860008011A1623168490505D5A16A21F40051B2
:1018700041F48051A162A16AC9040AD5E16A21F04C
:101880000601E16206E0A26A22F48012A2624968BF
:10189000E9E7E06284F82400216A15488862216A39
:1018A0001448C862216A1448086321686FF0020076
:1018B00008602068816841F4807181602168434636
:1018C0004A464C31206A00F061F920688168C1F312
:1018D00042410729816803D041F48011816099E772
:1018E00041F4A001FAE70000002401400028014073
:1018F0000B0F0008730F0008590F000810B590F87F
:1019000021100022022905D00421816380F82020C3
:10191000012010BD01680B6823F00E030B60016805
:101920000B6823F001030B6090F84030C46B012179
:1019300001FA03F3636080F8211080F8202010463C
:1019400010BD000010B590F821100024022903D02A
:101950000421816301243DE001680A6822F00E023F
:101960000A6001680A6822F001020A601A4A0168E6
:10197000914201D1012121E0174A1432914201D153
:1019800010211BE0144A2832914201D1891515E03B
:10199000114A3C32914201D189140FE00E4A503273
:1019A000914202D14FF4803108E00B4A64329142F7
:1019B00002D14FF4801101E04FF08071064A083ADD
:1019C0005160012180F82110002180F82010416B26
:1019D00001B18847204610BD080002402DE9F05FA4
:1019E000C16B0C6801680B68D0F840C0042202FA91
:1019F0000CF2494DDFF824A1494E4A4FDFF828B1D7
:101A0000DFF828E122422CD05A072AD50A6892062C
:101A100003D40A6822F004020A600168A94201D1D5
:101A2000042219E0514501D1402215E0B14202D112
:101A30004FF4806210E0B94202D14FF480420BE0D3
:101A4000594502D14FF4802206E0714502D14FF48E
:101A5000800201E04FF080622F4908394A60C16A74
:101A60003BE04FF0020808FA0CF818EA040F4FF0B8
:101A700000094FF0010235D05FEA837832D50B6858
:101A80009B0605D40B6823F00A030B6080F8212025
:101A90000168A94201D1022219E0514501D1202259
:101AA00015E0B14202D14FF4007210E0B94202D108
:101AB0004FF400520BE0594502D14FF4003206E0DA
:101AC000714502D14FF4001201E04FF0007212494B
:101AD00008394A6080F82090816A00291AD0BDE850
:101AE000F05F0847082505FA0CF5254212D01B07C0
:101AF00010D50B6823F00E030B6090F84010C36BF9
:101B000002FA01F15960826380F8212080F8209068
:101B1000016BE2E7BDE8F09F080002401C000240B4
:101B20003000024044000240580002406C00024075
:101B300030B528B308C8134914221944B1FBF2F197
:101B40008900C16310498163022141771A6843F615
:101B5000F0718A43D0E900142143D0E902452C43B7
:101B6000214304692143446921438469214311438A
:101B7000196000214163012242770177084630BD98
:101B8000012030BDF8FFFDBF0000024070B50446E3
:101B900090F82000002501280CD0012084F82000B6
:101BA00094F821600020012E06D084F82000022540
:101BB000284670BD022070BD022684F82160A06313
:101BC0002068066826F0010606602046FFF772FBD3
:101BD000E06A00282068016802D041F00E0106E0AA
:101BE00021F0040101602068016841F00A010160F0
:101BF0002068016841F001010160D9E770B5044631
:101C000000F0B6F90546601C02D004480078044490
:101C100000F0AEF9401BA042FAD370BDAC0000202A
:101C20002DE9F047054626480F460126017E012989
:101C30000FD00121814601762868DFF888804CF2B8
:101C40005034022808D0A2462046FFF7CDFBA8B1A9
:101C500031E00220BDE8F0872046FFF7C5FB08BB56
:101C60000120FFF761FB2046FFF7BEFBD8F81010FC
:101C7000064621F00401C8F810101CE04FF0FF30B8
:101C80003860AC6811E02046FFF760FB5046FFF774
:101C9000ABFBD8F81010060021F00201C8F81010B4
:101CA00001D03C6007E004F58064D5E9020100EB57
:101CB0008120A042E7D8002189F818103046C9E7F2
:101CC000A8040020002002400348016941F080017F
:101CD0000161002070470000002002402DE9F05F04
:101CE00007461C4888460024017E15461E460129E9
:101CF00009D00121814601764CF2503A5046FFF757
:101D000073FB18B122E00220BDE8F09F012F02D042
:101D1000022F00D00427D346DFF83CA0220128463A
:101D20003146FEF701FA81B208EB4400FFF720FBD1
:101D30005846FFF759FBDAF8102022F00102CAF8E2
:101D4000102018B9641CE4B2BC42E7D3002289F821
:101D50001820D9E7A80400200020024006490020EE
:101D60000A69120607D5054A4A60054A4A600969A8
:101D7000090600D501207047002002402301674575
:101D8000AB89EFCD2DE9F84FDFF8B8910024A9F128
:101D9000040B23460F2709F1040AABF1040EC9E036
:101DA0000125A5402A40AA427DD1674ED1F804C042
:101DB000ACEB0608B44532D014DCBCF1030F3AD0CA
:101DC00009DCBCF1000F2AD0BCF1010F1CD0BCF122
:101DD000020F31D11DE0BCF1110F17D0BCF1120F71
:101DE0002AD119E0B8F5881F19D006DCB8F5803F74
:101DF00015D0B8F5801F1FD111E0B8F5001F0ED027
:101E0000B8F5041F18D10AE0CB6815E0CB681B1D9C
:101E100012E0CB6808330FE0CB680C330CE08B6822
:101E20002BB1012B4FF0080303D0456104E00423DC
:101E300002E0056100E00023FF2A01D8064601E028
:101E400000F104064FEA840501D9A5F12005D6F872
:101E5000008007FA05FC28EA0C0803FA05F548EAB1
:101E60000508C6F800804D68ED0062D5374DAE69B3
:101E700046F00106AE61AD6924F0030605F00105E8
:101E80000095334D06EB050CDCF80850A607360F1D
:101E900007FA06F825EA0805DFF8B880404503D1BF
:101EA0004FF0000817E044E0DFF8AC80404502D175
:101EB0004FF001080FE0DFF8A480404502D14FF059
:101EC000020808E0DFF89880404502D14FF003088F
:101ED00001E04FF0040808FA06F848EA0508CCF8D3
:101EE00008804D68D9F80060ED024D4601D51643D3
:101EF00000E096432E604D68DAF80060AD0255466A
:101F000001D5164300E096432E604D68DBF8006073
:101F1000AD035D4601D5164300E096432E604D6843
:101F2000DEF80060ED03754601D5164300E09643E8
:101F30002E60641C0D682A46E5407FF431AFBDE891
:101F4000F88F00000804014000001110001002404A
:101F50000000014000080140000C01400010014059
:101F6000001401400AB1016170470904FBE7000059
:101F70000148806870470000AC000020024881687A
:101F80000278114481607047AC000020074810B50A
:101F9000016841F010010160032000F075F80F2086
:101FA00000F006F800F024F8002010BD00200240E8
:101FB00070B50D4D04464FF47A712878B1FBF0F0FE
:101FC0000A490968B1FBF0F000F02CFC48B9102C6C
:101FD00007D200222146501E00F036F800206C6027
:101FE00070BD012070BD0000AC000020B8000020D2
:101FF0000C4808B5816941F001018161816901F0F6
:1020000001010091C16941F08051C161C06900F0D6
:10201000805000900448416821F0E06141F0007177
:10202000416008BD0010024000000140002809DBAB
:1020300000F01F02012191404009800000F1E020E2
:10204000C0F8001170470000F0B40E4B1B680C463E
:10205000C3F30223C3F10705042D00D90425191D7C
:10206000072901D2002300E0DB1E012606FA05F154
:10207000491E214099409E40761E16403143F0BCD7
:1020800001F0F2BE0CED00E0064900F0070208681E
:102090004FF6FF03184040EA0220034A104308604D
:1020A000704700000CED00E00000FA0510B5014695
:1020B0000020234C012922D0022939D010291DD11A
:1020C00061682268D20119D51E48C1F38342C90351
:1020D000805C0AD561681B4AC1F34041921E515C85
:1020E000194AB2FBF1F1484301E0184948436168DD
:1020F000490203D440000321B0FBF1F010BD226A75
:10210000C2F30121012903D1920701D5C80310BDF3
:10211000022905D1626A920702D549F6404010BDF6
:102120000329FCD121688903F9D54FF2244010BD61
:1021300000F02AF96168C1F38131491C4900DBE7ED
:1021400000100240224A000800127A0000093D00F7
:102150002DE9F84305460078354CC00754D0E069B6
:102160000026C00008D4E06940F08050E061E069DA
:10217000012600F0805000902E480168C90512D455
:102180000168804641F480710160FFF7F1FE074667
:1021900005E000BFFFF7ECFEC01B642823D8D8F889
:1021A0000000C005F6D5206A10F4407021D0A9883F
:1021B00001F4407181421CD0206A1F49012220F4A1
:1021C00040700A6000220A602062C00711D0FFF749
:1021D000CFFE074641F2883808E000BFFFF7C8FE8F
:1021E000C11B414502D90320BDE8F883206A80075E
:1021F000F4D5206A696820F44070084320621EB15B
:10220000E06920F08050E0612878800705D560689B
:10221000A96820F44040084360602878C00605D5CE
:102220006068E96820F48000084360600020DBE714
:102230000010024000700040400442422DE9F04787
:102240000F46050061D0434E306800F00700B842E9
:1022500009D2306820F0070038433060306800F061
:102260000700B84251D128683B4C810712D540077E
:1022700003D5606840F4E06060602878000703D50B
:10228000606840F4605060606068A96820F0F00009
:10229000084360602878C00728D06868012810D0FB
:1022A0002168022810D0890700292EDA616821F000
:1022B000030101436160FFF75BFE804641F288390C
:1022C0000DE021688903EFE78901EDE7FFF750FE94
:1022D000A0EB0801494502D90320BDE8F0876068FA
:1022E000696800F00C00B0EB810FEFD1306800F0AE
:1022F0000700B8420BD9306820F00700384330603F
:10230000306800F00700B84201D00120E5E72878E6
:10231000400705D56068E96820F4E0600843606024
:102320002878000706D56068296920F4605040EAE3
:10233000C100606000F038F86168084AC1F3031119
:10234000515CC8400649086006480068FFF730FE47
:102350000020C2E70020024000100240324A00087C
:10236000B8000020B0000020044805490068496812
:10237000044AC1F30221515CC8407047B8000020F4
:1023800000100240424A00080448054900684968B4
:10239000044AC1F3C221515CC8407047B800002014
:1023A00000100240424A00080E4A51680E4801F0EF
:1023B0000C03042B11D0082B0FD10C48C1F383431D
:1023C000C903C05C0AD55168084AC1F34041921E56
:1023D000515C054A5043B0FBF1F070470449484353
:1023E000704700000010024000127A00104A0008F6
:1023F00000093D002DE9F84F040070D02078C04D51
:10240000C00749D06868C0F38100012807D0686818
:10241000C0F38100022809D16868C00306D5286886
:10242000800339D560680028E7D035E06068B0F5F2
:10243000803F0BD010B1B0F5A02F11D0286820F448
:1024400080302860286820F4802002E0286840F46A
:1024500080302860606890B1FFF78AFD06460AE088
:10246000286840F480202860F0E700BFFFF780FD77
:10247000801B642873D828688003F7D50CE0FFF729
:1024800077FD064605E000BFFFF772FD801B64285C
:10249000F0D828688003F7D420789A4E80074FF050
:1024A00001094FF0000839D5686810F00C0F07D00B
:1024B0006868C0F38100022809D16868C00306D4A7
:1024C0002868800714D52069012808D110E0206908
:1024D000B0B1C6F80090FFF74BFD074605E00AE1F2
:1024E000FFF746FDC01B0228C4D828688007F7D52F
:1024F0002868616920F0F80040EAC10028600DE01A
:10250000C6F80080FFF734FD074604E0FFF730FD12
:10251000C01B022823D828688007F7D4207800073A
:102520002CD57948A169D9B1C0F80090FFF720FDFA
:10253000074604E0FFF71CFDC01B02280FD8686A9D
:102540008007F7D571484FF4FA510068B0FBF1F0FD
:10255000009000BF0098411E0091FAD20EE080E08A
:10256000C0F80080FFF704FD074604E0FFF700FD18
:10257000C01B022875D8686A8007F7D42078400706
:1025800060D5E8690027C00008D4E86940F08050B1
:10259000E861E869012700F0805000905C4801681C
:1025A000C90513D40168834641F480710160FFF7C7
:1025B000DFFC824606E000BFFFF7DAFCA0EB0A0072
:1025C00064284ED8DBF80000C005F5D5E068012886
:1025D0000AD008B1052813D0286A20F0010028622B
:1025E000286A20F0040002E0286A40F00100286216
:1025F000E06841F2883B98B1FFF7BAFC82460BE0F5
:10260000286A40F004002862EEE700BFFFF7B0FC44
:10261000A0EB0A0159455AD8286A8007F6D50CE084
:10262000FFF7A6FC824605E0FFF7A2FCA0EB0A013B
:1026300059454CD8286A8007F6D41FB1E86920F0C4
:102640008050E861E06988B36968C1F381010229BB
:1026500044D00228C6F8608004D0FFF789FC044605
:1026600038E034E0FFF784FC074604E0FFF780FC25
:10267000C01B02282BD828688001F7D4206AB0F547
:10268000803F05D16868A16820F400300843686085
:10269000D4E908010843696821F4741108436860AB
:1026A000C6F86090FFF764FC044606E025E000BF32
:1026B000FFF75EFC001B022809D828688001F7D5C7
:1026C0001BE000BFFFF754FC001B022802D90320C7
:1026D000BDE8F88F28688001F4D40EE00128F7D017
:1026E0006868226A00F48031914204D1616A00F482
:1026F0007010884201D00120EAE70020E8E70000DE
:10270000001002400000424280044242B800002013
:102710000070004070B5040009D0606A002540B127
:1027200025616561A56294F8510040B10CE001207B
:1027300070BD6068B0F5827FF4D0E561F2E784F89F
:102740005050204600F040F8022084F851002068E4
:10275000016821F040010160A088218900F48270A5
:1027600001F404410843A18901F400610843217C7C
:1027700001F002010843217D01F001010843218B92
:1027800001F400710843217F01F03801084394F8F7
:10279000201001F080010843218D01F4005108430D
:1027A00021680860A069042101EA1040216848609E
:1027B0002068C16921F40061C1616565012084F868
:1027C0005100002070BD000000B585B000210091CF
:1027D00001910291039100680F4988421AD10F4874
:1027E000816941F480518161816901F480510491D2
:1027F000816941F0040181618069694600F004004B
:102800000490A0200090022001900320039004482F
:10281000FFF7B8FA05B000BD0030014000100240DB
:102820000008014010B5401EB0F1807F01D30120A7
:1028300010BD4FF0E02460610F21601701F014FB20
:102840000020A06107202061002010BD7047704764
:1028500070B590F83C20012A26D0012480F83C4035
:10286000022280F83D2003685A689D6822F07006B5
:102870000A6832435A600D4B02689A4208D0B2F19E
:10288000804F05D00A4B9A4202D00A4B9A4204D19B
:10289000496825F080031943916080F83D4000218C
:1028A00080F83C10084670BD022070BD002C01402D
:1028B000000400400008004010B5040003D094F864
:1028C0003D0010B107E0012010BD002084F83C005D
:1028D000204600F01FF8022084F83D00211D2068EA
:1028E00001F0ECF8012084F8460084F83E0084F8FA
:1028F0003F0084F8400084F8410084F8420084F8E6
:10290000430084F8440084F8450084F83D0000202A
:1029100010BD000008B501681448B1F1804F14D013
:10292000134A914220D1C16941F00201C161C069DD
:10293000002200F00200009011461D20FFF784FBEA
:102940001D20BDE80840FFF771BBC16941F00101DE
:10295000C161C069002200F00100009001211C202B
:10296000FFF772FB1C20ECE708BD000000100240DE
:102970000004004090F83D10012901D0012070476B
:10298000022180F83D100168CA6842F00102CA6065
:1029900000680B49884208D0B0F1804F05D0094942
:1029A000884202D00849884204D1816801F00701B9
:1029B000062903D0016841F0010101600020704741
:1029C000002C0140000400400008004070B504469F
:1029D00090F83C000025012817D0012684F83C60BF
:1029E000022084F83D002068826822F0770222F4F9
:1029F0007F4282600868502838D00DDC20284FD0F4
:102A000005DC90B3102811D14AE0022070BD3028B7
:102A100046D040280AD13BE060282FD070280DD046
:102A2000B0F5805F03D0B0F5005F12D0012584F8C7
:102A30003D60002084F83C00284670BDCB68D1E999
:102A40000121206801F076F82068816841F0770163
:102A500009E0CB68D1E90121206801F06BF820681A
:102A6000816841F480418160E1E719E0CA68496802
:102A7000206801F071F85021206806E0CA684968B2
:102A8000206801F07AF86021206801F05DF8CEE757
:102A9000CA684968206801F05FF840212068F4E7BF
:102AA000226801461046F0E770472DE9F0410446E0
:102AB0000068C66805694FF00007A90713D5B1077C
:102AC00011D5F91E016101202077206880698007F7
:102AD000204602D0FFF7E8FF04E000F07EF8204631
:102AE00000F07CF82777680716D5700714D52168A1
:102AF0006FF004000861022020772068806910F4DC
:102B0000407F204602D0FFF7CFFF04E000F065F8D9
:102B1000204600F063F82777280715D5300713D52E
:102B200021686FF008000861042020772068C069E0
:102B30008007204602D0FFF7B7FF04E000F04DF811
:102B4000204600F04BF82777E80616D5F00614D596
:102B500021686FF010000861082020772068C069A4
:102B600010F4407F204602D0FFF79EFF04E000F003
:102B700034F8204600F032F82777E80708D0F0074D
:102B800006D021686FF001000861204600F028F8A7
:102B9000280608D5300606D521686FF08000086148
:102BA0002046FFF753FE680608D5700606D5216853
:102BB0006FF040000861204600F054F8A8060AD5DE
:102BC000B00608D521686FF0200008612046BDE8F6
:102BD000F041FFF73CBEBDE8F08170477047000050
:102BE0002DE9F04105461848184C85421CD118487B
:102BF000FEF7CEFA164F1749FE683046FDF7D0FBB8
:102C0000FDF7D4FDE061DFF8508020624146304698
:102C1000FDF7C6FBFDF7CAFDA06241463869FDF726
:102C2000BFFBFDF7C3FD20630C4885420AD16069F4
:102C300001F08EFE0A480078002803D1BDE8F0417B
:102C400001F078BDBDE8F081A4010020080000205B
:102C50007804002000007A4400409C45EC010020EC
:102C6000000000207047704770470000F8B5016809
:102C700004460868CA684B6910F00F0F4FF0000552
:102C800059D003F0010602F49077374365D0C107AD
:102C900005D0D10503D5616C41F0010161644107A4
:102CA00005D5D90703D0616C41F002016164810749
:102CB00005D5D90703D0616C41F0040161640107B7
:102CC00007D502F02001314303D0616C41F00801C7
:102CD0006164616C00293AD0800604D5900602D563
:102CE000204600F08BFF20684069616CC0F38010C3
:102CF000090700D460B3204600F059FF20684069FE
:102D0000400621D52068143050E8001F21F0400112
:102D100040E80012002AF5D1E06BA8B16D4941638B
:102D2000E06BFEF70FFE002811D0E06B416B01B0A5
:102D3000BDE8F040084783060FD593060DD5204621
:102D4000BDE8F84000F05ABF2046FFF78DFFF8BD00
:102D50002046FFF789FF6564F8BD266B2023012E0E
:102D60007CD1C6067AD5D60678D508684868009022
:102D700048694FF00206400640D5E16B086840689C
:102D80000004000CE8D0A28D8242E5D9E085886974
:102D900020282DD020680C3050E8001F21F48071CD
:102DA00040E80012002AF5D12068143050E8001FD6
:102DB00021F0010140E80012002AF5D1206814300A
:102DC00050E8001F21F0400140E80012002AF5D130
:102DD00084F84230256320680C3050E8001F21F051
:102DE000100140E80012002AF5D1E06BFEF786FDE5
:102DF0006663A08DE18D401A81B22AE0A08DE18D3D
:102E0000401A81B2E08D0028A6D00029A4D0226803
:102E10000C3252E8000F20F4907042E80007002FB7
:102E2000F5D12068143050E8002F22F0010240E86C
:102E30000027002FF5D184F84230256320680C303C
:102E400050E8002F22F0100240E80023002BF5D1BB
:102E500066632046FFF707FFF8BDFFE705062BD5A1
:102E6000150629D594F841002128F5D1A068B0F5C0
:102E7000805F01D12069B0B1206A411C21622168C4
:102E800000784860E08C401E0004000CE084E3D130
:102E90002068C16821F08001C1602068C16841F0EC
:102EA0004001C160D8E7206A0088C0F3080048608C
:102EB000206A801C2062E5E74006CDD55006CBD5C0
:102EC000CA68204622F04002CA6084F8413000F00F
:102ED00001FAC1E79F3B000870B5040004D094F8E4
:102EE0004100002510B106E0012070BD84F840507B
:102EF000204600F023F8242084F841002068C168AF
:102F000021F40051C160204600F0DAFE206801691A
:102F100021F4904101612068416921F02A01416159
:102F20002068C16841F40051C1606564202084F8C4
:102F3000410084F842006563002070BDF0B585B0A3
:102F4000002400940194029403940368424F0220E9
:102F500042490322424D4602BB4225D18B6943F4CC
:102F600080438B618B6903F4804304938B6943F046
:102F700004038B618969039201F004010491010249
:102F8000CDE9001069462846FEF7FCFECDE9006455
:102F9000694628460294FEF7F5FE0022022125200C
:102FA000FFF752F8252028E02E4FBB4229D1CB69EC
:102FB00043F40033CB61CB6903F4003304938B6992
:102FC00043F004038B618969039201F004010491C9
:102FD0000421CDE9001069462846FEF7D3FE0820FB
:102FE000CDE90004694628460294FEF7CBFE002294
:102FF00001212620FFF728F82620FFF717F805B053
:10300000F0BD194DAB42FAD1CB6943F48023CB61BB
:10301000CB6903F4802304938B6943F008038B612D
:103020008969124D01F00801CDE90321CDE9006065
:1030300069462846FEF7A6FEE814CDE90004694675
:1030400028460294FEF79EFE002211462720FEF736
:10305000FBFF2720D1E700000038014000100240AC
:10306000000801400044004000480040000C0140BE
:1030700090F84230202B01D00220704721B11AB1C4
:103080000023036300F078BE012070472DE9FE4362
:10309000804600685B49012500265B4C4FF05B09C8
:1030A00088425CD125705948A278A17981545B2966
:1030B00009D05D291AD0002A4AD0521CD1B2A17081
:1030C000415C5B290ED1A17839B1421812F8012C6C
:1030D0002C2A04D0E67080F80090A57002E0491C0C
:1030E000A170E570A178405C5D2831D1A07878B3FB
:1030F000E17811B1012903D02AE0401CA07027E03B
:1031000042499831081FA0F10807CDE900013B1D95
:103110003A463FA19438FDF729F8B868632805D0EE
:10312000F968632906D0582808D00BE0386800F009
:10313000ADF907E03A497868486103E025723948FB
:1031400000F0D2F9E670A67040213048FDF703F890
:103150002D490122891D3448FFF78AFF00E02670BF
:103160003249D8F80000884248D128482179E279CC
:1031700040305B2A425408D05D2A19D009B3491C5B
:10318000C9B22171415C5B290ED1217939B1421854
:1031900012F8012C2C2A04D0667180F80090257159
:1031A00002E0491C217165712179405C5D281CD1C8
:1031B000207930B1617911B1012903D015E0401CAB
:1031C000207112E0164802AB0830011FCDE9001053
:1031D0000E480A1F0EA14030FCF7C8FF0B4866716D
:1031E000267140214030FCF7B6FF03B00649BDE828
:1031F000F0430122C91D0E48FFF73ABF6670BDE8D3
:10320000FE83000000380140540000208C030020A1
:103210005B25642C25645D2C5B25642C25645D0096
:1032200008000020780400203402002000480040FC
:10323000C40200202DE9F843044690F84100984666
:1032400016460D46202802D00220BDE8F88385B13D
:103250007EB100206064212084F84100FEF788FEE2
:10326000A6848146E684A0682027B0F5805F02D05E
:1032700003E00120E9E7206910B12E4600250EE0A9
:1032800000260CE08021204600F091FDA8B9C6B1CF
:1032900016F8010B21684860E08C401EE084E08C49
:1032A0004B464FF00002CDF800800028EAD14FF0E5
:1032B0004001204600F07BFD40B184F841700320BE
:1032C000C3E735F8020BC0F30800E3E784F8417068
:1032D0000020BAE77047000010B5204C20A02168FC
:1032E00000F0F4F822A0616800F0F0F824A0E16892
:1032F00000F0ECF826A0E16900F0E8F828A0E16908
:1033000000F0E4F82AA0A16A00F0E0F82CA0216BFC
:1033100000F0DCF82EA0E16B00F0D8F8E0690A219B
:1033200090FBF1F0FDF734FA01462CA000F08CF888
:10333000A068642190FBF1F12AA000F0C7F82DA04D
:10334000616B00F0C3F82EA0A16B00F0BFF86169BB
:10335000BDE810402DA000F0B9B800000800002022
:10336000795F64697374616E63652E76616C0000C9
:10337000785F6C656E6774682E76616C0000000083
:103380007371756172655F6E756D2E76616C00008C
:1033900063757272656E745F726C742E76616C0008
:1033A00063757272656E745F6176672E76616C000C
:1033B000706F7765725F726C742E76616C000000BE
:1033C000706F7765725F6D61782E76616C000000BA
:1033D000696E613234302E76616C0000766F666102
:1033E000000000007371756172655F617265612E26
:1033F00076616C006E756D5F6B2E76616C000000FF
:103400006E756D5F622E76616C00000061696D5FA4
:1034100073717572655F6E756D2E76616C0000005C
:1034200010B5012205490648FFF722FE0349012293
:10343000BDE81040491C0348FFF71ABE5A0000209F
:1034400034020020C402002010B504460846FDF7EF
:10345000ADF921460246BDE8104001A000F0F4BCE1
:103460006164642025732E69642C302C2564FFFF71
:10347000FF000000014A00211154704701000020A4
:103480000149085C70470000010000200E4A01213C
:1034900068B101280DD002280DD003280DD00428D2
:1034A0000DD005280DD0062800D1917170471170FC
:1034B00070475170704791707047D17070471171AB
:1034C0007047517170470000010000200A46014614
:1034D00001A000F0B9BC000025733D2564FFFFFF8B
:1034E00000000000FEE7000070B50446016A0B48CA
:1034F000814200D10A482062FDF758F90949C863A2
:10350000206A01F01FF9084D6882206A01F01CF959
:10351000E882BDE8704000F067BA00000000204279
:103520000000A041080000200C03002070B50D46EB
:1035300014461C49FDF782FF1A492846091DFDF76C
:103540007DFF184920460831FDF778FF15491846D8
:103550000C31FDF773FF4FF0FF342346042211496D
:103560001148FFF767FE0F4923460422091D0E4844
:10357000FFF760FE0B492346042208310A48FFF793
:1035800059FE0849234604220C310748FFF752FE32
:103590002346BDE8704003490422091F0248FFF793
:1035A00049BE0000610000207C0200202DE9F041AE
:1035B0008846044601690068FCF79AFE6060074689
:1035C0006169FCF795FE01463846FCF71BFFE06099
:1035D000A568064629464046FCF7DCFE3146FCF766
:1035E000DFFE2946FCF784FE0546A06031464FF019
:1035F0007E50FCF7CFFE3946FCF7D2FE206028460D
:10360000BDE8F081044B0360002343608360C36026
:10361000C0E90412704700000AD7A33C3EB500245D
:1036200010480094019402940D4984600160047371
:103630000475012505614FF460214460C161FEF706
:1036400003F808B1FDF74CFECDE900456946054891
:103650000294FDF777FF002801D0FDF741FE3EBD43
:1036600000240140D8000020094808B5416941F014
:10367000010141614069002200F001000090114603
:103680000B20FEF7E1FCBDE808400B20FEF7CEBCA6
:10369000001002402DE9F04385B000253448009524
:1036A000019502950395816941F01001816181695D
:1036B00001F010010491816941F02001816181696B
:1036C00001F020010491816941F004018161816967
:1036D00001F004010491816941F008018161806970
:1036E000012200F00800234F54030490214638467D
:1036F000FEF738FCDFF88080002250214046FEF7BC
:1037000031FCDFF87890012203214846FEF72AFCBD
:10371000009401240226CDE9024669463846019408
:10372000FEF730FB50208DE85100032669464046E5
:103730000396FEF727FBCDE90064CDE90246694612
:103740004846FEF71FFBE003CDE9000569460294F9
:103750004046FEF717FB4FF47E70CDE90005694641
:1037600002944846FEF70EFB05B0BDE8F08300006A
:10377000001002400010014000080140000C014010
:10378000104810B50E4901604FF48271416000216C
:103790008160C1604FF400720161C0E90512082226
:1037A000C0E90721416281620A21C162FEF7B2FFCE
:1037B000002803D0BDE81040FDF792BD10BD000009
:1037C000003001404C01002010B586B0002417489D
:1037D000009401940294039404944FF08041059462
:1037E000016041F61F41C0E9011441F28731C0E98F
:1037F000031480218161FFF75FF808B1FDF770FDC8
:103800004FF48050009069460848FFF7DFF808B190
:10381000FDF766FD049404A904480594FFF718F821
:10382000002801D0FDF75CFD06B010BDA40100200A
:1038300010B586B0002418480094019402940394B3
:10384000049414490594016041F61F41C0E9011434
:1038500041F28731C0E9031480218161FFF72CF820
:1038600008B1FDF73DFD4FF48050009069460A48CD
:10387000FFF7ACF808B1FDF733FD049404A906483E
:103880000594FEF7E5FF002801D0FDF729FD06B0FD
:1038900010BD000000040040EC0100200C4810B5F1
:1038A0000A4901604FF4E1314160002181600C223E
:1038B000C160C0E904128161C161FFF70DFB0028FE
:1038C00003D0BDE81040FDF70BBD10BD003801402E
:1038D000340200200C4810B50A4901604FF4E13170
:1038E0004160002181600C22C160C0E90412816145
:1038F000C161FFF7F1FA002803D0BDE81040FDF7E1
:10390000EFBC10BD004400407C0200200C4810B504
:103910000A4901604FF4E1314160002181600C22CD
:10392000C160C0E904128161C161FFF7D5FA0028C6
:1039300003D0BDE81040FDF7D3BC10BD00480040E7
:10394000C4020020FEE7FEE7704770472DE9F04112
:10395000214C20884AF2A555DFF88080204E4FF494
:103960000057A84206D1002239464046FEF7FAFA2F
:10397000002030702088A84221D001212046FDF788
:10398000B1FCFEF7EBF92A46002321460120FEF7A1
:10399000A5F9012239464046FEF7E4FA5FF0010539
:1039A000002204EB450113460120FEF797F96D1C38
:1039B000ADB2402DF4D3FEF787F901203070094AEB
:1039C000002000BF34F8101022F81010401C80B204
:1039D0004028F7D3BDE8F08100FC0008001001404A
:1039E000530000200C03002070B50C4D0121284627
:1039F000FDF778FCFEF7B2F9094E002405EB44010F
:103A000036F8142000230120FEF768F9641CA4B2E4
:103A1000402CF3D3BDE87040FEF756B900FC000817
:103A20000C030020FEF7AABA30B593B028216846EF
:103A3000FCF791FB14210AA8FCF78DFB002501205F
:103A40000F9510951195010412958DE823000490AF
:103A50004FF4E010CDE90810022407946846FEF701
:103A6000C9FC08B172B6FEE70AA90F2081E831004F
:103A70004FF48060CDE90D0502210AA8FEF7DEFBB8
:103A800008B172B6FEE74FF4004011900F940FA8F2
:103A9000FEF75EFB002801D072B6FEE713B030BD22
:103AA000704700000148FFF700B80000A4010020A3
:103AB0000148FEF7FABF0000EC010020F0B50268F3
:103AC000194B1A4C1A4D4FF08047984205D0B84216
:103AD00003D0A04201D0A84203D122F070064A6868
:103AE0003243984205D0B84203D0A04201D0A84248
:103AF00003D122F44074CA6822434C6922F0800248
:103B0000224302608A68C2620A688262984201D1D6
:103B100009690163012141610169C90703D0016994
:103B200021F001010161F0BD002C014000040040C2
:103B30000008004010B5846842EA032224F47F4460
:103B40000A432243826010BD826822F070020A4359
:103B500042F007018160704710B5036A046A24F0DF
:103B600001040462846924F0F00444EA021423F09E
:103B70000A020A438461026210BD10B5036A046A36
:103B800024F010040462846923F0A00324F4704438
:103B900044EA023243EA01118261016210BD10B5AC
:103BA000406A0021C185C184FFF75EF810BD01683D
:103BB0000C3151E8002F22F4907241E80023002BD1
:103BC000F5D10168143151E8002F22F0010241E8DB
:103BD0000023002BF5D1016B012909D101680C31BB
:103BE00051E8002F22F0100241E80023002BF5D10C
:103BF000202180F8421000210163704708B590F839
:103C00004210222901D0022008BD82684FF480535F
:103C10009A4201D1016921B1816A9A421BD04AB10D
:103C20000AE00268816A5268C2F308020A80816A67
:103C3000891C08E0026972B10268526802F07F02D2
:103C40000A70816A491C8162C18D491E0904090CF0
:103C5000C18503D01BE002685268F1E70168CA68B9
:103C600022F02002CA600168CA6822F48072CA6029
:103C700001684A6922F001024A61202180F842105D
:103C800000214163026B012A03D0FFF7FFF90020F6
:103C900008BD016301680C3151E8002F22F01002C9
:103CA00041E80023002BF5D101680A68D20602D54D
:103CB0000A6849680091818DFEF7D5FFE7E70000AB
:103CC00070B5044600680169E26821F4405111436F
:103CD00001612169A0680843616908432168CA68D5
:103CE00041F20C639A430243CA6020684169A269A9
:103CF00021F44071114341611E492068884202D17C
:103D0000FEF742FB01E0FEF72FFB00EBC00101EBE9
:103D10000012606864218000B2FBF0F3B3FBF1F3A2
:103D20006FF018067343B2FBF0F5B2FBF0F605EB4B
:103D30008305322303EB0515B5FBF1F5B6FBF1F670
:103D400005F0F00505EB0615B2FBF0F6B2FBF0F05E
:103D5000B0FBF1F06FF01802504306EB800003EB6C
:103D60000010B0FBF1F0216800F00F0028448860DB
:103D700070BD00000038014081628285C28500214B
:103D80004164222180F84210016921B10168CA68AA
:103D900042F48072CA6001684A6942F001024A61D5
:103DA0000068C16841F02001C160002070472DE922
:103DB000F843984617460D460446089E24E0701CBA
:103DC00022D0FEF7D5F8A0EB0800B0421AD8CEB149
:103DD0002068C168490717D5802D15D0402D13D014
:103DE0000168C94309070FD40168002540680090A5
:103DF0002046FFF7DCFE0820606484F84050012074
:103E0000BDE8F8830320FBE72068006835EA00007E
:103E100004D00020B842D2D00020F1E70120F9E719
:103E20000148FEF723BF0000340200200148FEF7DE
:103E30001DBF00007C0200200148FEF717BF0000F4
:103E4000C4020020FEE700000FB4054B10B503A923
:103E5000044A029800F0EAF810BC5DF814FB000078
:103E60004D470008BC0000200907090E002804DBAC
:103E700000F1E02080F80014704700F00F0000F11E
:103E8000E02080F8141D704702E008C8121F08C126
:103E9000002AFAD170477047002001E001C1121FCB
:103EA000002AFBD1704700002DE9FF5F82B000219E
:103EB000DDE90430020DDDF840B0034318D044F6CC
:103EC0001050A2F2FF3242431514119801281FD05E
:103ED000A5EB0B00401C5FEA000A4FF000064E4FB6
:103EE000DFF83891B046504615D5CAF1000413E00A
:103EF000119801244AA3012801D16FEA0B0102980D
:103F0000119AC0E90031C0E9024206B0BDE8F09F55
:103F1000CBF10000DFE704460021404A491842EB9C
:103F20000450CDE9001012E0E00707D032463B46CE
:103F300040464946FCF74BFB8046894632463B46A5
:103F400010461946FCF743FB06460F466410002C4A
:103F5000EAD1DDE90401DDE90023BAF1000F06DA58
:103F6000FCF735FB42464B46FCF731FB05E0FCF71E
:103F7000A0FB42464B46FCF79CFB04460E46002243
:103F8000284BFCF7BBFD03D84FF0FF30014607E09C
:103F90000022254B20463146FCF772FAFCF796FDCD
:103FA000102409E0002C0ADB0A220023FCF766FC3F
:103FB000039B30321A55641E50EA0102F2D1641C90
:103FC000039AC4F111031444119A012A03D0012267
:103FD00008430DD10AE0084304D000204FF0110B34
:103FE000119072E7A3EB0B056D1E0DE05B4504DD40
:103FF0004FF0000205F1010504E003DA4FF0000282
:10400000A5F10105002AECD002981199C0E902310E
:10401000C0E9004579E70000000014400000F03FCF
:10402000300000000000F0430000E03F2DE9FF4FAA
:1040300095B09A46884606460025EEE1252877D1B8
:1040400000242746F94A0121039400E0044316F8AE
:10405000013F203B01FA03F01042F7D130782A28C3
:1040600011D06FF02F033078A0F13002092A16D852
:10407000039A44F0020402EB820203EB4202104472
:10408000761C0390EFE758F8042B0392002A03DA1A
:10409000504244F40054039044F00204761C3078FB
:1040A0002E2816D116F8010F44F004042A280DD04A
:1040B0006FF02F023078A0F13003092B09D807EBFD
:1040C000870302EB4303C718761CF3E758F8047B19
:1040D000761C30786C280FD006DC4C2817D0682866
:1040E0000DD06A2814D104E0742810D07A280FD19A
:1040F0000DE044F400140AE044F4801401E044F4B8
:1041000040147278824202D104F58014761C761C29
:10411000307866280BD013DC582877D009DC0028CB
:1041200075D04528F6D04628F4D047281AD193E117
:1041300018E0632835D0642879D0652812D18BE146
:10414000702873D008DC6728F1D069286FD06E28FA
:104150000DD06F2806D1ACE073282CD0752874D010
:10416000782853D05246179990476D1C54E1C4F3F8
:104170000250022809D003280DD0D8F800100428D6
:104180000DD00D6008F1040846E1D8F80010EA17D8
:10419000C1E90052F6E7D8F800100D80F2E70D7083
:1041A000F0E718F8041B8DF8001000208DF80100CE
:1041B000EB46012003E058F804BB4FF0FF306107E5
:1041C0004FF0000102D40DE009F101018946B94226
:1041D0000FDA8145F8DB1BF809100029F4D108E05B
:1041E00009F1010189468142FADB1BF80910002917
:1041F000F6D103985346A0EB090721463846179A93
:1042000000F080FA284400EB090507E044E008E1EB
:104210000DE01BF8010B524617999047B9F10109BF
:10422000F7D2534621463846179AF2E039E00A2180
:10423000C4F302524FF0000B0091022A06D058F846
:10424000040BC117032A09D00AE023E008F1070094
:1042500020F00702F2E80201904605E000B2C11723
:10426000042A01D140B2C117002906DA0A4600210A
:10427000404261EB02012D2202E0220504D52B22EF
:104280008DF80420012203E0E20701D02022F7E7A5
:10429000914657E00A2100E010214FF0000B0091F9
:1042A0000BE010214FF0000B44F0040408270091AC
:1042B00003E008204FF0000B0090C4F30252022AE2
:1042C00005D058F8040B0021032A08D008E008F1B3
:1042D000070020F00702F2E80201904603E080B2F6
:1042E000042A00D1C0B24FF0000922072AD5327843
:1042F000702A07D0DDF800C08CF0100C5CEA0B0CC3
:1043000005D00EE040228DF80420012208E050EA9A
:10431000010306D030238DF804308DF805200222E9
:104320009146009B83F0080353EA0B030AD150EA3D
:10433000010201D1620705D530228DF804204FF02B
:1043400001097F1E3278582A04D039A20C920CAA97
:1043500002920BE03BA2F9E75B46009AFCF78EFA6B
:104360000C9B9B5C029A521E0292137050EA01024F
:10437000F2D1029804A9081A00F1200B600702D5B7
:1043800024F4803400E001275F4502DDA7EB0B0039
:1043900000E0002000EB0B01009003984944401A14
:1043A0000390E00306D453462146179A039800F081
:1043B000A9F90544002706E001A85246C05D1799F7
:1043C00090476D1C7F1C4F45F6DBE0030CD5534630
:1043D0002146179A039800F095F9054404E030202F
:1043E0005246179990476D1C0099481E009000296D
:1043F000F5DC08E00298029952460078491C0291C7
:10440000179990476D1CBBF10001ABF1010BF1DC7A
:104410005BE100F065F90544761C307800287FF4F4
:104420000DAE19B02846BDE8F08F00000928010044
:10443000303132333435363738396162636465661A
:1044400000000000303132333435363738394142DC
:104450004344454600000000600700D4062708F1E9
:10446000070020F00700F0E80223804603F0004C2C
:104470005FEA0C0001D097A009E0200501D596A0C5
:1044800005E0E00701D095A001E0AFF24C001390E9
:10449000307823F0004365280CD006DC452809D08D
:1044A00046281DD047287FD13BE0662818D06728D2
:1044B0007AD136E00021112F01DB112000E0781CB9
:1044C000CDE9000104A90CA8FFF7EEFCDDE90D0120
:1044D0000C9A4FF0000B07F10109109200914EE089
:1044E0004FF000400097CDE9011004A90CA8FFF798
:1044F000DBFCDDE90D020C9B0F994FF0000B9146A0
:104500001093009211B9791C00EB0109B7EB090077
:1045100003D4C0F1FF3B07F10109A9EB07000190AB
:1045200042E0012F00DA01270021112F01DD1120C7
:1045300000E03846CDE9000104A90CA8FFF7B4FC5F
:10454000DDE90D010C9A00914FF0000BB946109275
:1045500021070FD4009A4A4503DA914601E0A9F1F8
:104560000109B9F1010F05DD109AA9F10101515CB2
:104570003029F4D0B84202DA10F1040F03DA012135
:10458000CDE9011010E0002803DC8344A9EB000111
:1045900002E0411C494500DD8946A0EB0B00401CB0
:1045A00001904FF000400290200705D40198484543
:1045B00002DB4FF0FF30019000208DF84B00029895
:1045C0000DF14B07B0F1004F25D002200C902B20AD
:1045D0000D90029800280CDA404202902D200D9098
:1045E00007E00A210298FCF733F93031029007F80E
:1045F000011D0C99481E0C900029F2DC029800283D
:10460000EFD1791E0D980870307800F0200040F04E
:10461000450007F8020D11A8C01BC01D0290139899
:10462000007800B1012000EB0901019801EBE07175
:10463000029801440398401A401E0390E00306D4F8
:1046400053462146179A039800F05CF805441398E6
:10465000007818B15246179990476D1CE00323D596
:1046600053462146179A039800F04CF805441BE086
:10467000BBF1000F07DB0098584504DD109817992F
:1046800010F80B0001E0179930205246904701982E
:104690000BF1010B401E05F10105019004D12E2004
:1046A0005246179990476D1CB9F10001A9F1010913
:1046B000DEDC05E017F8010B5246179990476D1C98
:1046C0000299481E02900029F4DC53462146179AAD
:1046D00003989EE62D0000002B0000002000000043
:1046E0002DE9F041044600251E461746880404D4EF
:1046F00005E039462020B0476D1C641EF9D52846D8
:10470000BDE8F0812DE9F041044600251E469046A3
:10471000C80301D5302700E02027880404D505E030
:1047200041463846B0476D1C641EF9D52846BDE8A1
:10473000F081000002480021016041608160704703
:1047400008000020000C704780B2704738B504465E
:104750008DF800000223012269460248FEF76AFD37
:10476000204638BD34020020FDF710FCFFF75CF94D
:10477000FEF790FFFEF778FFFFF790F8FFF7AAF833
:10478000FFF7C4F8FEF74AFFFEF7FAFFFFF71CF841
:10479000FFF74EF8FFF7DAF8634A64496448FEF71A
:1047A00031FF05216348FCF77FFC6348FEF7E2F820
:1047B0006248FEF7DFF8FEF733FE5E4CDFF88081DB
:1047C000604F614DDFF884A100264FF4005900BF0F
:1047D000D4E90303E26A6169FEF7A8FEFEF77CFDF7
:1047E0000020FEF74DFE01281ED00620FEF748FEF1
:1047F000012826D00120FEF743FE01282DD00220FB
:10480000FEF73EFE012836D00320FEF739FE0128D0
:104810003FD00420FEF734FE012848D00520FEF7E3
:104820002FFE012851D05DE0012188F80010002200
:1048300049465046FDF796FB6420FDF7DFF900205E
:104840004EE088F80060002249465046FDF78AFB9A
:104850006420FDF7D3F9062042E001213548FCF73A
:10486000CBFB002249465046FDF77CFB6420FDF758
:10487000C5F9012034E002212E48FCF7BDFB0022DF
:1048800049465046FDF76EFB6420FDF7B7F902205C
:1048900026E003212748FCF7AFFB0022494650469B
:1048A000FDF760FB6420FDF7A9F9032018E004215F
:1048B0002048FCF7A1FB002249465046FDF752FB79
:1048C0006420FDF79BF904200AE000224946504687
:1048D000FDF748FB6420FDF791F9FFF785F8052007
:1048E000FEF7C8FD3878012807D100224946504616
:1048F000FDF738FB6420FDF781F92878012809D1FC
:104900002E70002249465046FDF72CFB6420FDF72F
:1049100075F92E70012249465046FDF723FB6420AD
:10492000FDF76CF954E700000AD7233C17B7D138DC
:10493000C000002078040020A4010020EC01002029
:1049400000000020550000205C0000200010014005
:104950002B490978012952D1E0B129494831012870
:104960001ED0022821D0032824D0042827D00528CF
:104970002AD006282DD0072830D0082833D009287F
:1049800037D00A283BD1022301221E480A3100BF3A
:10499000FEF750BC1A490223012248311948F7E7B3
:1049A000022301221748491CF2E70223012215487D
:1049B000891CEDE7022301221248C91CE8E7022303
:1049C00001221048091DE3E7022301220D48491D79
:1049D000DEE7022301220B48891DD9E702230122C9
:1049E0000848C91DD4E70649022301225031054871
:1049F000CEE703490223012251310248C8E770473C
:104A000000000020C402002041EA0040704701027B
:104A100002030405060708090A0B0C0D0E0F1010FF
:104A2000010202030405060708090A0B0C0D0E0F0C
:104A3000101000000000000000000102030406073F
:104A400008090000000001020304DDDDDDDDDCBB40
:104A5000BBDDDDDDDDDDDDDDDDDD98888888888896
:104A600088887777777777888888855555566666FA
:104A70006666666666666668888883333332222295
:104A80002222222222222228888D0000AC4A0008FD
:104A900000000020C0000000883E00086C4B0008A9
:104AA000C000002008080000983E00080000000038
:104AB00000000000000000000000000000000000F6
:104AC00000000000000000000A00000000000000DC
:104AD00000000000000000000000000000000000D6
:104AE00000000000000000000000000000000000C6
:104AF00000000000000102030405060708090A007F
:104B00000000000000000000000000807F000000A6
:104B10000000000000000000000000000000000095
:104B20000000000000000000000000000000000085
:104B30000000000000000000000000000000000075
:104B40000000000000000000000000000000000065
:104B50000000000000000000010000001000000044
:0C4B60000000000000127A0000000000BD
:04000005080000ED02
:00000001FF
